:020000040800F2
:10000000005000201D1800087D1700087F17000809
:1000100081170008831700088517000800000000FA
:10002000000000000000000000000000871700082A
:1000300089170008000000008B1700088D170008C2
:10004000651800086518000865180008651800089C
:100050006518000865180008651800089917000859
:10006000651800086518000865180008C117000821
:10007000651800086518000865180008651800086C
:10008000651800086518000865180008651800085C
:10009000651800086518000865180008651800084C
:1000A000651800086518000865180008651800083C
:1000B000651800086518000865180008651800082C
:1000C000651800086518000865180008651800081C
:1000D000651800086518000865180008651800080C
:1000E0006518000865180008651800080000000081
:1000F0000000000000000000000000000000000000
:0C01000000000000000000005FF808F1A3
:10010C0010B5054C237833B9044B13B10448AFF345
:10011C0000800123237010BD180000200000000097
:10012C00B01800080C4B43B10C4810B50C49AFF398
:10013C0000800C48036823B910BD0A48036833B922
:10014C007047094B002BF7D0BDE810401847064B01
:10015C00002BF5D0184700BF00000000B0180008B5
:10016C001C000020180000200000000010B5044600
:10017C000E4B18784FF47A73B3FBF0F30C4A1068FB
:10018C00B0FBF3F000F08AF868B90F2C01D901200C
:10019C0010BD002221464FF0FF3000F041F8034B18
:1001AC005C60002010BD012010BD00BF00000020CD
:1001BC001400002008B5074A136843F010031360BD
:1001CC00032000F01BF80020FFF7D0FF01F00CFA21
:1001DC00002008BD00200240034A1168034B1B7825
:1001EC000B441360704700BF340000200000002057
:1001FC00014B1868704700BF34000020074AD368D1
:10020C0023F4E0631B041B0C000200F4E0601843B1
:10021C0040F0BF6040F40030D060704700ED00E06B
:10022C0030B4164BDB68C3F30223C3F10704042C70
:10023C0028BF04241D1D062D17D9033B012505FAE3
:10024C0004F4013C2140994005FA03F3013B1340AF
:10025C00194300280BDB0901C9B200F1604000F51D
:10026C00614080F8001330BC70470023E6E700F0D3
:10027C000F000901C9B2024B1954F4E700ED00E07C
:10028C0014ED00E0420900F01F00012303FA00F016
:10029C00014B43F82200704700E100E00138B0F157
:1002AC00807F0AD2064B5860F021064A82F8231050
:1002BC000020986007221A6070470120704700BF29
:1002CC0010E000E000ED00E0042805D0054A1368BA
:1002DC0023F0040313607047024A136843F00403CD
:1002EC001360704710E000E0704708B5FFF7FCFFA3
:1002FC0008BD0000002830D010B403460068184A2E
:10030C0002441849A1FB0212120992001A64164AFF
:10031C00DA63022283F82120016821F47F5121F055
:10032C0030015A689C682243DC6822431C692243D2
:10033C005C6922439C692243DC6922430A430260C4
:10034C0000209862D862186358639863012283F87E
:10035C00212083F8200010BC70470120704700BF9B
:10036C00F8FFFDBFCDCCCCCC0000024038B5C36B40
:10037C001A6804682568016C04238B401A4236D035
:10038C0015F0040F33D0236813F0200F03D123682A
:10039C0023F0040323600368434A934214D01432BD
:1003AC00934219D01432934218D01432934218D07D
:1003BC001432934218D01432934202D04FF0806220
:1003CC0003E04FF4800200E00422384B5A60C36A09
:1003DC00002B67D0984738BD4022F6E74FF4806277
:1003EC00F3E74FF48042F0E74FF48022EDE702236D
:1003FC008B401A423BD015F0020F38D0236813F013
:10040C00200F06D1236823F00A032360012380F810
:10041C0021300368244A934214D0143293421BD0E7
:10042C00143293421AD0143293421AD0143293429B
:10043C001AD01432934202D04FF0007203E04FF402
:10044C00001200E00222194B5A60002380F8203081
:10045C00836A3BB3984738BD2022F4E74FF400720F
:10046C00F1E74FF40052EEE74FF40032EBE70823CC
:10047C0003FA01F10A4215D015F0080F12D02368C7
:10048C0023F00E032360C16B026C012303FA02F20A
:10049C004A60836380F82130002380F82030036B9E
:1004AC0003B1984738BD00BF08000240000002406D
:1004BC00F0B583B00026344671E0002D00F0A18029
:1004CC00012D00D1CE68FF2B00F2AF808646FF2BAA
:1004DC0000F2AE80A500DEF800200F27AF4022EA24
:1004EC00070206FA05F52A43CEF800204A6812F0F6
:1004FC00805F53D0634A956945F001059561926917
:10050C0002F001020192019AA508AF1C5E4A52F852
:10051C00272004F00307BF004FF00F0E0EFA07FE62
:10052C0022EA0E02DFF870E1704500F088800EF5CB
:10053C00806E704500F086800EF5806E704500F080
:10054C0084800EF5806E704576D04FF0040E0EFA56
:10055C0007F73A4302354C4F47F825204A6812F406
:10056C00803F75D0494D2A681A432A604A6812F4B4
:10057C00003F73D0454D6A681A436A604A6812F4AA
:10058C00801F71D0414DAA681A43AA604A6812F4C0
:10059C00001F6FD03D4DEA681343EB6001340F2C04
:1005AC006ED80122A2400B6813409A42F6D14D68D6
:1005BC00122D30D00BD8022D2AD07FF67EAF032D12
:1005CC002FD0112D7FF47FAFCE6804367BE7304FF0
:1005DC00BD4216D00CD92F4FBD4212D007F5803733
:1005EC00BD420ED0A7F58017BD427FF46CAF08E07A
:1005FC00A7F58017BD4204D007F58037BD427FF4C4
:10060C0062AF8D687DB1012D08D0426108265AE792
:10061C00CE68083657E7CE680C3654E702610826D8
:10062C0051E700264FE704264DE700F1040E4EE794
:10063C00A4F10805AD004EE74FF0030E87E74FF02D
:10064C00000E84E74FF0010E81E74FF0020E7EE7BB
:10065C000E4D2A6822EA03022A6087E70B4D6A686E
:10066C0022EA03026A6089E7084DAA6822EA0302BB
:10067C00AA608BE7054DEA6822EA0303EB608DE77D
:10068C0003B0F0BD00100240000001400004014026
:10069C0000002110000031100008014012B90904BB
:1006AC000161704701617047C3685940C160704770
:1006BC007047000008B5054B5B69034200D108BDCB
:1006CC00024B5861FFF7F4FFF9E700BF000401404B
:1006DC0082B0084B1B68084AA2FB03235B0A00FB91
:1006EC0003F0019000BF019B5A1E0192002BF9D11F
:1006FC0002B0704714000020D34D621070B582B068
:10070C000446036813F0010F3DD0AC4B5B6803F05B
:10071C000C03042B2ED0A94B5B6803F00C03082BA5
:10072C0023D06368B3F5803F51D0002B55D103F132
:10073C00804303F504331A6822F480321A601A6875
:10074C0022F480221A606368002B60D0FFF750FD02
:10075C0005469A4B1B6813F4003F14D1FFF748FD74
:10076C00401B6428F5D90320AFE1944B5B6813F46C
:10077C00803FD6D0914B1B6813F4003F03D06368C5
:10078C00002B00F09F81236813F0020F65D08B4B78
:10079C005B6813F00C0F4ED0884B5B6803F00C03B6
:1007AC00082B43D02369002B79D00122844B1A608B
:1007BC00FFF71EFD0546814B1B6813F0020F65D138
:1007CC00FFF716FD401B0228F5D903207DE17B4A7B
:1007DC00136843F480331360B5E7B3F5A02F09D049
:1007EC00764B1A6822F480321A601A6822F480223E
:1007FC001A60A8E703F18043A3F53C331A6842F46E
:10080C0080221A601A6842F480321A609BE7FFF764
:10081C00EFFC0546694B1B6813F4003FB3D0FFF7A0
:10082C00E7FC401B6428F5D903204EE1634B5B6861
:10083C0013F4803FB6D1614B1B6813F0020F04D048
:10084C002369012B01D001203FE15C4A136823F09E
:10085C00F803616943EAC1031360236813F0080FBE
:10086C0032D0A369002B6ED00122564B1A60FFF7D1
:10087C00BFFC0546514B5B6A13F0020F21D1FFF709
:10088C00B7FC401B0228F5D903201EE14B4A136824
:10089C0023F0F803616943EAC1031360DDE700222A
:1008AC00474B1A60FFF7A4FC0546444B1B6813F03A
:1008BC00020FD2D0FFF79CFC401B0228F5D9032075
:1008CC0003E10120FFF704FF236813F0040F00F08D
:1008DC0099803A4BDB6913F0805F46D1374BDA696C
:1008EC0042F08052DA61DB6903F080530193019B83
:1008FC000125354B1B6813F4807F38D0E368012B3E
:10090C0049D0002B4DD103F1804303F504331A6A0F
:10091C0022F001021A621A6A22F004021A62E368D7
:10092C00002B5DD0FFF764FC0646244B1B6A13F0CA
:10093C00020F66D1FFF75CFC801B41F288339842B2
:10094C00F3D90320C1E000221E4B1A60FFF750FCC4
:10095C0005461A4B5B6A13F0020FB5D0FFF748FC43
:10096C00401B0228F5D90320AFE00025C1E7164A49
:10097C00136843F480731360FFF73AFC0646124B7E
:10098C001B6813F4807FB9D1FFF732FC801B6428FD
:10099C00F5D9032099E0094A136A43F00103136265
:1009AC00BDE7052B12D0054B1A6A22F001021A6220
:1009BC001A6A22F004021A62B1E700BF001002406A
:1009CC00000042428004424200700040414B1A6ACF
:1009DC0042F004021A621A6A42F001021A629EE79D
:1009EC00FFF706FC06463B4B1B6A13F0020F08D0C0
:1009FC00FFF7FEFB801B41F288339842F3D90320AA
:100A0C0063E0E5B9E369002B5ED0324A526802F02C
:100A1C000C02082A5BD0022B17D000222E4B1A6036
:100A2C00FFF7E6FB04462B4B1B6813F0007F47D007
:100A3C00FFF7DEFB001B0228F5D9032045E0254A11
:100A4C00D36923F08053D361DCE70022224B1A6078
:100A5C00FFF7CEFB05461F4B1B6813F0007F06D03B
:100A6C00FFF7C6FB401B0228F5D903202DE0236AB3
:100A7C00B3F5803F1AD017494B6823F47413226ADC
:100A8C00606A024313434B600122134B1A60FFF759
:100A9C00AFFB04460F4B1B6813F0007F0ED1FFF722
:100AAC00A7FB001B0228F5D903200EE0094A536866
:100ABC0023F40033A1680B435360DCE7002004E00F
:100ACC00002002E0012000E0002002B070BD0120F7
:100ADC00FBE700BF001002406000424210B586B038
:100AEC00154C94E80F000DF1180E0EE90F00238A37
:100AFC00ADF80430114B5B6803F00C02082A18D1D6
:100B0C00C3F38342724412F8102C13F4803F03D1C8
:100B1C000B4800FB02F00DE0084B5B68C3F340434D
:100B2C00734413F8143C074800FB02F0B0FBF3F0DD
:100B3C0000E0044806B010BDC818000800100240C0
:100B4C0000093D0000127A00594B1B6803F00703A3
:100B5C008B420CD2564A136823F007030B431360E5
:100B6C00136803F00703994201D00120704770B558
:100B7C00036813F0020F06D04E4A536823F0F003BB
:100B8C008468234353600D460446036813F0010F39
:100B9C0052D04368012B23D0022B28D0454A12682F
:100BAC0012F0020F00F0828042494A6822F00302E0
:100BBC0013434B60FFF71CFB06466368012B1DD0EB
:100BCC00022B2AD03B4B5B6813F00C0F34D0FFF791
:100BDC000FFB801B41F288339842F3D9032070BD80
:100BEC00344A126812F4003FDED1012070BD314A44
:100BFC00126812F0007FD7D1012070BD2D4B5B68BD
:100C0C0003F00C03042B17D0FFF7F2FA801B41F210
:100C1C0088339842F2D9032070BD264B5B6803F0F1
:100C2C000C03082B08D0FFF7E3FA801B41F2883342
:100C3C009842F2D9032070BD1D4B1B6803F00703CB
:100C4C009D420CD21A4A136823F007032B431360FE
:100C5C00136803F007039D4201D0012070BD236887
:100C6C0013F0040F06D0134A536823F4E063E168D1
:100C7C000B435360236813F0080F07D00D4A5368D9
:100C8C0023F46053216943EAC1035360FFF726FF45
:100C9C00084B5B68C3F30313074AD35CD840074B7C
:100CAC0018600020FFF762FA002070BD012070BDB3
:100CBC000020024000100240DC1800081400002044
:100CCC00014B1868704700BF1400002030B4036A51
:100CDC0023F001030362036A4468826922F0730201
:100CEC000D682A4323F002038D682B430D4DA84257
:100CFC0009D00C4DA8420DD0446082614A68426311
:100D0C00036230BC704723F00803CD682B4323F0FB
:100D1C000403EEE724F440744D692C438D692C4395
:100D2C00EAE700BF002C014030B4036A23F480735F
:100D3C000362036A4468C26922F073020D682A4395
:100D4C0023F400738D6843EA05230F4DA84209D0A4
:100D5C000D4DA8420ED04460C2614A68C263036262
:100D6C0030BC704723F40063CD6843EA052323F4B9
:100D7C008063EDE724F440544D6944EA05148D6911
:100D8C0044EA0514E7E700BF002C014030B4036AC5
:100D9C0023F480530362036A4468C26922F4E64276
:100DAC000D6842EA052223F400538D6843EA0533AB
:100DBC00074DA84206D04460C2614A6802640362CF
:100DCC0030BC704724F480444D6944EA8514F2E742
:100DDC00002C014010B4036A046A24F0010404627C
:100DEC00846924F0F00444EA021223F00A030B4352
:100DFC008261036210BC704710B4036A23F01003C5
:100E0C0003628469036A24F4704444EA023223F0D6
:100E1C00A00343EA01138261036210BC704783682C
:100E2C0023F0700341F007010B438360704710B44B
:100E3C00846824F47F4442EA032319430C438460FE
:100E4C0010BC7047022380F83D300268136843F0F1
:100E5C0001031360012380F83D3000207047704778
:100E6C00704790F83C30012B7DD010B5044601231F
:100E7C0080F83C30022380F83D300268936823F4FC
:100E8C007F4323F0770393600B68402B57D010D926
:100E9C00702B3ED01FD8502B47D0602B32D1CA6854
:100EAC0049680068FFF7A8FF60212068FFF7B7FFCB
:100EBC0028E0102B4DD008D9202B4FD0302B21D12E
:100ECC0030210068FFF7ABFF1CE0DBB900210068A4
:100EDC00FFF7A5FF16E0B3F5805F0ED0B3F5005F0A
:100EEC0010D1CB684A6889680068FFF7A0FF2268B8
:100EFC00936843F48043936004E00268936823F0A2
:100F0C0007039360012384F83D30002084F83C00F3
:100F1C0010BDCB684A6889680068FFF788FF2268B3
:100F2C00936843F077039360ECE7CA6849680068FC
:100F3C00FFF750FF50212068FFF771FFE2E7CA6806
:100F4C0049680068FFF746FF40212068FFF767FFFC
:100F5C00D8E710210068FFF762FFD3E72021006873
:100F6C00FFF75DFFCEE702207047000003681C4AC4
:100F7C00904227D0B0F1804F24D0A2F59432904209
:100F8C0020D002F5806290421CD0154A90421ED0AF
:100F9C00B0F1804F1BD0A2F59432904217D002F5DD
:100FAC008062904213D023F080034A69134303609C
:100FBC008B68C3620B688362094B98420CD0012387
:100FCC004361704723F070034A681343DDE723F451
:100FDC004073CA681343E6E70B690363EFE700BF8E
:100FEC00002C0140A8B110B5044690F83D305BB11F
:100FFC00022384F83D30211D2068FFF7B7FF012341
:10100C0084F83D30002010BD80F83C3000F03CFBF3
:10101C00EEE701207047A8B110B5044690F83D30BA
:10102C005BB1022384F83D30211D2068FFF79EFF41
:10103C00012384F83D30002010BD80F83C30FFF7D0
:10104C000EFFEEE701207047A8B110B5044690F8EA
:10105C003D305BB1022384F83D30211D2068FFF741
:10106C0085FF012384F83D30002010BD80F83C3012
:10107C00FFF7F6FEEEE701207047000030B4036A7C
:10108C0023F010030362036A4468826922F4E64287
:10109C000D6842EA052223F020038D6843EA05130C
:1010AC000E4DA84209D00D4DA8420ED0446082616D
:1010BC004A688263036230BC704723F08003CD68BA
:1010CC0043EA051323F04003EDE724F440644D6933
:1010DC0044EA85048D6944EA8504E7E7002C014065
:1010EC0090F83C30012B28D010B50446012380F831
:1010FC003C30022380F83D300C2A0BD8DFE802F09C
:10110C00070A0A0A110A0A0A150A0A0A19000068CB
:10111C00FFF7DCFD012384F83D30002084F83C000F
:10112C0010BD0068FFF7AAFFF4E70068FFF7FCFDAD
:10113C00F0E70068FFF72AFEECE70220704738B5AD
:10114C0090F83C30012B66D00D460446012380F804
:10115C003C30022380F83D300C2A1AD8DFE802F02C
:10116C000719191920191919341919194700006888
:10117C00FFF7ACFD2268936943F008039361226882
:10118C00936923F0040393612268936929690B43E3
:10119C009361012384F83D30002084F83C0038BD75
:1011AC000068FFF76BFF2268936943F40063936157
:1011BC002268936923F48063936122689369296997
:1011CC0043EA01239361E4E70068FFF7ADFD226871
:1011DC00D36943F00803D3612268D36923F0040375
:1011EC00D3612268D36929690B43D361D1E70068C5
:1011FC00FFF7CCFD2268D36943F40063D361226806
:10120C00D36923F48063D3612268D369296943EAE3
:10121C000123D361BDE7022038BD10B4012303FACA
:10122C0001F4036A23EA04030362036A8A4013434A
:10123C00036210BC7047000010B504460122006820
:10124C00FFF7EBFF2368074A934206D02268136826
:10125C0043F001031360002010BD5A6C42F40042AD
:10126C005A64F3E7002C014010B5044601220068D3
:10127C00FFF7D3FF2368074A934206D0226813680E
:10128C0043F001031360002010BD5A6C42F400427D
:10129C005A64F3E7002C014090F83C30012B22D02B
:1012AC0030B4012280F83C20022380F83D300468E1
:1012BC00636823F070036360046863680D682B43F4
:1012CC0063600468A36823F08003A3600468A368C8
:1012DC0049680B43A36080F83D20002380F83C3024
:1012EC00184630BC704702207047000030B587B0FC
:1012FC001B4B9A6942F004029A619A6902F004024B
:10130C000092009A9A6942F008029A619B6903F074
:10131C0008030193019B134D012208212846FFF776
:10132C00BDF902230293104B03930024049402A9E9
:10133C002846FFF7BDF80823029301230393049476
:10134C000323059302A92846FFF7B2F8224621464B
:10135C000720FEF765FF0720FEF794FF07B030BDAE
:10136C0000100240000C01400000111000B583B0C9
:10137C000A4B5A6942F001025A615B6903F001039E
:10138C000193019B002211460B20FEF749FF0B2015
:10139C00FEF778FF03B05DF804FB00BF00100240BD
:1013AC0038B50F4D2B680F4A9A600F4ADA6003224A
:1013BC005A600E4C23689A6C42F403729A64DA6891
:1013CC0042F48072DA602046FFF73CFD0021204693
:1013DC00FFF732FF2A68136843F00103136038BD2E
:1013EC00B80000204C080040080000203800002005
:1013FC00FEE7000000B58FB02448254B0360312375
:10140C004360002383606422C26003618361FFF741
:10141C00E9FD30BB0EA94FF4805341F8103D1B4839
:10142C00FFF71FFD08BB1948FFF70EFE08BB002392
:10143C000893099308A91548FFF72EFFE8B9602314
:10144C0001933A23029300220392059201A90F48BB
:10145C00FFF775FEA8B90D4800F062F90FB05DF802
:10146C0004FBC7210B48FFF7C3FFCD210948FFF749
:10147C00BFFFD2210748FFF7BBFFD9210548FFF773
:10148C00B7FFE2210348FFF7B3FF00BF780000204D
:10149C0000040040F418000800B58FB02448254B18
:1014AC000360312343600023836003618361FFF792
:1014BC0099FD28BB0EA94FF4805341F8103D1C48F0
:1014CC00FFF7CFFC00BB1A48FFF7A5FD00BB0023BC
:1014DC000893099308A91648FFF7DEFEE8B9102314
:1014EC000193002202920392059201A91048FFF782
:1014FC00F7FDB8B90E4800F013F90FB05DF804FB16
:10150C00F9210D48FFF774FFFF210B48FFF770FF1F
:10151C004FF482710848FFF76BFF40F20B1106483D
:10152C00FFF766FF4FF48A710348FFF761FF00BFB6
:10153C003800002000080040F418000800B591B0F5
:10154C000223069301230A9310230B9300230D937C
:10155C0006A8FFF7D3F808BB0F23019300210291D3
:10156C00A02303934FF4C0630493059301A8FFF7E2
:10157C00EBFAB8B9FFF7A4FB0C4BA3FB00308009C6
:10158C00FEF78CFE0420FEF79FFE002211464FF062
:10159C00FF30FEF745FE11B05DF804FB9A210448BC
:1015AC00FFF726FFA8210248FFF722FFD34D621058
:1015BC00F418000808B5FEF7FDFDFFF7BFFFFFF7B5
:1015CC0095FEFFF7D3FEFFF715FFFFF765FFFFF75B
:1015DC00E7FE044C2046FFF735FC00212046FFF7C0
:1015EC0043FEFEE77800002000B583B0244B9A69D7
:1015FC0042F001029A619A6902F001020092009A8B
:10160C00DA6942F08052DA61DB6903F080530193AE
:10161C00019B0320FEF7F2FD002211466FF00B0038
:10162C00FEF7FEFD002211466FF00A00FEF7F8FDF2
:10163C00002211466FF00900FEF7F2FD0022114660
:10164C006FF00400FEF7ECFD002211466FF0030072
:10165C00FEF7E6FD002211466FF00100FEF7E0FDFB
:10166C00002211464FF0FF30FEF7DAFD054A5368B1
:10167C0023F0E06343F00073536003B05DF804FBA8
:10168C00001002400000014010B582B003681E4AF1
:10169C00934204D01D4A93420CD002B010BD1C4B97
:1016AC00DA6942F00202DA61DB6903F002030093AB
:1016BC00009BF2E70446164BDA6942F00402DA6149
:1016CC00DB6903F004030193019B1248124B036086
:1016DC0010234360002383608022C2604FF4807229
:1016EC0002614FF48062426183614FF40053C36125
:1016FC00FEF700FE18B9074B63625C62CDE77921F7
:10170C000648FFF775FEF6E70004004000080040AD
:10171C0000100240B8000020080002400419000824
:10172C0000B585B003680E4A934205D00D4A93422A
:10173C000CD005B05DF804FB402300930223019309
:10174C00039369460848FEF7B3FEF2E74023009383
:10175C0002230193039369460448FEF7A9FEE8E7C8
:10176C00000400400008004000080140000C01404B
:10177C007047FEE7FEE7FEE7FEE7704770477047ED
:10178C0008B5FEF729FDFEF7B0FD08BD08B5074BFF
:10179C005B6913F0020F03D10220FEF78BFF08BD2B
:1017AC0008210348FEF780FFF6E700BF0004014064
:1017BC00000C014008B50248FEF7D8FD08BD00BF7B
:1017CC00B80000200F4B1A6842F001021A605968E9
:1017DC000D4A0A405A601A6822F0847222F4803250
:1017EC001A601A6822F480221A605A6822F4FE02E7
:1017FC005A604FF41F029A604FF00062034B9A60DC
:10180C00704700BF001002400000FFF800ED00E040
:10181C00002103E00B4B5B58435004310A480B4B3F
:10182C0042189A42F6D30A4A02E0002342F8043BDB
:10183C00084B9A42F9D3FFF7C5FF00F00FF8FFF7FA
:10184C00B9FE70472819000800000020180000207D
:10185C0018000020FC000020FEE7000070B50025F9
:10186C000C4E0D4CA41BA410A54209D100F01AF883
:10187C0000250A4E0A4CA41BA410A54205D170BD2C
:10188C0056F8253098470135EEE756F8253098473D
:10189C000135F2E72019000820190008201900086A
:1018AC0024190008F8B500BFF8BC08BC9E46704768
:0C18BC00F8B500BFF8BC08BC9E467047A1
:1018C80002030405060708090A0B0C0D0E0F101079
:1018D80001020000000000000000000001020304F3
:1018E8000607080900000000010203042E2E2F53EA
:1018F80072632F6D61696E2E630000002E2E2F53C8
:1019080072632F73746D3332663178785F68616CF7
:081918005F6D73702E63000087
:041920003101000889
:041924000D010008A9
:101928000100000010000000640000005A0064007C
:081938000000320000A24A0485
:040000050800181DBA
:00000001FF
