:020000040800F2
:1000000000500020D11300083513000839130008F0
:100010003D130008411300084513000800000000CC
:10002000000000000000000000000000491300086C
:100030004D1300080000000051130008551300087C
:1000400019140008191400081914000819140008DC
:100050001914000819140008191400086113000885
:1000600019140008191400081914000819140008BC
:1000700019140008191400081914000819140008AC
:10008000191400081914000819140008191400089C
:10009000191400081914000819140008191400088C
:1000A000191400081914000819140008191400087C
:1000B000191400081914000819140008191400086C
:1000C000191400081914000819140008191400085C
:1000D000191400081914000819140008191400084C
:1000E0001914000819140008191400080000000071
:1000F0000000000000000000000000000000000000
:0C01000000000000000000005FF808F1A3
:10010C0010B5054C237833B9044B13B10448AFF345
:10011C0000800123237010BD0C00002000000000A3
:10012C0068140008084B10B51BB108490848AFF318
:10013C0000800848036803B910BD074B002BFBD0A7
:10014C00BDE81040184700BF000000001000002060
:10015C00681400080C0000200000000010B50446D4
:10016C000E4B18784FF47A73B3FBF0F30C4A10680B
:10017C00B0FBF3F000F08AF858B90F2C0BD8002222
:10018C0021464FF0FF3000F043F8044B5C60002038
:10019C0010BD012010BD012010BD00BF00000020CB
:1001AC000800002008B5074A136843F010031360D9
:1001BC00032000F01BF80020FFF7D0FF01F038F807
:1001CC00002008BD00200240034A13680349097847
:1001DC000B441360704700BF280000200000002073
:1001EC00014B1868704700BF28000020074AD368ED
:1001FC0023F4E0631B041B0C000200F4E0601843C2
:10020C0040F0BF6040F40030D060704700ED00E07B
:10021C0030B4164BDB68C3F30223C3F10704042C80
:10022C0028BF04241D1D062D01D9DD1E00E000256C
:10023C00012303FA04F4013C2140A940AB40013BEB
:10024C001A400A43002806DA00F00F001201D2B25D
:10025C00074B1A5407E01201D2B200F1604000F5CE
:10026C00614080F8002330BC704700BF00ED00E017
:10027C0014ED00E0420900F01F00012303FA00F026
:10028C00014B43F82200704700E100E00138B0F167
:10029C00807F0AD2064B5860F021064A82F8231060
:1002AC000020986007221A6070470120704700BF39
:1002BC0010E000E000ED00E0042805D1054A1368C9
:1002CC0043F0040313607047024A136823F00403DD
:1002DC001360704710E000E0704700BF08B5FFF7EF
:1002EC00FBFF08BDF0B583B000263446D5E00122F3
:1002FC00A2400B6813409A4240F0CE804D68122DFC
:10030C002DD00BD8022D27D003D85DB3012D1ED0D4
:10031C0035E0032D30D0112D1BD030E0614FBD42A4
:10032C0020D008D8A7F58017BD421BD007F5803721
:10033C00BD4224D116E05C4FBD4213D007F5803787
:10034C00BD420FD0A7F58017BD4218D10AE0CE6888
:10035C0015E0CE68043612E0CE6808360FE0CE68A1
:10036C000C360CE08D684DB1012D02D102610826CE
:10037C0005E04261082602E0002600E00426FF2B7F
:10038C0001D8864601E000F1040EFF2B01D8A20033
:10039C0002E0A4F108029200DEF800700F259540EF
:1003AC0027EA050506FA02F22A43CEF800204A682D
:1003BC0012F0805F70D03D4A956945F0010595615A
:1003CC00926902F001020192019AA708BD1C384AF9
:1003DC0052F8255004F0030292004FF00F0E0EFA63
:1003EC0002FE25EA0E0E334DA8420DD005F58065B0
:1003FC00A8420BD005F58065A84209D005F58065AB
:10040C00A84207D1032506E0002504E0012502E0FF
:10041C00022500E0042505FA02F24EEA0202023738
:10042C00234D45F827204A6812F4803F05D005F586
:10043C0080652A681A432A6004E01F4D2A6822EA64
:10044C0003022A604A6812F4003F04D01A4D6A680D
:10045C001A436A6004E0184D6A6822EA03026A6073
:10046C004A6812F4801F04D0134DAA681A43AA607C
:10047C0004E0114DAA6822EA0302AA604A6812F449
:10048C00001F04D00C4DEA681343EB6004E00A4DE6
:10049C00EA6822EA0303EB6001340F2C7FF627AFE6
:1004AC0003B0F0BD0000211000003110001002401C
:1004BC00000001400008014000040140C36859409D
:1004CC00C1607047704700BF08B5044B5B690342BD
:1004DC0003D0024B5861FFF7F5FF08BD0004014043
:1004EC0082B0084B1B68084AA2FB03235B0A00FB83
:1004FC0003F0019000BF019B5A1E0192002BF9D111
:10050C0002B0704708000020D34D621070B582B065
:10051C000446036813F0010F6BD0A84B5B6803F023
:10052C000C03042B0AD0A54B5B6803F00C03082BBF
:10053C000DD1A24B5B6813F4803F08D09F4B1B6816
:10054C0013F4003F55D06368002B52D1B8E16368B7
:10055C00B3F5803F05D1994A136843F48033136097
:10056C0026E063B903F1804303F504331A6822F4DF
:10057C0080321A601A6822F480221A6018E0B3F5EF
:10058C00A02F0CD103F18043A3F53C331A6842F43D
:10059C0080221A601A6842F480321A6008E0874B95
:1005AC001A6822F480321A601A6822F480221A60C7
:1005BC0063687BB1FFF714FE054605E0FFF710FEFC
:1005CC00401B642800F27E817C4B1B6813F4003FB7
:1005DC00F4D00EE0FFF704FE054605E0FFF700FE41
:1005EC00401B642800F27081744B1B6813F4003FAD
:1005FC00F4D1236813F0020F50D0704B5B6813F0EA
:10060C000C0F0AD06D4B5B6803F00C03082B16D152
:10061C006A4B5B6813F4803F11D1684B1B6813F075
:10062C00020F03D02369012B40F05081634A1368F9
:10063C0023F0F803616943EAC10313602EE02369D8
:10064C00D3B101225E4B1A60FFF7CAFD054605E0E7
:10065C00FFF7C6FD401B022800F23A81574B1B687E
:10066C0013F0020FF4D0554A136823F0F8036169B4
:10067C0043EAC103136011E00022514B1A60FFF7EB
:10068C00AFFD054605E0FFF7ABFD401B022800F26D
:10069C0021814A4B1B6813F0020FF4D1236813F02D
:1006AC00080F29D0A369ABB10122464B1A60FFF7A2
:1006BC0097FD054605E0FFF793FD401B022800F26D
:1006CC000B813E4B5B6A13F0020FF4D00120FFF755
:1006DC0007FF11E000223B4B1A60FFF781FD054636
:1006EC0005E0FFF77DFD401B022800F2F780334B3D
:1006FC005B6A13F0020FF4D1236813F0040F00F0BF
:10070C0089802E4BDB6913F0805F0BD12B4BDA69A0
:10071C0042F08052DA61DB6903F080530193019B54
:10072C00012500E00025284B1B6813F4807F13D1B2
:10073C00254A136843F480731360FFF751FD064696
:10074C0005E0FFF74DFD801B642800F2C9801E4BAD
:10075C001B6813F4807FF4D0E368012B05D1174A92
:10076C00136A43F00103136222E063B903F180437F
:10077C0003F504331A6A22F001021A621A6A22F093
:10078C0004021A6214E0052B09D10C4B1A6A42F0D0
:10079C0004021A621A6A42F001021A6208E0074B5C
:1007AC001A6A22F001021A621A6A22F004021A6210
:1007BC00E368CBB1FFF714FD06460FE000100240D2
:1007CC00000042428004424200700040FFF708FDE6
:1007DC00801B41F28833984200F28480494B1B6A9B
:1007EC0013F0020FF2D00FE0FFF7FAFC064606E01A
:1007FC00FFF7F6FC801B41F28833984274D8414BCA
:10080C001B6A13F0020FF3D125B13E4AD36923F0D2
:10081C008053D361E369002B68D03A4A526802F0E6
:10082C000C02082A64D0022B37D10022364B1A60F6
:10083C00FFF7D6FC054604E0FFF7D2FC401B02286C
:10084C0058D8304B1B6813F0007FF5D1236AB3F5F1
:10085C00803F06D12B494B6823F40032A368134325
:10086C004B602848436823F47411236A626A13436B
:10087C000B4343600122244B1A60FFF7B1FC044682
:10088C0004E0FFF7ADFC001B022835D81D4B1B689C
:10089C0013F0007FF5D0002031E000221A4B1A60D3
:1008AC00FFF79EFC044604E0FFF79AFC001B0228AD
:1008BC0024D8144B1B6813F0007FF5D100201EE0E8
:1008CC0001201CE003201AE0032018E0012016E0B0
:1008DC00032014E0032012E0032010E003200EE0BC
:1008EC0003200CE003200AE0032008E0002006E0CF
:1008FC00012004E0032002E0032000E0032002B00A
:10090C0070BD00BF001002406000424230B486B09F
:10091C00164D02AC28686968AA68EB680FC42B8A6C
:10092C00ADF80430124B5B6803F00C02082A19D1A5
:10093C00C3F3834206A90A4412F8100C13F4803F47
:10094C000CD00B4B5B68C3F340430B4413F8142CD3
:10095C00084B03FB00F0B0FBF2F004E0064B03FB8A
:10096C0000F000E0034806B030BC7047801400086B
:10097C000010024000127A0000093D0070B55C4B7B
:10098C001B6803F007038B420BD2594A136823F000
:10099C0007030B431360136803F00703994240F0FD
:1009AC009780036813F0020F06D0524C636823F053
:1009BC00F0028368134363600D460446036813F02A
:1009CC00010F4DD04268012A05D14A4B1B6813F424
:1009DC00003F0DD17EE0022A05D1464B1B6813F077
:1009EC00007F05D178E0434B1B6813F0020F75D0E4
:1009FC0040494B6823F0030313434B60FFF7F0FBB4
:100A0C0006466368012B0ED106E0FFF7E9FB801B5D
:100A1C0041F28833984263D8364B5B6803F00C0381
:100A2C00042BF2D11CE0022B15D106E0FFF7D8FB0A
:100A3C00801B41F28833984254D82E4B5B6803F0EC
:100A4C000C03082BF2D10BE0FFF7CAFB801B41F221
:100A5C008833984248D8274B5B6813F00C0FF3D1BE
:100A6C00234B1B6803F007039D420AD2204A1368EC
:100A7C0023F007032B431360136803F007039D4215
:100A8C0034D1236813F0040F06D01A494B6823F4B1
:100A9C00E062E36813434B60236813F0080F07D040
:100AAC00144A536823F46053216943EAC103536029
:100ABC00FFF72CFF0F4B5B68C3F303130E4AD35C99
:100ACC00D8400E4B18600020FFF748FB002070BD8B
:100ADC00012070BD012070BD012070BD012070BDD2
:100AEC00032070BD032070BD032070BD012070BDBC
:100AFC00002002400010024094140008080000205E
:100B0C00014B1868704700BF0800002070B4036ADE
:100B1C0023F001030362036A4668826922F07302C0
:100B2C000C6842EA040523F002028B6813430C4C58
:100B3C00A04205D123F00803CA68134323F0040331
:100B4C00074CA04205D126F440764A6932438E699F
:100B5C001643466085614A684263036270BC704705
:100B6C00002C014030B4036A23F480730362036ADF
:100B7C004568C26922F073020C68224323F40073A7
:100B8C008C6843EA04230E4CA04206D123F4006384
:100B9C00CC6843EA042323F48063094CA04207D1B8
:100BAC0025F440554C6945EA04158C6945EA041551
:100BBC004560C2614A68C263036230BC704700BFC3
:100BCC00002C014030B4036A23F480530362036A9F
:100BDC004468C26922F4E6420D6842EA052223F415
:100BEC0000538D6843EA0533074DA84204D124F421
:100BFC0080444D6944EA85144460C2614A680264C9
:100C0C00036230BC704700BF002C014010B4036A73
:100C1C00046A24F001040462846924F0F00444EAB8
:100C2C00021223F00A0319438261016210BC70475F
:100C3C0010B4036A23F0100303628469036A24F47A
:100C4C00704444EA023223F0A00343EA01118261AA
:100C5C00016210BC704700BF836823F0700341F041
:100C6C0007010B438360704710B4846824F47F44FD
:100C7C0042EA0323194344EA0103836010BC704722
:100C8C00022380F83D300268136843F001031360BF
:100C9C00012380F83D300020704700BF704700BF33
:100CAC0090F83C30012B00F0838010B504460123F2
:100CBC0080F83C30022380F83D300268936823F4BE
:100CCC007F4323F0770393600B68402B4CD00AD8FA
:100CDC00102B58D002D8002B50D062E0202B57D0CC
:100CEC00302B5AD05DE0702B12D004D8502B27D06B
:100CFC00602B2FD055E0B3F5805F03D0B3F5005FC8
:100D0C0012D04EE00268936823F00703936048E02A
:100D1C00CB684A6889680068FFF7A6FF2268936869
:100D2C0043F0770393603CE0CB684A6889680068BD
:100D3C00FFF79AFF2268936843F48043936030E096
:100D4C00CA6849680068FFF761FF50212068FFF707
:100D5C0083FF26E0CA6849680068FFF769FF6021D5
:100D6C002068FFF779FF1CE0CA6849680068FFF744
:100D7C004DFF40212068FFF76FFF12E00021006853
:100D8C00FFF76AFF0DE010210068FFF765FF08E030
:100D9C0020210068FFF760FF03E030210068FFF7B7
:100DAC005BFF012384F83D30002084F83C0010BD2B
:100DBC000220704703681A4A90420AD0B0F1804F63
:100DCC0007D0A2F59432904203D002F58062904293
:100DDC0003D123F070034A681343114A90420AD09E
:100DEC00B0F1804F07D0A2F59432904203D002F5B7
:100DFC008062904203D123F44073CA68134323F0FA
:100E0C0080034A69134303608B68C3620B68836277
:100E1C00034B984201D10B69036301234361704773
:100E2C00002C0140B8B110B5044690F83D3013F0D9
:100E3C00FF0F04D1002380F83C3000F049FA022364
:100E4C0084F83D30211D2068FFF7B4FF012384F89E
:100E5C003D30002010BD0120704700BFB8B110B567
:100E6C00044690F83D3013F0FF0F04D1002380F8B6
:100E7C003C30FFF713FF022384F83D30211D20681E
:100E8C00FFF798FF012384F83D30002010BD0120AE
:100E9C00704700BF30B4036A23F010030362036A87
:100EAC004468826922F4E6420D6842EA052223F086
:100EBC0020038D6843EA05130D4DA84206D123F09B
:100ECC008003CD6843EA051323F04003084DA84284
:100EDC0007D124F440644D6944EA85048D6944EAE1
:100EEC008504446082614A688263036230BC704747
:100EFC00002C014038B590F83C30012B66D00D46E3
:100F0C000446012380F83C30022380F83D300C2A43
:100F1C0055D8DFE802F0075454541A5454542E5444
:100F2C00545441000068FFF7F1FD2268936943F0C7
:100F3C00080393612268936923F004039361226888
:100F4C0091692B690B43936139E00068FFF7A2FFAD
:100F5C002268936943F4006393612268936923F4D4
:100F6C008063936122689369296943EA0123936141
:100F7C0025E00068FFF7F6FD2268D36943F008030B
:100F8C00D3612268D36923F00403D3612268D16949
:100F9C002B690B43D36112E00068FFF713FE226844
:100FAC00D36943F40063D3612268D36923F480636B
:100FBC00D3612268D369296943EA0123D3610123F0
:100FCC0084F83D30002084F83C0038BD022038BD48
:100FDC0010B4012303FA01F4036A23EA0403036245
:100FEC00036A8A401A43026210BC704710B504466B
:100FFC0001220068FFF7ECFF2368074A934203D1F4
:10100C005A6C42F400425A642268136843F001039C
:10101C001360002010BD00BF002C014090F83C3044
:10102C00012B21D030B4012280F83C20022380F81F
:10103C003D300468636823F070036360046865687E
:10104C000B682B4363600468A36823F08003A360E0
:10105C000468A5684B682B43A36080F83D200023EF
:10106C0080F83C30184601E00220704730BC7047D5
:10107C0070B586B0194B9A6942F004029A619A696C
:10108C0002F004020092009A9A6942F008029A61F6
:10109C009B6903F008030193019B02250295104BF9
:1010AC000393002404940F4E02A93046FFF71AF95B
:1010BC00082302930123039304940323059302A9A9
:1010CC003046FFF70FF9224629460720FFF7A0F814
:1010DC000720FFF7CFF806B070BD00BF001002402C
:1010EC0000001110000C0140FEE700BF00B58FB0EE
:1010FC002448254B03603123436000238360642222
:10110C00C26003618361FFF78DFE18B1C3211F48D4
:10111C00FFF7EAFF0EA94FF4805341F8103D194830
:10112C00FFF7BEFD18B1C9211848FFF7DDFF1548C0
:10113C00FFF794FE18B1CE211448FFF7D5FF00231A
:10114C000893099308A90F48FFF768FF18B1D52138
:10115C000E48FFF7C9FF602301933A230293002244
:10116C000392059201A90748FFF7C4FE18B1DE21CE
:10117C000648FFF7B9FF034800F0BEF80FB05DF862
:10118C0004FB00BF2C00002000040040AC1400083D
:10119C0000B591B00223069301230A9310230B93FD
:1011AC0000230D9306A8FFF7B1F918B19621144846
:1011BC00FFF79AFF0F23019300210291A0230393C1
:1011CC004FF4C0630493059301A8FFF7D7FB18B144
:1011DC00A4210B48FFF788FFFFF792FC094BA3FBF8
:1011EC0000308009FFF752F80420FFF765F8002261
:1011FC0011464FF0FF30FFF70BF811B05DF804FB10
:10120C00AC140008D34D621008B5FEF7CBFFFFF706
:10121C00BFFFFFF72DFFFFF769FF044C2046FFF7D8
:10122C002FFD00212046FFF7E1FEFEE72C000020F9
:10123C0000B583B0244B9A6942F001029A619A6915
:10124C0002F001020092009ADA6942F08052DA61EF
:10125C00DB6903F080530193019B0320FEF7C6FF6B
:10126C00002211466FF00B00FEF7D2FF0022114650
:10127C006FF00A00FEF7CCFF002211466FF0090058
:10128C00FEF7C6FF002211466FF00400FEF7C0FF08
:10129C00002211466FF00300FEF7BAFF0022114640
:1012AC006FF00100FEF7B4FF002211464FF0FF3043
:1012BC00FEF7AEFF054A536823F0E06343F000737A
:1012CC00536003B05DF804FB0010024000000140C5
:1012DC000268084B9A420CD182B003F50333DA69E9
:1012EC0042F00202DA61DB6903F002030193019B15
:1012FC0002B07047000400400268094B9A420ED1BC
:10130C0000B585B04023009302230193032303937C
:10131C0069460448FEF7E6FF05B05DF804FB70472C
:10132C000004004000080140704700BFFEE700BF0A
:10133C00FEE700BFFEE700BFFEE700BF704700BF3F
:10134C00704700BF704700BF08B5FEF73DFFFEF7C2
:10135C00C5FF08BD08B5064B5B6913F0020F03D03F
:10136C0008210448FFF7AAF80220FFF7ADF808BDE2
:10137C0000040140000C01400F4B1A6842F00102BE
:10138C001A6059680D4A0A405A601A6822F0847231
:10139C0022F480321A601A6822F480221A605A6889
:1013AC0022F4FE025A604FF41F029A604FF0006262
:1013BC00034B9A60704700BF001002400000FFF81A
:1013CC0000ED00E0002103E00B4B5B58435004316F
:1013DC000A480B4B42189A42F6D30A4A02E0002301
:1013EC0042F8043B084B9A42F9D3FFF7C5FF00F0D3
:1013FC000FF8FFF709FF7047C41400080000002025
:10140C000C0000200C0000206C000020FEE7000007
:10141C000E4B70B51E460E4C0025E41AA410A542C6
:10142C0004D056F8253098470135F8E700F016F847
:10143C00084B094C1E46E41AA4100025A54204D002
:10144C0056F8253098470135F8E770BDBC140008F4
:10145C00BC140008BC140008C0140008F8B500BF88
:10146C00F8BC08BC9E467047F8B500BFF8BC08BC79
:04147C009E467047D1
:1014800002030405060708090A0B0C0D0E0F1010C5
:10149000010200000000000000000000010203043F
:1014A0000607080900000000010203042E2E2F5336
:0C14B00072632F6D61696E2E63000000F6
:0414BC0031010008F2
:0414C0000D01000812
:0C14C400010000001000000000A24A041B
:04000005080013D10B
:00000001FF
