:020000040800F2
:1000000000500020952F00080D2F0008112F000828
:10001000152F0008192F00081D2F000800000000F0
:10002000000000000000000000000000212F000878
:10003000252F000800000000292F00082D2F0008A0
:10004000DD2F0008DD2F0008DD2F0008DD2F000860
:10005000DD2F0008DD2F0008DD2F000875280008BF
:10006000DD2F0008DD2F0008DD2F0008392F0008E4
:10007000DD2F0008DD2F0008DD2F0008DD2F000830
:10008000DD2F0008DD2F0008DD2F0008DD2F000820
:10009000DD2F0008DD2F0008DD2F0008DD2F000810
:1000A000DD2F0008DD2F0008DD2F0008DD2F000800
:1000B000DD2F0008DD2F0008DD2F0008DD2F0008F0
:1000C000DD2F0008DD2F0008DD2F0008DD2F0008E0
:1000D000DD2F0008DD2F0008DD2F0008DD2F0008D0
:1000E000DD2F0008DD2F0008DD2F000800000000D4
:1000F0000000000000000000000000000000000000
:0C01000000000000000000005FF808F1A3
:1001100010B5054C237833B9044B13B10448AFF341
:1001200000800123237010BD180000200000000093
:100130002C300008084B10B51BB108490848AFF334
:1001400000800848036803B910BD074B002BFBD0A3
:10015000BDE81040184700BF000000001C00002050
:100160002C300008180000200000000081F0004141
:1001700002E000BF83F0004330B54FEA41044FEA8C
:10018000430594EA050F08BF90EA020F1FBF54EA27
:10019000000C55EA020C7FEA645C7FEA655C00F0C3
:1001A000E2804FEA5454D4EB5555B8BF6D420CDD94
:1001B0002C4480EA020281EA030382EA000083EA17
:1001C000010180EA020281EA0303362D88BF30BDB7
:1001D00011F0004F4FEA01314FF4801C4CEA11310D
:1001E00002D0404261EB410113F0004F4FEA03336C
:1001F0004CEA133302D0524263EB430394EA050FF7
:1002000000F0A780A4F10104D5F1200E0DDB02FA65
:100210000EFC22FA05F2801841F1000103FA0EF2F9
:10022000801843FA05F359410EE0A5F120050EF1BF
:10023000200E012A03FA0EFC28BF4CF0020C43FAF0
:1002400005F3C01851EBE37101F0004507D54FF0FD
:10025000000EDCF1000C7EEB00006EEB0101B1F54D
:10026000801F1BD3B1F5001F0CD349085FEA300093
:100270004FEA3C0C04F101044FEA445212F5800F9E
:1002800080F09A80BCF1004F08BF5FEA500C50F13B
:10029000000041EB045141EA050130BD5FEA4C0C1E
:1002A000404141EB010111F4801FA4F10104E9D1A7
:1002B00091F0000F04BF01460020B1FA81F308BF9E
:1002C0002033A3F10B03B3F120020CDA0C3208DD6A
:1002D00002F1140CC2F10C0201FA0CF021FA02F145
:1002E0000CE002F11402D8BFC2F1200C01FA02F1B5
:1002F00020FA0CFCDCBF41EA0C019040E41AA2BFDA
:1003000001EB0451294330BD6FEA04041F3C1CDAA1
:100310000C340EDC04F11404C4F1200220FA04F0C1
:1003200001FA02F340EA030021FA04F345EA03016B
:1003300030BDC4F10C04C4F1200220FA02F001FA2D
:1003400004F340EA0300294630BD21FA04F02946AF
:1003500030BD94F0000F83F4801306BF81F4801148
:100360000134013D4EE77FEA645C18BF7FEA655CBB
:1003700029D094EA050F08BF90EA020F05D054EA8D
:10038000000C04BF1946104630BD91EA030F1EBF92
:100390000021002030BD5FEA545C05D14000494196
:1003A00028BF41F0004130BD14F580043CBF01F589
:1003B000801130BD01F0004545F0FE4141F470016F
:1003C0004FF0000030BD7FEA645C1ABF194610464A
:1003D0007FEA655C1CBF0B46024650EA013406BF4B
:1003E00052EA033591EA030F41F4002130BD00BF0A
:1003F00090F0000F04BF0021704730B54FF48064C7
:1004000004F132044FF000054FF0000150E700BF47
:1004100090F0000F04BF0021704730B54FF48064A6
:1004200004F1320410F0004548BF40424FF0000193
:100430003EE700BF42004FEAE2014FEA31014FEAD6
:1004400002701FBF12F07F4393F07F4F81F0605125
:10045000704792F0000F14BF93F07F4F704730B594
:100460004FF4607401F0004521F0004120E700BF27
:1004700050EA010208BF704730B54FF000050AE0AE
:1004800050EA010208BF704730B511F0004502D5AF
:10049000404261EB41014FF4806404F132045FEAB1
:1004A000915C3FF4DCAE4FF003025FEADC0C18BF56
:1004B00003325FEADC0C18BF033202EBDC02C2F14C
:1004C000200300FA03FC20FA02F001FA03FE40EADE
:1004D0000E0021FA02F11444C1E600BF4FF0FF3CC8
:1004E00006E000BF4FF0010C02E000BF4FF0010C2E
:1004F0004DF804CD4FEA410C7FEA6C5C4FEA430CA7
:1005000018BF7FEA6C5C1BD001B050EA410C0CBFF5
:1005100052EA430C91EA030F02BF90EA020F002057
:10052000704710F1000F91EA030F58BF994208BFBE
:1005300090422CBFD8176FEAE37040F0010070477B
:100540004FEA410C7FEA6C5C02D150EA013C07D1D2
:100550004FEA430C7FEA6C5CD6D152EA033CD3D01D
:100560005DF8040B704700BF8446104662468C4617
:100570001946634600E000BF01B5FFF7B7FF00284A
:1005800048BF10F1000F01BD4DF808EDFFF7F4FF73
:100590000CBF012000205DF808FB00BF4DF808EDFE
:1005A000FFF7EAFF34BF012000205DF808FB00BF21
:1005B0004DF808EDFFF7E0FF94BF012000205DF843
:1005C00008FB00BF4DF808EDFFF7CEFF94BF0120F8
:1005D00000205DF808FB00BF4DF808EDFFF7C4FFF1
:1005E00034BF012000205DF808FB00BF80F0004010
:1005F00002E000BF81F0004142001FBF5FEA4103FB
:1006000092EA030F7FEA226C7FEA236C6AD04FEAFA
:100610001262D2EB1363C1BFD2184140484041403F
:10062000B8BF5B42192B88BF704710F0004F40F4F1
:10063000000020F07F4018BF404211F0004F41F40D
:10064000000121F07F4118BF494292EA030F3FD0D9
:10065000A2F1010241FA03FC10EB0C00C3F12003EC
:1006600001FA03F100F0004302D5494260EB40007B
:10067000B0F5000F13D3B0F1807F06D340084FEAE6
:10068000310102F10102FE2A51D2B1F1004F40EBDB
:10069000C25008BF20F0010040EA03007047490043
:1006A00040EB000010F4000FA2F10102EDD1B0FA0E
:1006B00080FCACF1080CB2EB0C0200FA0CF0AABF03
:1006C00000EBC25052421843BCBFD04018437047A1
:1006D00092F0000F81F4000106BF80F400000132A7
:1006E000013BB5E74FEA41037FEA226C18BF7FEA7E
:1006F000236C21D092EA030F04D092F0000F08BFC0
:100700000846704790EA010F1CBF0020704712F0A6
:100710007F4F04D1400028BF40F00040704712F1E5
:1007200000723CBF00F50000704700F0004343F04A
:10073000FE4040F4000070477FEA226216BF084680
:100740007FEA23630146420206BF5FEA412390EA43
:10075000010F40F4800070474FF0000304E000BF39
:1007600010F0004348BF40425FEA000C08BF7047EA
:1007700043F0964301464FF000001CE050EA0102AE
:1007800008BF70474FF000030AE000BF50EA0102C3
:1007900008BF704711F0004302D5404261EB4101B0
:1007A0005FEA010C02BF84460146002043F0B643D5
:1007B00008BFA3F18053A3F50003BCFA8CF2083AFA
:1007C000A3EBC25310DB01FA02FC634400FA02FC03
:1007D000C2F12002BCF1004F20FA02F243EB02000A
:1007E00008BF20F00100704702F1200201FA02FC6C
:1007F000C2F1200250EA4C0021FA02F243EB02005F
:1008000008BF20EADC7070474FF0FF0C1CEAD052A2
:100810001EBF1CEAD15392EA0C0F93EA0C0F6FD063
:100820001A4480EA010C400218BF5FEA41211ED041
:100830004FF0006343EA501043EA5111A0FB01312D
:100840000CF00040B1F5000F3EBF490041EAD37102
:100850005B0040EA010062F17F02FD2A1DD8B3F17E
:10086000004F40EBC25008BF20F00100704790F0ED
:10087000000F0CF0004C08BF49024CEA502040EA3F
:1008800051207F3AC2BFD2F1FF0340EAC250704705
:1008900040F400004FF00003013A5DDC12F1190F43
:1008A000DCBF00F000407047C2F10002410021FAB5
:1008B00002F1C2F1200200FA02FC5FEA310040F1CD
:1008C000000053EA4C0308BF20EADC70704792F046
:1008D000000F00F0004C02BF400010F4000F013A7E
:1008E000F9D040EA0C0093F0000F01F0004C02BF79
:1008F000490011F4000F013BF9D041EA0C018FE7E8
:100900000CEAD15392EA0C0F18BF93EA0C0F0AD0ED
:1009100030F0004C18BF31F0004CD8D180EA010013
:1009200000F00040704790F0000F17BF90F0004FAC
:10093000084691F0000F91F0004F14D092EA0C0F8E
:1009400001D142020FD193EA0C0F03D14B0218BF21
:10095000084608D180EA010000F0004040F0FE4067
:1009600040F40000704740F0FE4040F44000704703
:100970004FF0FF0C1CEAD0521EBF1CEAD15392EA82
:100980000C0F93EA0C0F69D0A2EB030280EA010C72
:1009900049024FEA402037D04FF0805343EA11110B
:1009A00043EA10130CF000408B4238BF5B0042F169
:1009B0007D024FF4000C8B4224BF5B1A40EA0C000E
:1009C000B3EB510F24BFA3EB510340EA5C00B3EB40
:1009D000910F24BFA3EB910340EA9C00B3EBD10F2E
:1009E00024BFA3EBD10340EADC001B0118BF5FEA80
:1009F0001C1CE0D1FD2A3FF650AF8B4240EBC250A9
:100A000008BF20F0010070470CF0004C4CEA502069
:100A10007F32C2BFD2F1FF0340EAC250704740F4B8
:100A200000004FF00003013A37E792F0000F00F0AA
:100A3000004C02BF400010F4000F013AF9D040EA28
:100A40000C0093F0000F01F0004C02BF490011F4BC
:100A5000000F013BF9D041EA0C0195E70CEAD153B4
:100A600092EA0C0F08D142027FF47DAF93EA0C0F9B
:100A70007FF470AF084676E793EA0C0F04D14B027F
:100A80003FF44CAF08466EE730F0004C18BF31F031
:100A9000004CCAD130F000427FF45CAF31F000432B
:100AA0007FF43CAF5FE700BF4FF0FF3C06E000BFC4
:100AB0004FF0010C02E000BF4FF0010C4DF804CDE7
:100AC0004FEA40024FEA41037FEA226C18BF7FEAF7
:100AD000236C11D001B052EA530C18BF90EA010FF9
:100AE00058BFB2EB030088BFC81738BF6FEAE17088
:100AF00018BF40F0010070477FEA226C02D15FEA24
:100B0000402C05D17FEA236CE4D15FEA412CE1D08F
:100B10005DF8040B704700BF844608466146FFE756
:100B20000FB5FFF7C9FF002848BF10F1000F0FBD38
:100B30004DF808EDFFF7F4FF0CBF012000205DF831
:100B400008FB00BF4DF808EDFFF7EAFF34BF0120B6
:100B500000205DF808FB00BF4DF808EDFFF7E0FF4F
:100B600094BF012000205DF808FB00BF4DF808EDA0
:100B7000FFF7D2FF94BF012000205DF808FB00BF03
:100B80004DF808EDFFF7C8FF34BF012000205DF8E5
:100B900008FB00BF4FEA4002B2F1FE4F0FD34FF007
:100BA0009E03B3EB12620DD94FEA002343F00043DA
:100BB00010F0004F23FA02F018BF404270474FF088
:100BC0000000704712F1610F01D1420205D110F00F
:100BD000004008BF6FF0004070474FF000007047C2
:100BE00010B504460E4B18784FF47A73B3FBF0F34C
:100BF0000C4A1068B0FBF3F000F050FB58B90F2C12
:100C00000BD8002221464FF0FF3000F009FB044BC7
:100C10005C60002010BD012010BD012010BD00BF90
:100C2000000000201400002008B5074A136843F0B4
:100C300010031360032000F0E1FA0020FFF7D0FF5B
:100C400002F076F8002008BD00200240034A136835
:100C5000034909780B441360704700BF5C00002013
:100C600000000020014B1868704700BF5C000020A6
:100C7000F0B583B005460C4600230193FFF7F2FF61
:100C80002B689A6812F4807F08D0AB6A43F0200387
:100C9000AB62002385F82430012097E006465A68AD
:100CA00012F4807F1CD1DB6A13F4700F12D017E0AE
:100CB000B4F1FF3F0ED024B1FFF7D4FF801B844274
:100CC00008D2AB6A43F00403AB62002385F82430FA
:100CD00003207BE02B681B6813F0020FE8D051E083
:100CE0003B4B1F68022001F045F8B7FBF0F72B687B
:100CF0001969384A11420ED1D96802F15C42114299
:100D000009D11969344A114218D1DA68334B1A42B1
:100D100016D029201BE019692F4A114204D1D96845
:100D200002F16E4211420DD019692D4A0A405AB99A
:100D3000DA682B4B13404BB1FC2008E0292006E079
:100D4000142004E0542002E0FC2000E0542007FBC3
:100D500000F714E0B4F1FF3F0ED024B1FFF782FF9B
:100D6000801B844208D2AB6A43F00403AB620023C9
:100D700085F82430032029E0019B01330193019B76
:100D80009F42E7D82B686FF012021A60AB6A43F4F7
:100D90000073AB622B689B6803F46023B3F5602F8C
:100DA0000FD1EB687BB9AB6A23F48073AB62AB6A9B
:100DB00013F4805F09D1AB6A43F00103AB620020FA
:100DC00004E0002002E0002000E0002003B0F0BDBD
:100DD00014000020244992249224491292244900AC
:100DE000499224000368D86C704700BF70B483B088
:100DF0000023019390F82430012B00F08880012318
:100E000080F824304B68062B0ED80668756B03EB10
:100E10008303053B1F249C4025EA04040A6802FA68
:100E200003F3234373631EE00C2B0ED805682A6B73
:100E300003EB8303233B1F249C4022EA04040A683B
:100E400002FA03F323432B630DE00568EA6A03EB20
:100E50008303413B1F249C4022EA04040A6802FAEF
:100E600003F32343EB620B68092B0ED90668F56880
:100E700003EB43031E3B07249C4025EA04048A68D5
:100E800002FA03F32343F3600CE00668356903EBD1
:100E9000430307249C4025EA04048A6802FA03F30A
:100EA000234333610B68103B012B26D803681A4A91
:100EB00093421CD19A6812F4000F20D19A6842F430
:100EC00000029A600B68102B1BD1144B1B68144A4C
:100ED000A2FB03239B0C03EB83035A00019202E065
:100EE000019B013B0193019B002BF9D10AE0836A2E
:100EF00043F020038362012304E0002302E0002387
:100F000000E00023002280F82420184600E00220A0
:100F100003B070BC704700BF0024014014000020E3
:100F200083DE1B43806A704730B583B00023019392
:100F300003689A6812F0010F2FD19A6842F00102FB
:100F40009A60174B1B68174AA2FB03239B0C019363
:100F500002E0019B013B0193019B002BF9D1044668
:100F6000FFF780FE054611E0FFF77CFE401B0228DC
:100F70000CD9A36A43F01003A362E36A43F00103B0
:100F8000E362002384F82430012007E023689B6893
:100F900013F0010FE8D0002000E0002003B030BDC6
:100FA0001400002083DE1B4390F82430012B71D005
:100FB00010B50446012380F82430FFF7B5FF03463F
:100FC000002863D1A26A22F4407222F0010242F4A6
:100FD0008072A262226830498A4205D1A1F58061FF
:100FE000496811F4702F0ED1A16A21F48011A16219
:100FF000516811F4806F1CD0A16A21F4405141F472
:101000008051A16215E0A16A41F48011A1622349D7
:101010008A4203D001F580618A420AD11F4949689A
:1010200011F4806F05D0A16A21F4405141F4805140
:10103000A162A16A11F4805F04D0E16A21F0060187
:10104000E16201E00021E162002184F824106FF0E8
:10105000020111602268916801F46021B1F5602FEE
:101060000ED10D498A4205D1A1F58061496811F47C
:10107000702F05D1916841F4A0019160184610BD10
:10108000916841F480119160184610BD002284F8E7
:10109000242010BD02207047002801400024014098
:1010A00038B503689A6812F0010F1ED004469A689A
:1010B00022F001029A60FFF7D5FD05460EE0FFF72A
:1010C000D1FD401B022809D9A36A43F01003A36293
:1010D000E36A43F00103E362012038BD23689B68A3
:1010E00013F0010FEBD1002038BD002038BD00BF48
:1010F00000287DD038B50446836A23B9C36280F8DE
:10110000243001F065FE2046FFF7CAFFA36A13F002
:10111000100F67D1002865D1A36A23F4885323F008
:10112000020343F00203A3626268E3691343E168C8
:1011300043EA4103A268B2F5807F04D0012A05D1B9
:101140004FF4807503E04FF4807500E0002562697C
:10115000012A0FD131B9A269013A45EA423242F47B
:10116000006507E0A26A42F02002A262E26A42F051
:101170000102E26221684A6822F469422A434A6015
:1011800021688D681B4A2A401A438A60A268B2F51A
:10119000807F01D0012A03D12269013A110500E0C4
:1011A00000212568EA6A22F470020A43EA62226892
:1011B0009168114A0A40934208D10023E362A36A6E
:1011C00023F0030343F00103A36238BDA36A23F0B5
:1011D000120343F01003A362E36A43F00103E362E6
:1011E000012038BDA36A43F01003A362012038BD7B
:1011F00001207047FDF7E1FFFE0E1FFF074AD3688D
:1012000023F4E0631B041B0C000200F4E0601843AD
:1012100040F0BF6040F40030D060704700ED00E067
:1012200030B4164BDB68C3F30223C3F10704042C6C
:1012300028BF04241D1D062D01D9DD1E00E0002558
:10124000012303FA04F4013C2140A940AB40013BD7
:101250001A400A43002806DA00F00F001201D2B249
:10126000074B1A5407E01201D2B200F1604000F5BA
:10127000614080F8002330BC704700BF00ED00E003
:1012800014ED00E0420900F01F00012303FA00F012
:10129000014B43F82200704700E100E00138B0F153
:1012A000807F0AD2064B5860F021064A82F823104C
:1012B0000020986007221A6070470120704700BF25
:1012C00010E000E000ED00E0042805D1054A1368B5
:1012D00043F0040313607047024A136823F00403C9
:1012E0001360704710E000E0704700BF08B5FFF7DB
:1012F000FBFF08BD70B4C56B066C0124B4406C6084
:10130000046863604368102B04D103689A60036823
:10131000D96003E0036899600368DA6070BC7047C5
:1013200000282FD010B403460068184A0244184918
:10133000A1FB0212120992001A64164ADA63022211
:1013400083F82120026822F47F5121F030015C688B
:101350009A681443DA6814431A6914435A691443A7
:101360009A691443DA6922430A43026000209862B2
:10137000D862186358639863012283F8212083F8A8
:10138000200001E00120704710BC7047F8FFFDBF4E
:10139000CDCCCCCC0000024038B590F82040012CD8
:1013A00032D0012480F8204090F82140012C26D131
:1013B0000446022084F821000020A06325682868E4
:1013C00020F0010028602046FFF794FFE36A2BB16C
:1013D0002268136843F00E03136009E02268136863
:1013E00023F0040313602268136843F00A031360B8
:1013F0002268136843F001031360002038BD002306
:1014000080F82030022038BD022038BDF0B583B00E
:1014100000263446D5E00122A2400B6813409A42D0
:1014200040F0CE804D68122D2DD00BD8022D27D044
:1014300003D85DB3012D1ED035E0032D30D0112D22
:101440001BD030E0614FBD4220D008D8A7F58017EF
:10145000BD421BD007F58037BD4224D116E05C4F5A
:10146000BD4213D007F58037BD420FD0A7F58017D6
:10147000BD4218D10AE0CE6815E0CE68043612E00D
:10148000CE6808360FE0CE680C360CE08D684DB1A2
:10149000012D02D10261082605E04261082602E022
:1014A000002600E00426FF2B01D8864601E000F16B
:1014B000040EFF2B01D8A20002E0A4F10802920062
:1014C000DEF800700F25954027EA050506FA02F2BE
:1014D0002A43CEF800204A6812F0805F70D03D4A5F
:1014E000956945F001059561926902F0010201924A
:1014F000019AA708BD1C384A52F8255004F003028F
:1015000092004FF00F0E0EFA02FE25EA0E0E334D3A
:10151000A8420DD005F58065A8420BD005F5806581
:10152000A84209D005F58065A84207D1032506E049
:10153000002504E0012502E0022500E0042505FA6B
:1015400002F24EEA02020237234D45F827204A688C
:1015500012F4803F05D005F580652A681A432A6099
:1015600004E01F4D2A6822EA03022A604A6812F446
:10157000003F04D01A4D6A681A436A6004E0184DAF
:101580006A6822EA03026A604A6812F4801F04D083
:10159000134DAA681A43AA6004E0114DAA6822EA12
:1015A0000302AA604A6812F4001F04D00C4DEA68D6
:1015B0001343EB6004E00A4DEA6822EA0303EB60A0
:1015C00001340F2C7FF627AF03B0F0BD00002110CF
:1015D00000003110001002400000014000080140EE
:1015E000000401400AB101617047090401617047BC
:1015F000C3685940C1607047704700BF08B5044BCD
:101600005B69034203D0024B5861FFF7F5FF08BD49
:101610000004014082B0084B1B68084AA2FB032368
:101620005B0A00FB03F0019000BF019B5A1E019270
:10163000002BF9D102B0704714000020D34D621086
:1016400070B582B00446036813F0010F6BD0A84B4D
:101650005B6803F00C03042B0AD0A54B5B6803F016
:101660000C03082B0DD1A24B5B6813F4803F08D00C
:101670009F4B1B6813F4003F55D06368002B52D179
:10168000B8E16368B3F5803F05D1994A136843F424
:101690008033136026E063B903F1804303F504331C
:1016A0001A6822F480321A601A6822F480221A60C2
:1016B00018E0B3F5A02F0CD103F18043A3F53C3320
:1016C0001A6842F480221A601A6842F480321A6062
:1016D00008E0874B1A6822F480321A601A6822F4F4
:1016E00080221A6063687BB1FFF7BCFA054605E00B
:1016F000FFF7B8FA401B642800F27E817C4B1B6820
:1017000013F4003FF4D00EE0FFF7ACFA054605E015
:10171000FFF7A8FA401B642800F27081744B1B6825
:1017200013F4003FF4D1236813F0020F50D0704B34
:101730005B6813F00C0F0AD06D4B5B6803F00C0371
:10174000082B16D16A4B5B6813F4803F11D1684BAC
:101750001B6813F0020F03D02369012B40F0508166
:10176000634A136823F0F803616943EAC103136015
:101770002EE02369D3B101225E4B1A60FFF772FAA3
:10178000054605E0FFF76EFA401B022800F23A8199
:10179000574B1B6813F0020FF4D0554A136823F01F
:1017A000F803616943EAC103136011E00022514B61
:1017B0001A60FFF757FA054605E0FFF753FA401B9A
:1017C000022800F221814A4B1B6813F0020FF4D16A
:1017D000236813F0080F29D0A369ABB10122464B4F
:1017E0001A60FFF73FFA054605E0FFF73BFA401B9A
:1017F000022800F20B813E4B5B6A13F0020FF4D01B
:101800000120FFF707FF11E000223B4B1A60FFF7B2
:1018100029FA054605E0FFF725FA401B022800F2E9
:10182000F780334B5B6A13F0020FF4D1236813F097
:10183000040F00F089802E4BDB6913F0805F0BD121
:101840002B4BDA6942F08052DA61DB6903F0805396
:101850000193019B012500E00025284B1B6813F430
:10186000807F13D1254A136843F480731360FFF718
:10187000F9F9064605E0FFF7F5F9801B642800F248
:10188000C9801E4B1B6813F4807FF4D0E368012BE2
:1018900005D1174A136A43F00103136222E063B9CA
:1018A00003F1804303F504331A6A22F001021A623D
:1018B0001A6A22F004021A6214E0052B09D10C4BBB
:1018C0001A6A42F004021A621A6A42F001021A62AB
:1018D00008E0074B1A6A22F001021A621A6A22F023
:1018E00004021A62E368CBB1FFF7BCF906460FE0C9
:1018F000001002400000424280044242007000405A
:10190000FFF7B0F9801B41F28833984200F28480DF
:10191000494B1B6A13F0020FF2D00FE0FFF7A2F958
:10192000064606E0FFF79EF9801B41F28833984295
:1019300074D8414B1B6A13F0020FF3D125B13E4A14
:10194000D36923F08053D361E369002B68D03A4A0E
:10195000526802F00C02082A64D0022B37D1002210
:10196000364B1A60FFF77EF9054604E0FFF77AF977
:10197000401B022858D8304B1B6813F0007FF5D16C
:10198000236AB3F5803F06D12B494B6823F400321C
:10199000A36813434B602848436823F47411236AF7
:1019A000626A13430B4343600122244B1A60FFF722
:1019B00059F9044604E0FFF755F9001B022835D811
:1019C0001D4B1B6813F0007FF5D0002031E0002292
:1019D0001A4B1A60FFF746F9044604E0FFF742F994
:1019E000001B022824D8144B1B6813F0007FF5D18C
:1019F00000201EE001201CE003201AE0032018E074
:101A0000012016E0032014E0032012E0032010E080
:101A100003200EE003200CE003200AE0032008E08E
:101A2000002006E0012004E0032002E0032000E0A3
:101A3000032002B070BD00BF0010024060004242AF
:101A400030B486B0164D02AC28686968AA68EB68A5
:101A50000FC42B8AADF80430124B5B6803F00C0204
:101A6000082A19D1C3F3834206A90A4412F8100CBC
:101A700013F4803F0CD00B4B5B68C3F340430B4423
:101A800013F8142C084B03FB00F0B0FBF2F004E059
:101A9000064B03FB00F000E0034806B030BC704783
:101AA000443000080010024000127A0000093D0096
:101AB00070B55C4B1B6803F007038B420BD2594A8D
:101AC000136823F007030B431360136803F0070345
:101AD000994240F09780036813F0020F06D0524CF1
:101AE000636823F0F0028368134363600D46044685
:101AF000036813F0010F4DD04268012A05D14A4B0B
:101B00001B6813F4003F0DD17EE0022A05D1464B3D
:101B10001B6813F0007F05D178E0434B1B6813F07E
:101B2000020F75D040494B6823F0030313434B6009
:101B3000FFF798F806466368012B0ED106E0FFF721
:101B400091F8801B41F28833984263D8364B5B682A
:101B500003F00C03042BF2D11CE0022B15D106E09C
:101B6000FFF780F8801B41F28833984254D82E4BFF
:101B70005B6803F00C03082BF2D10BE0FFF772F85F
:101B8000801B41F28833984248D8274B5B6813F09A
:101B90000C0FF3D1234B1B6803F007039D420AD2BD
:101BA000204A136823F007032B431360136803F0E4
:101BB00007039D4234D1236813F0040F06D01A495D
:101BC0004B6823F4E062E36813434B60236813F02F
:101BD000080F07D0144A536823F46053216943EA7D
:101BE000C1035360FFF72CFF0F4B5B68C3F3031374
:101BF0000E4AD35CD8400E4B18600020FEF7F0FF71
:101C0000002070BD012070BD012070BD012070BD9D
:101C1000012070BD032070BD032070BD032070BD86
:101C2000012070BD00200240001002406C3000080E
:101C300014000020014B1868704700BF14000020FA
:101C400008B5FFF7F7FF044B5B68C3F3C223034AF1
:101C5000D35CD84008BD00BF001002407C300008B3
:101C600070B582B00446036813F0010F5CD03E4BA0
:101C7000DB6913F0805F0BD13B4BDA6942F0805295
:101C8000DA61DB6903F080530193019B012600E0D8
:101C90000026364B1B6813F4807F12D1334A136839
:101CA00043F480731360FEF7DDFF054604E0FEF7A2
:101CB000D9FF401B64284FD82C4B1B6813F4807F3E
:101CC000F5D0294B1B6A13F4407321D0626802F4EB
:101CD000407293421CD0244A136A23F44070244972
:101CE00001250D6000250D60106213F0010F0FD06B
:101CF000FEF7B8FF054606E0FEF7B4FF401B41F2D1
:101D0000883398422AD8184B1B6A13F0020FF3D07D
:101D100015490B6A23F44072636813430B621EB1CA
:101D2000CB6923F08053CB61236813F0020F06D0F8
:101D30000D494B6823F44042A36813434B6023686A
:101D400013F0100F0CD008494B6823F48002E368AD
:101D500013434B60002004E0032002E0032000E076
:101D6000002002B070BD00BF0010024000700040B3
:101D70004004424270B586B006463B4D02AC28682E
:101D80006968AA68EB680FC42B8AADF80430022E8C
:101D90004ED0102E02D0012E55D12DE0334B5A6873
:101DA0001B6813F0807F50D0C2F3834306A90B4415
:101DB00013F8103C12F480320ED02C494968C1F35C
:101DC000404106A8014411F8140C4AB1284AB2FB5C
:101DD000F0F000FB03F004E0264800FB03F000E015
:101DE0000020224B5B6813F4800F3AD14000224B55
:101DF000A3FB0030400834E01C4B1B6A40F2023267
:101E00001A40B2F5817F22D003F44073B3F5007F0E
:101E100004D1164A526A12F0020F1BD1B3F5407F6B
:101E20001BD1124B1B6813F4003F18D1002018E09F
:101E3000FFF706FF0D4B5B68C3F3813301335B0093
:101E4000B0FBF3F00DE000200BE0002009E04FF4C0
:101E5000004006E049F6404003E0002001E04FF278
:101E6000244006B070BD00BF58300008001002408A
:101E700000127A0000093D00ABAAAAAA70B4036A56
:101E800023F001030362036A4668826922F0730249
:101E90000C6842EA040523F002028B6813430C4CE1
:101EA000A04205D123F00803CA68134323F00403BA
:101EB000074CA04205D126F440764A6932438E6928
:101EC0001643466085614A684263036270BC70478E
:101ED000002C014030B4036A23F480730362036A68
:101EE0004568C26922F073020C68224323F4007330
:101EF0008C6843EA04230E4CA04206D123F400630D
:101F0000CC6843EA042323F48063094CA04207D140
:101F100025F440554C6945EA04158C6945EA0415D9
:101F20004560C2614A68C263036230BC704700BF4B
:101F3000002C014030B4036A23F480530362036A27
:101F40004468C26922F4E6420D6842EA052223F49D
:101F500000538D6843EA0533074DA84204D124F4A9
:101F600080444D6944EA85144460C2614A68026451
:101F7000036230BC704700BF002C014010B4036AFC
:101F8000046A24F001040462846924F0F00444EA41
:101F9000021223F00A0319438261016210BC7047E8
:101FA00010B4036A23F0100303628469036A24F403
:101FB000704444EA023223F0A00343EA0111826133
:101FC000016210BC704700BF836823F0700341F0CA
:101FD00007010B438360704710B4846824F47F4486
:101FE00042EA0323194344EA0103836010BC7047AB
:101FF00010B50468A36823F070024B68134323F004
:1020000007030A681343A3604B68502B1FD002D804
:10201000402B0BD010BD602B1FD0702B22D10B6931
:102020008A68C9680068FFF7D7FF10BD03681C6A9B
:102030001A6A22F001021A620268936923F0F0031F
:10204000096943EA0113936103681C6210BD0A69C0
:1020500089680068FFF792FF10BD0A698968006807
:10206000FFF79EFF10BD00BF022380F83D300268DD
:10207000136843F001031360012380F83D30002012
:10208000704700BF704700BF704700BF90F83C30FA
:10209000012B00F0838010B50446012380F83C300A
:1020A000022380F83D300268936823F47F4323F0D5
:1020B000770393600B68402B4CD00AD8102B58D074
:1020C00002D8002B50D062E0202B57D0302B5AD0B2
:1020D0005DE0702B12D004D8502B27D0602B2FD06E
:1020E00055E0B3F5805F03D0B3F5005F12D04EE04A
:1020F0000268936823F00703936048E0CB684A685E
:1021000089680068FFF768FF2268936843F07703E7
:1021100093603CE0CB684A6889680068FFF75CFF21
:102120002268936843F48043936030E0CA6849684A
:102130000068FFF723FF50212068FFF745FF26E0E6
:10214000CA6849680068FFF72BFF60212068FFF725
:102150003BFF1CE0CA6849680068FFF70FFF402199
:102160002068FFF731FF12E000210068FFF72CFF25
:102170000DE010210068FFF727FF08E0202100682C
:10218000FFF722FF03E030210068FFF71DFF012366
:1021900084F83D30002084F83C0010BD02207047D8
:1021A00038B590F83C30012B18D00446012580F852
:1021B0003C50022380F83D30FFF71AFF2268D368B5
:1021C00023F04003D3602268D36823F48043D360B4
:1021D00084F83D50002084F83C0038BD022038BD12
:1021E00003681A4A90420AD0B0F1804F07D0A2F596
:1021F0009432904203D002F58062904203D123F0E2
:1022000070034A681343114A90420AD0B0F1804FDC
:1022100007D0A2F59432904203D002F5806290423A
:1022200003D123F44073CA68134323F080034A693F
:10223000134303608B68C3620B688362034B98424D
:1022400001D10B690363012343617047002C0140F6
:10225000B8B110B5044690F83D3013F0FF0F04D12B
:10226000002380F83C3000F0D5FD022384F83D3097
:10227000211D2068FFF7B4FF012384F83D300020C2
:1022800010BD0120704700BFB8B110B5044690F8EA
:102290003D3013F0FF0F04D1002380F83C30FFF7EE
:1022A000F1FE022384F83D30211D2068FFF798FFDE
:1022B000012384F83D30002010BD0120704700BF8D
:1022C000B8B110B5044690F83D3013F0FF0F04D1BB
:1022D000002380F83C30FFF7D7FE022384F83D301E
:1022E000211D2068FFF77CFF012384F83D3000208A
:1022F00010BD0120704700BF30B4036A23F0100303
:102300000362036A4468826922F4E6420D6842EA85
:10231000052223F020038D6843EA05130D4DA842E2
:1023200006D123F08003CD6843EA051323F0400370
:10233000084DA84207D124F440644D6944EA85045D
:102340008D6944EA8504446082614A68826303625D
:1023500030BC7047002C014090F83C30012B28D055
:1023600010B50446012380F83C30022380F83D304C
:102370000C2A17D8DFE802F0071616160B161616E9
:102380000F16161613000068FFF778FD0AE00068C4
:10239000FFF7B2FF06E00068FFF79CFD02E000686F
:1023A000FFF7C8FD012384F83D30002084F83C008D
:1023B00010BD0220704700BF38B590F83C30012BAB
:1023C00066D00D460446012380F83C30022380F895
:1023D0003D300C2A55D8DFE802F0075454541A5403
:1023E00054542E54545441000068FFF747FD2268AE
:1023F000936943F0080393612268936923F004030F
:102400009361226891692B690B43936139E00068FD
:10241000FFF772FF2268936943F4006393612268B7
:10242000936923F48063936122689369296943EA7D
:102430000123936125E00068FFF74CFD2268D36912
:1024400043F00803D3612268D36923F00403D36106
:102450002268D1692B690B43D36112E00068FFF752
:1024600069FD2268D36943F40063D3612268D369AC
:1024700023F48063D3612268D369296943EA012385
:10248000D361012384F83D30002084F83C0038BD3E
:10249000022038BD10B4012303FA01F4036A23EAD1
:1024A00004030362036A8A401A43026210BC704745
:1024B00010B5044601220068FFF7ECFF2368074AC5
:1024C000934203D15A6C42F400425A642268136862
:1024D00043F001031360002010BD00BF002C014039
:1024E00010B5044601220068FFF7D4FF2368074AAD
:1024F000934203D15A6C42F400425A642268136832
:1025000043F001031360002010BD00BF002C014008
:1025100090F83C30012B21D030B4012280F83C20CF
:10252000022380F83D300468636823F07003636021
:10253000046865680B682B4363600468A36823F034
:102540008003A3600468A5684B682B43A36080F8F0
:102550003D20002380F83C30184601E002207047FF
:1025600030BC704738B50D4614460849FEF700FAEE
:102570000749FEF749F901460448FEF73BF8FEF724
:1025800009FB28603238206038BD00BF0000C84217
:1025900000004842F0B503685B2B0ADD632B04DDC5
:1025A0004FF4FA73036000260AE05C23036061269F
:1025B00006E0372B03DC32230360372600E09E1C45
:1025C0000B68292B0ADD312B04DD4FF4FA730B6005
:1025D00000250AE02A230B602F2506E0052B03DCEB
:1025E00000230B60052500E09D1C114B5B68082B48
:1025F00002D100220E4B5A60002216E0DFF830E0D4
:10260000DEF8043007680B4C24F813705F1C24F8C4
:10261000176003F1020C0F6824F81C70DF1C24F80B
:1026200017500433CEF804300432042AE6D1F0BD4A
:102630003400002060000020054B064A9A62064ADA
:10264000DA62064B1A68D36843F48443D360704758
:10265000800000202D28000811280008C400002058
:1026600010B504460649FEF78BFA00B1044C044944
:102670002046FEF77DF90349FEF7C6F810BD00BFFE
:1026800000007A450000C842F8B5FDF7B3FF0446E4
:10269000FEF780FA0028B8BF4042FDF7B9FE20A33C
:1026A000D3E90023FDF798FF28B11F4D2968204684
:1026B000FDF7A2FF28601C4D69682046FDF79AFFD0
:1026C00006461A492046FEF79FF80746002128686B
:1026D000FEF79AF801463846FDF78EFF0546144985
:1026E0003046FEF791F801462846FDF785FF05467E
:1026F0001049FEF745FA28B90F492846FEF722FA95
:1027000010B902E00B4D00E00B4D074B5C6009492E
:102710002846FEF72DF90949FEF776F8F8BD00BF07
:102720007B14AE47E17A843F3C00002000007041FA
:102730000000404000006145000061C50000C84243
:102740002DE9F04186B0234B9A6942F004029A6168
:102750009A6902F004020092009A9A6942F0080213
:102760009A619B6903F008030193019BDFF8708075
:10277000002280214046FEF735FF174D0122082137
:102780002846FEF72FFF802302930126039600249C
:1027900004940227059702A94046FEF737FE0297E8
:1027A0000E4B0393049402A92846FEF72FFE08233C
:1027B0000293039604940323059302A92846FEF787
:1027C00025FE224621460720FEF72AFD06B0BDE879
:1027D000F08100BF00100240000C01400000111009
:1027E0000008014000B583B0084B5A6942F001026D
:1027F0005A615B6903F001030193019B00221146BA
:102800000B20FEF70DFD03B05DF804FB0010024045
:1028100008B50268136843F00203136002480146DA
:102820000430FFF7B7FE08BD0800002008B50268B5
:10283000136843F004031360024801460430FFF7B5
:10284000A9FE08BD0800002010B5094C2046FEF77F
:10285000ABFB01212046FEF70BFA0548FEF762FBB1
:1028600010F4007FF9D00248FEF7BCFA10BD00BF9B
:102870004401002038B52A4B5B6913F0020F4AD09F
:10288000284C0123A360FFF7DFFFFDF769FFE0603D
:10289000FFF7E6FEFEF77EF9FDF762FF224A111D03
:1028A000FFF760FE236963B91F4C251D21462846AA
:1028B000FFF770FE21462846FFF76CFE0122194BF8
:1028C0001A61194B5B68632B03DC174A1268312AC3
:1028D00002DD0121134A5161124A5269012A16D1BF
:1028E000632B03DD104B1B68312B10DC0E4C251DB8
:1028F00021462846FFF74EFE21462846FFF74AFEAE
:102900000A4B1B6862685A630022064B5A61802199
:102910000748FEF76DFE0220FEF770FE38BD00BFCF
:10292000000401403C00002008000020C4000020FA
:102930000008014038B5C36B1A6804682568016C4B
:1029400004238B401A4236D015F0040F33D023688D
:1029500013F0200F03D0236823F0040323600368DF
:102960002F4A934211D01432934210D01432934222
:102970000FD0143293420FD0143293420FD014323E
:1029800093420FD14FF480020EE004220CE040226B
:102990000AE04FF4806207E04FF4804204E04FF415
:1029A000802201E04FF080621E4B5A60C36A002B08
:1029B00035D0984738BD02238B401A4214D015F009
:1029C000020F11D0236813F0200F06D0236823F0E4
:1029D0000A032360012380F82130002380F820308F
:1029E000836AE3B1984738BD082303FA01F10A422C
:1029F00015D015F0080F12D0236823F00E032360C2
:102A0000C16B026C012303FA02F24A60836380F80F
:102A10002130002380F82030036B03B1984738BD84
:102A20000800024000000240FEE700BF00B58FB082
:102A30002748284B036040F23F63436000238360D4
:102A40006422C26003618361FFF702FC20B14FF48E
:102A50008C712148FFF7E8FF0EA94FF4805341F82D
:102A6000103D1B48FFF712FB20B14FF48F711A483D
:102A7000FFF7DAFF1648FFF723FC20B140F22311DD
:102A80001548FFF7D1FF00230893099308A91048C0
:102A9000FFF73EFD20B14FF495710F48FFF7C4FFDB
:102AA000602301933223029300220392059201A92D
:102AB0000748FFF781FC20B140F233110648FFF7C9
:102AC000B3FF034800F0FAF90FB05DF804FB00BF54
:102AD00004010020000400408430000800B593B0D9
:102AE0003048314B036040F23F6343600023836012
:102AF0004FF47A72C260036180238361FFF7A8FB01
:102B000020B140F24B112948FFF78EFF12A94FF474
:102B1000805341F8103D2348FFF7B8FA20B140F246
:102B200051112248FFF780FF1E48FFF7ADFB20B18F
:102B30004FF4AB711D48FFF777FF0423099360231F
:102B40000A9300230B930D9309A91648FFF728FB5E
:102B500020B140F25F111548FFF766FF402307934D
:102B60000023089307A90F48FFF7D2FC20B14FF4C8
:102B7000B3710E48FFF758FF3023009300220192F3
:102B80000292049269460748FFF7E6FB20B140F243
:102B90006F110648FFF748FF024800F08FF913B0A5
:102BA0005DF804FBC40000200008004084300008E9
:102BB00000B585B01248134B0360002383600122E7
:102BC000C26043614FF46021C16143600261FEF75E
:102BD0008FFA18B1F9210C48FFF726FF0023019363
:102BE00001220292039301A90548FEF7FFF820B1E4
:102BF00040F203110448FFF717FF05B05DF804FB2E
:102C000044010020002401408430000800B595B044
:102C100002230A9301220E9210220F921193002395
:102C200012934FF4601313930AA8FEF709FD18B12D
:102C3000C4211B48FFF7F8FE0F23059302210691DC
:102C4000002307934FF4E06308934FF4C0630993A4
:102C500005A8FEF72DFF18B1D2211148FFF7E4FEB9
:102C6000022301930023039301A8FEF7F9FF18B193
:102C7000D9210B48FFF7D8FEFEF7DCFF094BA3FB79
:102C800000308009FEF70AFB0420FEF71DFB00223E
:102C900011464FF0FF30FEF7C3FA15B05DF804FBA4
:102CA00084300008D34D621008B5FDF7BDFFFFF773
:102CB000ADFFFFF745FDFFF795FDFFF7B7FEFFF707
:102CC0000DFFFFF775FFFFF7B7FC134C2046FFF72A
:102CD000CBF900212046FFF703FC002280210F489A
:102CE000FEF780FC0720FEF7CDFA0B20FEF7CAFAAC
:102CF0000B4C2268536943F0420353610823094A8D
:102D000009490A48FEF748FB2046FFF7ADF90021C4
:102D10002046FFF7CDFBFEE704010020000801403C
:102D2000C400002034080040600000208000002023
:102D300000B583B0244B9A6942F001029A619A6906
:102D400002F001020092009ADA6942F08052DA61E0
:102D5000DB6903F080530193019B0320FEF74EFAD9
:102D6000002211466FF00B00FEF75AFA00221146BE
:102D70006FF00A00FEF754FA002211466FF00900C6
:102D8000FEF74EFA002211466FF00400FEF748FAF3
:102D9000002211466FF00300FEF742FA00221146AE
:102DA0006FF00100FEF73CFA002211464FF0FF30B1
:102DB000FEF736FA054A536823F0E06343F00073E8
:102DC000536003B05DF804FB0010024000000140B6
:102DD00002680E4B9A4217D100B587B003F56C43D9
:102DE0009A6942F400729A619B6903F4007301933B
:102DF000019B012302930323039302A90448FEF7D6
:102E000005FB07B05DF804FB704700BF00240140DC
:102E10000008014070B586B00368214A93420AD188
:102E2000204BDA6942F00202DA61DB6903F0020347
:102E30000093009B32E01C4A93422FD10446194B69
:102E4000DA6942F00402DA61DB6903F004030193FA
:102E5000019B8026029600250395049502A913483C
:102E6000FEF7D4FA1248134B0360102343608560C9
:102E7000C6604FF4807303614FF480634361202385
:102E800083614FF40053C361FEF74AFA18B1B321CE
:102E90000948FFF7C9FD064B63625C6206B070BD6E
:102EA000000400400010024000080040000C0140F7
:102EB00080000020080002409430000800B585B072
:102EC00003680E4A934209D14023009302230193E1
:102ED000039369460A48FEF799FA0BE0094A9342C0
:102EE00008D14023009302230193039369460648C7
:102EF000FEF78CFA05B05DF804FB00BF000400404B
:102F00000008014000080040000C0140704700BF6D
:102F1000FEE700BFFEE700BFFEE700BFFEE700BF21
:102F2000704700BF704700BF704700BF08B5FDF78E
:102F30008DFEFEF7DBF908BD08B50248FFF7FAFC85
:102F400008BD00BF800000200F4B1A6842F001024C
:102F50001A6059680D4A0A405A601A6822F0847251
:102F600022F480321A601A6822F480221A605A68A9
:102F700022F4FE025A604FF41F029A604FF0006282
:102F8000034B9A60704700BF001002400000FFF83A
:102F900000ED00E0002103E00B4B5B58435004318F
:102FA0000A480B4B42189A42F6D30A4A02E0002321
:102FB00042F8043B084B9A42F9D3FFF7C5FF00F0F3
:102FC0000FF8FFF771FE7047B830000800000020CE
:102FD000180000201800002074010020FEE7000007
:102FE0000E4B70B51E460E4C0025E41AA410A542E7
:102FF00004D056F8253098470135F8E700F016F868
:10300000084B094C1E46E41AA4100025A54204D022
:1030100056F8253098470135F8E770BDB030000804
:10302000B0300008B0300008B4300008F8B500BF78
:10303000F8BC08BC9E467047F8B500BFF8BC08BC99
:043040009E467047F1
:1030440002030405060708090A0B0C0D0E0F1010E5
:103054000102000002030405060708090A0B0C0D0F
:103064000E0F10100102000000000000000000001C
:10307400010203040607080900000000010203041A
:103084002E2E2F5372632F6D61696E2E6300000024
:103094002E2E2F5372632F73746D3332663178780A
:0C30A4005F68616C5F6D73702E6300004C
:0430B00035010008DE
:0430B40011010008FE
:1030B80001000000100000001900000014000000CA
:0830C8008926000800A24A0459
:0400000508002F952B
:00000001FF
