:020000040800F2
:1000000000500020DD2C0008652C0008672C00083B
:10001000692C00086B2C00086D2C00080000000003
:100020000000000000000000000000006F2C00082D
:10003000712C000800000000732C0008752C0008CB
:10004000252D0008252D0008252D0008252D000848
:10005000252D0008252D0008252D000899250008CC
:10006000252D0008252D0008252D0008812C0008CD
:10007000252D0008252D0008252D0008252D000818
:10008000252D0008252D0008252D0008252D000808
:10009000252D0008252D0008252D0008252D0008F8
:1000A000252D0008252D0008252D0008252D0008E8
:1000B000252D0008252D0008252D0008252D0008D8
:1000C000252D0008252D0008252D0008252D0008C8
:1000D000252D0008252D0008252D0008252D0008B8
:1000E000252D0008252D0008252D00080000000002
:1000F0000000000000000000000000000000000000
:0C01000000000000000000005FF808F1A3
:10010C0010B5054C237833B9044B13B10448AFF345
:10011C0000800123237010BD3C040020000000006F
:10012C00282D00080C4B43B10C4810B50C49AFF30B
:10013C0000800C48036823B910BD0A48036833B922
:10014C007047094B002BF7D0BDE810401847064B01
:10015C00002BF5D0184700BF00000000282D000828
:10016C00400400203C0400200000000080F000400F
:10017C0002E000BF81F0004142001FBF5FEA410373
:10018C0092EA030F7FEA226C7FEA236C6AD04FEA73
:10019C001262D2EB1363C1BFD218414048404140B8
:1001AC00B8BF5B42192B88BF704710F0004F40F46A
:1001BC00000020F07F4018BF404211F0004F41F486
:1001CC00000121F07F4118BF494292EA030F3FD052
:1001DC00A2F1010241FA03FC10EB0C00C3F1200365
:1001EC0001FA03F100F0004302D5494260EB4000F4
:1001FC00B0F5000F13D3B0F1807F06D340084FEA5F
:10020C00310102F10102FE2A51D2B1F1004F40EB53
:10021C00C25008BF20F0010040EA030070474900BB
:10022C0040EB000010F4000FA2F10102EDD1B0FA86
:10023C0080FCACF1080CB2EB0C0200FA0CF0AABF7B
:10024C0000EBC25052421843BCBFD0401843704719
:10025C0092F0000F81F4000106BF80F4000001321F
:10026C00013BB5E74FEA41037FEA226C18BF7FEAF6
:10027C00236C21D092EA030F04D092F0000F08BF38
:10028C000846704790EA010F1CBF0020704712F01F
:10029C007F4F04D1400028BF40F00040704712F15E
:1002AC0000723CBF00F50000704700F0004343F0C3
:1002BC00FE4040F4000070477FEA226216BF0846F9
:1002CC007FEA23630146420206BF5FEA412390EABC
:1002DC00010F40F4800070474FF0000304E000BFB2
:1002EC0010F0004348BF40425FEA000C08BF704763
:1002FC0043F0964301464FF000001CE050EA010227
:10030C0008BF70474FF000030AE000BF50EA01023B
:10031C0008BF704711F0004302D5404261EB410128
:10032C005FEA010C02BF84460146002043F0B6434D
:10033C0008BFA3F18053A3F50003BCFA8CF2083A72
:10034C00A3EBC25310DB01FA02FC634400FA02FC7B
:10035C00C2F12002BCF1004F20FA02F243EB020082
:10036C0008BF20F00100704702F1200201FA02FCE4
:10037C00C2F1200250EA4C0021FA02F243EB0200D7
:10038C0008BF20EADC7070474FF0FF0C1CEAD0521B
:10039C001EBF1CEAD15392EA0C0F93EA0C0F6FD0DC
:1003AC001A4480EA010C400218BF5FEA41211ED0BA
:1003BC004FF0006343EA501043EA5111A0FB0131A6
:1003CC000CF00040B1F5000F3EBF490041EAD3717B
:1003DC005B0040EA010062F17F02FD2A1DD8B3F1F7
:1003EC00004F40EBC25008BF20F00100704790F066
:1003FC00000F0CF0004C08BF49024CEA502040EAB8
:10040C0051207F3AC2BFD2F1FF0340EAC25070477D
:10041C0040F400004FF00003013A5DDC12F1190FBB
:10042C00DCBF00F000407047C2F10002410021FA2D
:10043C0002F1C2F1200200FA02FC5FEA310040F145
:10044C00000053EA4C0308BF20EADC70704792F0BE
:10045C00000F00F0004C02BF400010F4000F013AF6
:10046C00F9D040EA0C0093F0000F01F0004C02BFF1
:10047C00490011F4000F013BF9D041EA0C018FE760
:10048C000CEAD15392EA0C0F18BF93EA0C0F0AD066
:10049C0030F0004C18BF31F0004CD8D180EA01008C
:1004AC0000F00040704790F0000F17BF90F0004F25
:1004BC00084691F0000F91F0004F14D092EA0C0F07
:1004CC0001D142020FD193EA0C0F03D14B0218BF9A
:1004DC00084608D180EA010000F0004040F0FE40E0
:1004EC0040F40000704740F0FE4040F4400070477C
:1004FC004FF0FF0C1CEAD0521EBF1CEAD15392EAFB
:10050C000C0F93EA0C0F69D0A2EB030280EA010CEA
:10051C0049024FEA402037D04FF0805343EA111183
:10052C0043EA10130CF000408B4238BF5B0042F1E1
:10053C007D024FF4000C8B4224BF5B1A40EA0C0086
:10054C00B3EB510F24BFA3EB510340EA5C00B3EBB8
:10055C00910F24BFA3EB910340EA9C00B3EBD10FA6
:10056C0024BFA3EBD10340EADC001B0118BF5FEAF8
:10057C001C1CE0D1FD2A3FF650AF8B4240EBC25021
:10058C0008BF20F0010070470CF0004C4CEA5020E2
:10059C007F32C2BFD2F1FF0340EAC250704740F431
:1005AC0000004FF00003013A37E792F0000F00F023
:1005BC00004C02BF400010F4000F013AF9D040EAA1
:1005CC000C0093F0000F01F0004C02BF490011F435
:1005DC00000F013BF9D041EA0C0195E70CEAD1532D
:1005EC0092EA0C0F08D142027FF47DAF93EA0C0F14
:1005FC007FF470AF084676E793EA0C0F04D14B02F8
:10060C003FF44CAF08466EE730F0004C18BF31F0A9
:10061C00004CCAD130F000427FF45CAF31F00043A3
:10062C007FF43CAF5FE700BF4FF0FF3C06E000BF3C
:10063C004FF0010C02E000BF4FF0010C4DF804CD5F
:10064C004FEA40024FEA41037FEA226C18BF7FEA6F
:10065C00236C11D001B052EA530C18BF90EA010F71
:10066C0058BFB2EB030088BFC81738BF6FEAE17000
:10067C0018BF40F0010070477FEA226C02D15FEA9C
:10068C00402C05D17FEA236CE4D15FEA412CE1D008
:10069C005DF8040B704700BF844608466146FFE7CF
:1006AC000FB5FFF7C9FF002848BF10F1000F0FBDB1
:1006BC004DF808EDFFF7F4FF0CBF012000205DF8AA
:1006CC0008FB00BF4DF808EDFFF7EAFF34BF01202F
:1006DC0000205DF808FB00BF4DF808EDFFF7E0FFC8
:1006EC0094BF012000205DF808FB00BF4DF808ED19
:1006FC00FFF7D2FF94BF012000205DF808FB00BF7C
:10070C004DF808EDFFF7C8FF34BF012000205DF85D
:10071C0008FB00BF4FEA4002B2F1FE4F0FD34FF07F
:10072C009E03B3EB12620DD94FEA002343F0004352
:10073C0010F0004F23FA02F018BF404270474FF000
:10074C000000704712F1610F01D1420205D110F087
:10075C00004008BF6FF0004070474FF0000070473A
:10076C0070B50F4E0F4D761BB61018BF002405D078
:10077C00013455F8043B9847A642F9D10A4E0B4D6B
:10078C0002F0CCFA761BB61018BF002406D0013448
:10079C0055F8043B9847A642F9D170BD70BD00BF17
:1007AC00B42D0008B42D0008BC2D0008B42D000891
:1007BC00024B13B1024800F005B87047000000006E
:1007CC00DD070008002301461A46184600F01EB843
:1007DC0038B50A4C0A4D641BA4100AD004F18043AE
:1007EC00013B05EB8305013C55F804399847002C77
:1007FC00F9D1BDE8384002F097BA00BFC02D00080F
:10080C00BC2D0008704700BF704700BF2DE9F843AE
:10081C002C4D0646286898460F469146FFF7F2FF86
:10082C00294B1C68D4F84831002B3ED05A681F2A3B
:10083C001CDC02F1010E76B1012103EB8204C4F839
:10084C008890D3F8880191400843022EC3F88801A0
:10085C00C4F8088123D00232C3F804E0286843F8B6
:10086C002270FFF7D1FF0020BDE8F883174B0BB3C4
:10087C004FF4C870AFF300800346D8B10020D4F811
:10088C0048114FF0010E586019600246C4F8483107
:10089C00C3F88801C3F88C01002EDCD0CCE7D3F868
:1008AC008C010143C3F88C11D5E704F5A673C4F889
:1008BC004831BBE72868FFF7A7FF4FF0FF30BDE8D2
:1008CC00F88300BF38040020802D000800000000D1
:1008DC002DE9F04700230327DFF8948084B0CDF88E
:1008EC0004800124039701AE029320463146ABBE2F
:1008FC00814604231B4DCDF80480C5F80090039766
:10090C00029320463146ABBE82460823DFF8649042
:10091C00CDF80480C9F800A0039702932046314615
:10092C00ABBE0446104B621C1C6016D02046D9F896
:10093C00004000234FF0FF310C4A42F833100133D2
:10094C00142BFAD100232968946011601061536054
:10095C00D360536104B0BDE8F087D9F8004020465D
:10096C001C60E6E784040020800400208C04002036
:10097C00842D00088804002010B504460E4B18780E
:10098C004FF47A73B3FBF0F30C4A1068B0FBF3F03E
:10099C0000F048FB68B90F2C01D9012010BD0022D2
:1009AC0021464FF0FF3000F0FFFA034B5C60002053
:1009BC0010BD012010BD00BF000000200800002069
:1009CC0008B5074A136843F010031360032000F0C6
:1009DC00D9FA0020FFF7D0FF02F04EF8002008BD36
:1009EC0000200240034A1168034B1B780B44136030
:1009FC00704700BF5005002000000020014B186814
:100A0C00704700BF50050020F0B583B005460C467A
:100A1C0000230193FFF7F2FF2B689A6812F4807F92
:100A2C0023D106465A6812F4807F03D1DB6A13F493
:100A3C00700F24D04B4B1F68022001F04FF8B7FB0E
:100A4C00F0F72B681969484A11422FD1D96802F185
:100A5C005C4211422AD11969444A114239D1DA68EF
:100A6C00434B1A4237D029203AE0AB6A43F02003BB
:100A7C00AB62002385F82430012003B0F0BD2B6855
:100A8C001B6813F0020F48D1B4F1FF3FF7D024B12B
:100A9C00FFF7B4FF801B8442F1D2AB6A43F004032E
:100AAC00AB62002385F824300320E6E719692F4A4E
:100ABC00114204D1D96802F16E4211420DD019696C
:100ACC002C4A0A405AB9DA682A4B13405BB1FC2015
:100ADC0006E0292004E0142002E0542000E0FC2071
:100AEC0007FB00F704E05420FAE7019B0133019364
:100AFC00019B9F4211D9B4F1FF3FF6D024B1FFF70F
:100B0C007DFF801B8442F0D2AB6A43F00403AB62DE
:100B1C00002385F824300320AFE72B686FF0120216
:100B2C001A60AB6A43F40073AB622B689B6803F4E6
:100B3C006023B3F5602F01D000209EE7EB686BB902
:100B4C00AB6A23F48073AB62AB6A13F4805F07D19A
:100B5C00AB6A43F00103AB6200208EE700208CE708
:100B6C0000208AE70800002024499224922449128C
:100B7C0092244900499224000368D86C7047000005
:100B8C0030B482B00023019390F82430012B00F094
:100B9C008B800246012380F824304B68062B29D821
:100BAC000568686B03EB8303053B1F249C4020EA1C
:100BBC0004000C6804FA03F303436B630B68092B02
:100BCC0038D91568E86803EB43031E3B07249C40A7
:100BDC0020EA04008C6804FA03F30343EB600B680F
:100BEC00103B012B34D90020002382F8243002B0B2
:100BFC0030BC70470C2B0ED80568286B03EB8303B5
:100C0C00233B1F249C4020EA04000C6804FA03F3E5
:100C1C0003432B63D2E70568E86A03EB8303413B8C
:100C2C001F249C4020EA04000C6804FA03F30343DD
:100C3C00EB62C3E71568286903EB430307249C4068
:100C4C0020EA04008C6804FA03F303432B61C6E723
:100C5C0013681648834205D0936A43F020039362CD
:100C6C000120C1E7986810F4000F1BD1986840F47C
:100C7C00000098600B68102B01D00020B4E70C4BDF
:100C8C001B680C49A1FB03139B0C03EB830359005A
:100C9C00019102E0019B013B0193019B002BF9D1D7
:100CAC000020A1E700209FE70220A0E700240140DC
:100CBC000800002083DE1B43806A704730B583B088
:100CCC000023019303689A6812F0010F2ED19A68E1
:100CDC0042F001029A60174B1B68174AA2FB0323D0
:100CEC009B0C019302E0019B013B0193019B002BA8
:100CFC00F9D10446FFF782FE054623689B6813F082
:100D0C00010F11D1FFF77AFE401B0228F5D9A36A17
:100D1C0043F01003A362E36A43F00103E362002390
:100D2C0084F82430012002E0002000E0002003B011
:100D3C0030BD00BF0800002083DE1B4390F8243038
:100D4C00012B02D102231846704710B5044601232B
:100D5C0080F82430FFF7B2FF034600285BD1A26A6B
:100D6C0022F4407222F0010242F48072A2622268E4
:100D7C002B498A4227D0A16A21F48011A1625168C3
:100D8C0011F4806F05D0A16A21F4405141F48051D7
:100D9C00A162A16A11F4805F2BD0E16A21F00601F7
:100DAC00E162002184F824106FF0020111602268C6
:100DBC00916801F46021B1F5602F1DD0916841F468
:100DCC00801191602AE0A1F58061496811F4702FBF
:100DDC00D1D0A16A41F48011A1621249496811F481
:100DEC00806FD6D0A16A21F4405141F48051A162A8
:100DFC00CFE70021E162D4E709498A4204D0916827
:100E0C0041F4A001916009E0A1F58061496811F4F9
:100E1C00702FD3D1F3E7002284F82420184610BD9C
:100E2C00002801400024014038B503689A6812F08C
:100E3C00010F01D1002038BD04469A6822F001024E
:100E4C009A60FFF7DBFD054623689B6813F0010FE2
:100E5C000ED0FFF7D3FD401B0228F5D9A36A43F04F
:100E6C001003A362E36A43F00103E362012038BD7F
:100E7C00002038BD00287FD038B50446836A002B8B
:100E8C004AD02046FFF7D0FFA36A13F010036DD1B0
:100E9C0000286BD1A26A22F4885222F0020242F09E
:100EAC000202A2626268E1690A43E56842EA45020D
:100EBC00A168B1F5807F38D0012933D0616901294F
:100ECC0036D02568696821F469410B436B60216851
:100EDC008D682A4B2B4013438B60A368B3F5807F3E
:100EEC0037D0012B35D000232568E96A21F4700135
:100EFC000B43EB6223689968214B0B409A422CD030
:100F0C00A36A23F0120343F01003A362E36A43F0D5
:100F1C000103E362012038BDC36280F8243001F084
:100F2C00FBFDAEE74FF48073C8E74FF48073C5E761
:100F3C0035B9A169013943EA413343F40063C0E791
:100F4C00A16A41F02001A162E16A41F00101E16274
:100F5C00B7E72369013B1B05C6E70023E362A36ADD
:100F6C0023F0030343F00103A36238BDA36A43F0EB
:100F7C001003A362012038BD01207047FDF7E1FF8B
:100F8C00FE0E1FFF074AD36823F4E0631B041B0CFF
:100F9C00000200F4E060184340F0BF6040F4003001
:100FAC00D060704700ED00E030B4164BDB68C3F343
:100FBC000223C3F10704042C28BF04241D1D062D95
:100FCC0017D9033B012505FA04F4013C2140994053
:100FDC0005FA03F3013B1340194300280BDB09010D
:100FEC00C9B200F1604000F5614080F8001330BCDC
:100FFC0070470023E6E700F00F000901C9B2024B6D
:10100C001954F4E700ED00E014ED00E0420900F0A3
:10101C001F00012303FA00F0014B43F82200704734
:10102C0000E100E00138B0F1807F0AD2064B586035
:10103C00F021064A82F823100020986007221A60DB
:10104C0070470120704700BF10E000E000ED00E0A9
:10105C00042805D0054A136823F004031360704775
:10106C00024A136843F004031360704710E000E079
:10107C00704708B5FFF7FCFF08BD70B4C56B066C74
:10108C000124B4406C60046863604368102B05D085
:10109C00036899600368DA6070BC704703689A60F3
:1010AC000368D960F8E70000002830D010B403467C
:1010BC000068184A02441849A1FB02121209920056
:1010CC001A64164ADA63022283F82120016821F49B
:1010DC007F5121F030015A689C682243DC6822431E
:1010EC001C6922435C6922439C692243DC692243CC
:1010FC000A43026000209862D862186358639863B0
:10110C00012283F8212083F8200010BC70470120B5
:10111C00704700BFF8FFFDBFCDCCCCCC0000024027
:10112C0038B590F82040012C32D0012480F82040B2
:10113C0090F82140012C04D0002380F820300220AC
:10114C0038BD0446022084F821000020A0632568E5
:10115C00286820F0010028602046FFF78EFFE36A24
:10116C005BB12268136843F00E03136022681368A6
:10117C0043F001031360002038BD2268136823F08C
:10118C00040313602268136843F00A031360EDE74D
:10119C00022038BDF0B583B00026344671E0002D36
:1011AC0000F0A180012D00D1CE68FF2B00F2AF80A2
:1011BC008646FF2B00F2AE80A500DEF800200F273C
:1011CC00AF4022EA070206FA05F52A43CEF80020C2
:1011DC004A6812F0805F53D0634A956945F0010567
:1011EC009561926902F001020192019AA508AF1C67
:1011FC005E4A52F8272004F00307BF004FF00F0E91
:10120C000EFA07FE22EA0E02DFF870E1704500F0DC
:10121C0088800EF5806E704500F086800EF5806E2D
:10122C00704500F084800EF5806E704576D04FF0DE
:10123C00040E0EFA07F73A4302354C4F47F82520B7
:10124C004A6812F4803F75D0494D2A681A432A60C7
:10125C004A6812F4003F73D0454D6A681A436A60BD
:10126C004A6812F4801F71D0414DAA681A43AA60D3
:10127C004A6812F4001F6FD03D4DEA681343EB60CF
:10128C0001340F2C6ED80122A2400B6813409A42F5
:10129C00F6D14D68122D30D00BD8022D2AD07FF606
:1012AC007EAF032D2FD0112D7FF47FAFCE68043687
:1012BC007BE7304FBD4216D00CD92F4FBD4212D018
:1012CC0007F58037BD420ED0A7F58017BD427FF4DD
:1012DC006CAF08E0A7F58017BD4204D007F5803746
:1012EC00BD427FF462AF8D687DB1012D08D04261A3
:1012FC0008265AE7CE68083657E7CE680C3654E70E
:10130C000261082651E700264FE704264DE700F15D
:10131C00040E4EE7A4F10805AD004EE74FF0030EA6
:10132C0087E74FF0000E84E74FF0010E81E74FF096
:10133C00020E7EE70E4D2A6822EA03022A6087E736
:10134C000B4D6A6822EA03026A6089E7084DAA68B5
:10135C0022EA0302AA608BE7054DEA6822EA03033E
:10136C00EB608DE703B0F0BD0010024000000140BF
:10137C000004014000002110000031100008014061
:10138C0012B9090401617047016170477047000090
:10139C0008B5054B5B69034200D108BD024B58618F
:1013AC00FFF7F4FFF9E700BF0004014082B0084BDF
:1013BC001B68084AA2FB03235B0A00FB03F00190A5
:1013CC0000BF019B5A1E0192002BF9D102B070474D
:1013DC0008000020D34D621070B582B0044603683B
:1013EC0013F0010F3DD0AC4B5B6803F00C03042BE6
:1013FC002ED0A94B5B6803F00C03082B23D0636839
:10140C00B3F5803F51D0002B55D103F1804303F548
:10141C0004331A6822F480321A601A6822F480228B
:10142C001A606368002B60D0FFF7E8FA05469A4B08
:10143C001B6813F4003F14D1FFF7E0FA401B64283B
:10144C00F5D90320AFE1944B5B6813F4803FD6D001
:10145C00914B1B6813F4003F03D06368002B00F022
:10146C009F81236813F0020F65D08B4B5B6813F0E0
:10147C000C0F4ED0884B5B6803F00C03082B43D049
:10148C002369002B79D00122844B1A60FFF7B6FA3E
:10149C000546814B1B6813F0020F65D1FFF7AEFABE
:1014AC00401B0228F5D903207DE17B4A136843F4E5
:1014BC0080331360B5E7B3F5A02F09D0764B1A68CB
:1014CC0022F480321A601A6822F480221A60A8E78B
:1014DC0003F18043A3F53C331A6842F480221A606E
:1014EC001A6842F480321A609BE7FFF787FA0546C8
:1014FC00694B1B6813F4003FB3D0FFF77FFA401B16
:10150C006428F5D903204EE1634B5B6813F4803FEC
:10151C00B6D1614B1B6813F0020F04D02369012B69
:10152C0001D001203FE15C4A136823F0F8036169A4
:10153C0043EAC1031360236813F0080F32D0A36988
:10154C00002B6ED00122564B1A60FFF757FA054656
:10155C00514B5B6A13F0020F21D1FFF74FFA401B7E
:10156C000228F5D903201EE14B4A136823F0F80337
:10157C00616943EAC1031360DDE70022474B1A603F
:10158C00FFF73CFA0546444B1B6813F0020FD2D010
:10159C00FFF734FA401B0228F5D9032003E10120A0
:1015AC00FFF704FF236813F0040F00F099803A4B07
:1015BC00DB6913F0805F46D1374BDA6942F0805219
:1015CC00DA61DB6903F080530193019B0125354BF4
:1015DC001B6813F4807F38D0E368012B49D0002BB3
:1015EC004DD103F1804303F504331A6A22F0010252
:1015FC001A621A6A22F004021A62E368002B5DD0A8
:10160C00FFF7FCF90646244B1B6A13F0020F66D158
:10161C00FFF7F4F9801B41F288339842F3D9032089
:10162C00C1E000221E4B1A60FFF7E8F905461A4B81
:10163C005B6A13F0020FB5D0FFF7E0F9401B0228EC
:10164C00F5D90320AFE00025C1E7164A136843F42F
:10165C0080731360FFF7D2F90646124B1B6813F424
:10166C00807FB9D1FFF7CAF9801B6428F5D9032014
:10167C0099E0094A136A43F001031362BDE7052B95
:10168C0012D0054B1A6A22F001021A621A6A22F071
:10169C0004021A62B1E700BF00100240000042428F
:1016AC008004424200700040414B1A6A42F004022E
:1016BC001A621A6A42F001021A629EE7FFF79EF95B
:1016CC0006463B4B1B6A13F0020F08D0FFF796F946
:1016DC00801B41F288339842F3D9032063E0E5B9CB
:1016EC00E369002B5ED0324A526802F00C02082AE1
:1016FC005BD0022B17D000222E4B1A60FFF77EF91D
:10170C0004462B4B1B6813F0007F47D0FFF776F98C
:10171C00001B0228F5D9032045E0254AD36923F0A4
:10172C008053D361DCE70022224B1A60FFF766F985
:10173C0005461F4B1B6813F0007F06D0FFF75EF9C0
:10174C00401B0228F5D903202DE0236AB3F5803F16
:10175C001AD017494B6823F47413226A606A024347
:10176C0013434B600122134B1A60FFF747F90446F1
:10177C000F4B1B6813F0007F0ED1FFF73FF9001BD6
:10178C000228F5D903200EE0094A536823F40033EC
:10179C00A1680B435360DCE7002004E0002002E06A
:1017AC00012000E0002002B070BD0120FBE700BF6B
:1017BC00001002406000424210B586B0154C94E80F
:1017CC000F000DF1180E0EE90F00238AADF804304E
:1017DC00114B5B6803F00C02082A18D1C3F3834247
:1017EC00724412F8102C13F4803F03D10B4800FB09
:1017FC0002F00DE0084B5B68C3F34043734413F8ED
:10180C00143C074800FB02F0B0FBF3F000E0044886
:10181C0006B010BD402D00080010024000093D002C
:10182C0000127A00594B1B6803F007038B420CD251
:10183C00564A136823F007030B431360136803F035
:10184C000703994201D00120704770B5036813F06B
:10185C00020F06D04E4A536823F0F00384682343EA
:10186C0053600D460446036813F0010F52D04368D1
:10187C00012B23D0022B28D0454A126812F0020FFC
:10188C0000F0828042494A6822F0030213434B6005
:10189C00FFF7B4F806466368012B1DD0022B2AD043
:1018AC003B4B5B6813F00C0F34D0FFF7A7F8801B91
:1018BC0041F288339842F3D9032070BD344A126840
:1018CC0012F4003FDED1012070BD314A126812F0D3
:1018DC00007FD7D1012070BD2D4B5B6803F00C034A
:1018EC00042B17D0FFF78AF8801B41F288339842FB
:1018FC00F2D9032070BD264B5B6803F00C03082B58
:10190C0008D0FFF77BF8801B41F288339842F2D95C
:10191C00032070BD1D4B1B6803F007039D420CD2C6
:10192C001A4A136823F007032B431360136803F060
:10193C0007039D4201D0012070BD236813F0040FF2
:10194C0006D0134A536823F4E063E1680B435360F9
:10195C00236813F0080F07D00D4A536823F4605323
:10196C00216943EAC1035360FFF726FF084B5B680C
:10197C00C3F30313074AD35CD840074B186000200D
:10198C00FEF7FAFF002070BD012070BD0020024060
:10199C0000100240682D000808000020014B186858
:1019AC00704700BF0800002008B5FFF7F7FF044B95
:1019BC005B68C3F3C223034AD35CD84008BD00BFA5
:1019CC0000100240782D000870B582B00446036800
:1019DC0013F0010F34D03E4BDB6913F0805F48D11C
:1019EC003B4BDA6942F08052DA61DB6903F08053D9
:1019FC000193019B0125374B1B6813F4807F3AD070
:101A0C00334B1B6A13F4407311D0626802F44072BA
:101A1C0093420CD02E4A136A23F440702E490126AF
:101A2C000E6000260E60106213F0010F37D1284AA9
:101A3C00136A23F4407361680B431362002D3FD18A
:101A4C00236813F0020F06D0214A536823F4404355
:101A5C00A1680B435360236813F0100F35D01C4A58
:101A6C00536823F48003E1680B435360002002B0F9
:101A7C0070BD0025BFE7174A136843F480731360E9
:101A8C00FEF7BCFF0646134B1B6813F4807FB7D1DF
:101A9C00FEF7B4FF801B6428F5D90320E7E7FEF7B7
:101AAC00ADFF06460A4B1B6A13F0020FBFD1FEF7BF
:101ABC00A5FF801B41F288339842F3D90320D6E767
:101ACC00D36923F08053D361BAE70020CFE700BF7E
:101ADC0000100240007000404004424230B587B014
:101AEC000546384C94E80F000DF1180E0EE90F0066
:101AFC00238AADF80430022D53D0102D03D0012DC4
:101B0C002BD0002057E0304B5A681B6813F0807FB5
:101B1C0053D0C2F3834306A90B4413F8100C12F4F0
:101B2C00803F16D0284B5B68C3F340430B4413F83B
:101B3C00142C264BB3FBF2F303FB00F0224B5B6837
:101B4C0013F4800F37D14000214BA3FB0030400829
:101B5C0031E0204B03FB00F0F0E71B4B1B6A40F21B
:101B6C0002321A40B2F5817F29D003F44073B3F5E9
:101B7C00007F04D0B3F5407F09D000201BE0124A4F
:101B8C00526A12F0020FF5D049F6404013E00E4BAA
:101B9C001B6813F4003F02D04FF224400BE00020EE
:101BAC0009E0FFF701FF084B5B68C3F38133013396
:101BBC005B00B0FBF3F007B030BD0020FBE74FF447
:101BCC000040F8E7542D00080010024000127A0083
:101BDC00ABAAAAAA00093D0030B4036A23F00103A2
:101BEC000362036A4468826922F073020D682A4317
:101BFC0023F002038D682B430D4DA84209D00C4DE8
:101C0C00A8420DD0446082614A684263036230BCD2
:101C1C00704723F00803CD682B4323F00403EEE751
:101C2C0024F440744D692C438D692C43EAE700BFC2
:101C3C00002C014030B4036A23F480730362036AFE
:101C4C004468C26922F073020D682A4323F40073BE
:101C5C008D6843EA05230F4DA84209D00D4DA842CB
:101C6C000ED04460C2614A68C263036230BC7047E4
:101C7C0023F40063CD6843EA052323F48063EDE786
:101C8C0024F440544D6944EA05148D6944EA051462
:101C9C00E7E700BF002C014030B4036A23F4805303
:101CAC000362036A4468C26922F4E6420D6842EAA0
:101CBC00052223F400538D6843EA0533074DA842EF
:101CCC0006D04460C2614A680264036230BC70474B
:101CDC0024F480444D6944EA8514F2E7002C014059
:101CEC0010B4036A046A24F001040462846924F0C9
:101CFC00F00444EA021223F00A030B4382610362EC
:101D0C0010BC704710B4036A23F01003036284699B
:101D1C00036A24F4704444EA023223F0A00343EA39
:101D2C0001138261036210BC7047836823F0700357
:101D3C0041F007010B438360704710B4846824F4AE
:101D4C007F4442EA032319430C43846010BC704760
:101D5C0010B50268936823F070034C68234323F09A
:101D6C0007030C68234393604B68502B1FD00AD990
:101D7C00602B22D0702B25D10B698A68C96800684A
:101D8C00FFF7DBFF10BD402B10D103681C6A1A6AE9
:101D9C0022F001021A620268936923F0F0030969C8
:101DAC0043EA0113936103681C6210BD10BD0A69FC
:101DBC0089680068FFF794FF10BD0A69896800689C
:101DCC00FFF7A0FF10BD022380F83D3002681368B6
:101DDC0043F001031360012380F83D30002070476D
:101DEC007047704790F83C30012B7DD010B50446FD
:101DFC00012380F83C30022380F83D300268936860
:101E0C0023F47F4323F0770393600B68402B57D068
:101E1C0010D9702B3ED01FD8502B47D0602B32D10D
:101E2C00CA6849680068FFF76DFF60212068FFF7FA
:101E3C007CFF28E0102B4DD008D9202B4FD0302B15
:101E4C0021D130210068FFF770FF1CE0DBB90021C5
:101E5C000068FFF76AFF16E0B3F5805F0ED0B3F5AC
:101E6C00005F10D1CB684A6889680068FFF765FF8E
:101E7C002268936843F48043936004E0026893689B
:101E8C0023F007039360012384F83D30002084F88D
:101E9C003C0010BDCB684A6889680068FFF74DFFAD
:101EAC002268936843F077039360ECE7CA6849684B
:101EBC000068FFF715FF50212068FFF736FFE2E7B7
:101ECC00CA6849680068FFF70BFF40212068FFF7DC
:101EDC002CFFD8E710210068FFF727FFD3E720215C
:101EEC000068FFF722FFCEE70220704738B590F864
:101EFC003C30012B01D1022038BD0446012580F86D
:101F0C003C50022380F83D30FFF722FF2268D36853
:101F1C0023F04003D3602268D36823F48043D3605A
:101F2C0084F83D50002084F83C0038BD03681C4AFE
:101F3C00904227D0B0F1804F24D0A2F59432904239
:101F4C0020D002F5806290421CD0154A90421ED0DF
:101F5C00B0F1804F1BD0A2F59432904217D002F50D
:101F6C008062904213D023F080034A6913430360CC
:101F7C008B68C3620B688362094B98420CD00123B7
:101F8C004361704723F070034A681343DDE723F481
:101F9C004073CA681343E6E70B690363EFE700BFBE
:101FAC00002C0140A8B110B5044690F83D305BB14F
:101FBC00022384F83D30211D2068FFF7B7FF012371
:101FCC0084F83D30002010BD80F83C3000F0C6FD98
:101FDC00EEE701207047A8B110B5044690F83D30EB
:101FEC005BB1022384F83D30211D2068FFF79EFF72
:101FFC00012384F83D30002010BD80F83C30FFF701
:10200C00EFFEEEE701207047A8B110B5044690F83A
:10201C003D305BB1022384F83D30211D2068FFF771
:10202C0085FF012384F83D30002010BD80F83C3042
:10203C00FFF7D7FEEEE701207047000030B4036ACB
:10204C0023F010030362036A4468826922F4E642B7
:10205C000D6842EA052223F020038D6843EA05133C
:10206C000E4DA84209D00D4DA8420ED0446082619D
:10207C004A688263036230BC704723F08003CD68EA
:10208C0043EA051323F04003EDE724F440644D6963
:10209C0044EA85048D6944EA8504E7E7002C014095
:1020AC0090F83C30012B28D010B50446012380F861
:1020BC003C30022380F83D300C2A0BD8DFE802F0CC
:1020CC00070A0A0A110A0A0A150A0A0A19000068FC
:1020DC00FFF782FD012384F83D30002084F83C009A
:1020EC0010BD0068FFF7AAFFF4E70068FFF7A2FD38
:1020FC00F0E70068FFF7D0FDECE70220704738B539
:10210C0090F83C30012B66D00D460446012380F834
:10211C003C30022380F83D300C2A1AD8DFE802F05C
:10212C0007191919201919193419191947000068B8
:10213C00FFF752FD2268936943F00803936122680C
:10214C00936923F0040393612268936929690B4313
:10215C009361012384F83D30002084F83C0038BDA5
:10216C000068FFF76BFF2268936943F40063936187
:10217C002268936923F480639361226893692969C7
:10218C0043EA01239361E4E70068FFF753FD2268FB
:10219C00D36943F00803D3612268D36923F00403A5
:1021AC00D3612268D36929690B43D361D1E70068F5
:1021BC00FFF772FD2268D36943F40063D361226890
:1021CC00D36923F48063D3612268D369296943EA14
:1021DC000123D361BDE7022038BD10B4012303FAFB
:1021EC0001F4036A23EA04030362036A8A4013437B
:1021FC00036210BC7047000010B504460122006851
:10220C00FFF7EBFF2368074A934206D02268136856
:10221C0043F001031360002010BD5A6C42F40042DD
:10222C005A64F3E7002C014010B504460022006804
:10223C00FFF7D3FF2368114A934210D02368196A21
:10224C0041F21112114208D1196A40F24442114272
:10225C0003D11A6822F001021A60002010BD196A1D
:10226C0041F211121142E9D1196A40F24442114271
:10227C00E4D15A6C22F400425A64DFE7002C01408E
:10228C0010B5044601220068FFF7A7FF2368074A30
:10229C00934206D02268136843F0010313600020B8
:1022AC0010BD5A6C42F400425A64F3E7002C014012
:1022BC0090F83C30012B22D030B4012280F83C2025
:1022CC00022380F83D300468636823F07003636078
:1022DC00046863680D682B4363600468A36823F08B
:1022EC008003A3600468A36849680B43A36080F86B
:1022FC003D20002380F83C30184630BC704702204B
:10230C007047000038B50D4614464FF07C51FEF76F
:10231C003BF801460448FDF72DFFFEF7FBF928605A
:10232C003238206038BD00BF0000C842036801335A
:10233C0003600B6801330B6070470000F8B505466D
:10234C000E460468592C1ADD632C12DC5A230360E8
:10235C005C243068272820DD312818DC28233360E2
:10236C002A20204B5B68082B1FD00022042A20D186
:10237C00F8BD00211C48FFF757FF0024E9E73D2C6E
:10238C0003DC332303603D24E3E70234E1E700215F
:10239C001548FFF749FF0020E3E70B2803DC012376
:1023AC0033600B20DDE70230DBE700220D4B5A6077
:1023BC00DBE7DFF830E0DEF804302F680B4921F85A
:1023CC0013705F1C21F8174003F1020C376821F8D9
:1023DC001C70DF1C21F817000433CEF804300432D3
:1023EC00C4E700BF580400205405002094050020C9
:1023FC00054B064A9A62064ADA62064B1A68D3689B
:10240C0043F48443D3607047A40500204D25000895
:10241C002D2500085405002010B504460949FEF787
:10242C006FF900B1074C08492046FEF74BF900B193
:10243C00002404492046FEF75BF80449FDF7A4FF8D
:10244C0010BD00BF00007A45000096430000C84252
:10245C002DE9F04186B0234B9A6942F004029A614F
:10246C009A6902F004020092009A9A6942F00802FA
:10247C009A619B6903F008030193019BDFF870805C
:10248C00002280214046FEF77BFF174D01220821D8
:10249C002846FEF775FF802302930127039700243B
:1024AC0004940326059602A94046FEF773FE022308
:1024BC0002930E4B0393049402A92846FEF76AFE7E
:1024CC00082302930397049405960DEB0301284609
:1024DC00FEF760FE224621460720FEF765FD06B09A
:1024EC00BDE8F08100100240000C014000002110FA
:1024FC000008014000B583B0084B5A6942F0010254
:10250C005A615B6903F001030193019B00221146A0
:10251C000B20FEF749FD03B05DF804FB00100240F0
:10252C0010B50446054800F108010C30FFF706FF12
:10253C002268136843F00203136010BD600400208E
:10254C0010B50446054800F108010C30FFF7F6FE03
:10255C002268136843F00403136010BD600400206C
:10256C0010B5094C2046FEF7E9FB01212046FEF789
:10257C004BFA0548FEF7A0FB10F4007FF9D0024897
:10258C00FEF7FAFA10BD00BF2806002070B5324BDA
:10259C005B6913F0020F03D10220FEF7F9FE70BD48
:1025AC002E4C012280212046FEF7EAFE00228021DB
:1025BC002046FEF7E5FE2A4C01232361FFF7D0FFEE
:1025CC00FDF78EFE6061FFF727FFFEF7A3F804F11D
:1025DC00080604F10C05FDF783FE32462946FFF789
:1025EC0091FE31462846FFF7A1FEA36943B31C4B6D
:1025FC00DB68642B03DC1A4A9268322A02DD012163
:10260C00174AD161164AD269012AC5D1642B03DD60
:10261C00134B9B68322BBFDC114C04F1080604F100
:10262C000C0531462846FFF789FE31462846FFF750
:10263C0085FE00210B48FFF7DFFD0023E361ABE7CC
:10264C0031462846FFF77AFE31462846FFF776FEDC
:10265C000123A361CBE700BF000401400008014047
:10266C00600400205405002038B5C36B1A68046858
:10267C002568016C04238B401A4236D015F0040FE8
:10268C0033D0236813F0200F03D0236823F0040306
:10269C00236003682F4A934214D01432934219D00A
:1026AC001432934218D01432934218D014329342FD
:1026BC0018D01432934202D04FF0806203E04FF4F2
:1026CC00800200E00422244B5A60C36A002B40D0E5
:1026DC00984738BD4022F6E74FF48062F3E74FF499
:1026EC008042F0E74FF48022EDE702238B401A4240
:1026FC0014D015F0020F11D0236813F0200F06D060
:10270C00236823F00A032360012380F8213000237F
:10271C0080F82030836AE3B1984738BD082303FA68
:10272C0001F10A4215D015F0080F12D0236823F0DE
:10273C000E032360C16B026C012303FA02F24A60A0
:10274C00836380F82130002380F82030036B03B1C1
:10275C00984738BD0800024000000240FEE7000028
:10276C0000B58FB02748284B036040F23F634360AD
:10277C00002383606422C26003618361FFF712FC53
:10278C0030BB0EA94FF4805341F8103D1D48FFF7A4
:10279C0029FB10BB1B48FFF737FC18BB0023089321
:1027AC00099308A91748FFF783FD00BB6023019329
:1027BC003223029300220392059201A91148FFF7DC
:1027CC009EFCC8B90F4800F01FFA0FB05DF804FB6F
:1027DC0040F21D110D48FFF7C1FF40F223110B48C9
:1027EC00FFF7BCFF4FF494710848FFF7B7FF40F2B6
:1027FC002F110648FFF7B2FF4FF49C710348FFF707
:10280C00ADFF00BFE805002000040040882D000843
:10281C0000B593B03248334B036040F2E73343606A
:10282C00002383604FF4C862C2600361802383611C
:10283C00FFF7B8FB002835D112A94FF4805341F8AB
:10284C00103D2748FFF7CEFA002830D12448FFF777
:10285C00C2FB002830D10423099360230A9302237E
:10286C000B9300230D9309A91D48FFF73FFB40BBB9
:10287C00402307930023089307A91948FFF718FD75
:10288C0020BB3023009300220192029204926946ED
:10289C001348FFF705FCF0B9114800F0B5F913B077
:1028AC005DF804FB4FF4A8710F48FFF757FF4FF486
:1028BC00AB710D48FFF752FF40F25B110A48FFF76E
:1028CC004DFF4FF4B2710848FFF748FF40F26B110F
:1028DC000548FFF743FF4FF4BA710348FFF73EFF7B
:1028EC005405002000080040882D000800B585B074
:1028FC001248134B0360002383600122C2604361C2
:10290C004FF46021C16143600261FEF7B3FA60B914
:10291C000023019301220292039301A90748FEF7B9
:10292C002FF930B905B05DF804FBFE210548FFF71F
:10293C0015FF4FF484710348FFF710FF28060020A1
:10294C0000240140882D000800B595B002230A939D
:10295C0001220E9210220F921193002312934FF426
:10296C00601313930AA8FEF737FD58BB0F2305938A
:10297C0002210691002307934FF4E06308934FF470
:10298C00C063099305A8FEF74DFFF8B90223019324
:10299C000023039301A8FFF717F8D8B9FEF7FEFF41
:1029AC000E4BA3FB00308009FEF73CFB0420FEF726
:1029BC004FFB002211464FF0FF30FEF7F5FA15B031
:1029CC005DF804FBC9210648FFF7C8FED72104486F
:1029DC00FFF7C4FEDE210248FFF7C0FED34D6210A4
:1029EC00882D000808B5FDF773FF1C4A136843F4E3
:1029FC0040531360FDF7E4FFFFF7A6FFFFF728FD38
:102A0C00FFF778FDFFF7ACFEFFF702FFFFF76EFF55
:102A1C00FFF7EEFC124C2046FFF7D5F900212046BB
:102A2C00FFF72EFC002280210E48FEF7A9FC0720A0
:102A3C00FEF7ECFA0B20FEF7E9FA0B4C226853690F
:102A4C0043F0420353610823084A09490948FEF739
:102A5C0067FB2046FFF7B7F9FEE700BF042004E050
:102A6C00E80500200008014054050020340800400F
:102A7C0094050020A405002000B583B0244B9A696E
:102A8C0042F001029A619A6902F001020092009AE6
:102A9C00DA6942F08052DA61DB6903F0805301930A
:102AAC00019B0320FEF76EFA002211466FF00B001B
:102ABC00FEF77AFA002211466FF00A00FEF774FA5C
:102ACC00002211466FF00900FEF76EFA0022114643
:102ADC006FF00400FEF768FA002211466FF0030055
:102AEC00FEF762FA002211466FF00100FEF75CFA65
:102AFC00002211464FF0FF30FEF756FA054A536894
:102B0C0023F0E06343F00073536003B05DF804FB03
:102B1C00001002400000014002680E4B9A4200D0A7
:102B2C00704700B587B003F56C439A6942F40072A4
:102B3C009A619B6903F400730193019B0123029337
:102B4C000323039302A90448FEF724FB07B05DF8A6
:102B5C0004FB00BF002401400008014070B586B0A2
:102B6C000368224A934204D0214A93420CD006B007
:102B7C0070BD204BDA6942F00202DA61DB6903F0C6
:102B8C0002030093009BF2E704461A4BDA6942F009
:102B9C000402DA61DB6903F004030193019B8026D4
:102BAC00029600250395049502A91348FEF7F2FA44
:102BBC001248134B0360102343608560C6604FF4CA
:102BCC00807303614FF480634361202383614FF46E
:102BDC000053C361FEF768FA18B9084B63625C6274
:102BEC00C5E7B3210748FFF7B9FDF6E7000400403D
:102BFC000008004000100240000C0140A405002019
:102C0C0008000240982D000800B585B003680E4AF4
:102C1C00934205D00D4A93420CD005B05DF804FBED
:102C2C004023009302230193039369460848FEF75F
:102C3C00B1FAF2E740230093022301930393694610
:102C4C000448FEF7A7FAE8E700040040000800403B
:102C5C0000080140000C01407047FEE7FEE7FEE76C
:102C6C00FEE770477047704708B5FDF7BBFEFEF7EF
:102C7C0000FA08BD08B50248FFF7F6FC08BD00BF16
:102C8C00A40500200F4B1A6842F001021A60596823
:102C9C000D4A0A405A601A6822F0847222F480327B
:102CAC001A601A6822F480221A605A6822F4FE0212
:102CBC005A604FF41F029A604FF00062034B9A6007
:102CCC00704700BF001002400000FFF800ED00E06C
:102CDC00002103E00B4B5B58435004310A480B4B6B
:102CEC0042189A42F6D30A4A02E0002342F8043B07
:102CFC00084B9A42F9D3FFF7C5FFFDF731FDFFF7FB
:102D0C0071FE7047C02D0008000000203C0400201C
:102D1C003C04002058060020FEE70000F8B500BF78
:102D2C00F8BC08BC9E467047F8B500BFF8BC08BCA0
:042D3C009E467047F8
:102D400002030405060708090A0B0C0D0E0F1010EC
:102D50000102000002030405060708090A0B0C0D16
:102D60000E0F101001020000000000000000000023
:102D70000102030406070809000000000102030421
:102D8000100000203A7474002E2E2F5372632F6DA2
:102D900061696E2E630000002E2E2F5372632F7315
:102DA000746D3332663178785F68616C5F6D737013
:042DB0002E6300008E
:082DB400BD0700083101000811
:042DBC000D010008FD
:102DC000010000001000000000A24A040000000002
:102DD00000000000FC02002064030020CC0300205F
:102DE00000000000000000000000000000000000E3
:102DF00000000000000000000000000000000000D3
:102E000000000000000000000000000000000000C2
:102E100000000000000000000000000000000000B2
:102E200000000000000000000000000000000000A2
:102E30000000000000000000000000000000000092
:102E40000000000000000000000000000000000082
:102E50000000000000000000000000000000000072
:102E60000000000000000000000000000000000062
:102E70000000000000000000010000000000000051
:102E80000E33CDAB34126DE6ECDE05000B00000016
:102E90000000000000000000000000000000000032
:102EA0000000000000000000000000000000000022
:102EB0000000000000000000000000000000000012
:102EC0000000000000000000000000000000000002
:0C31F00000000000000000002C05002082
:0400000508002CDDE6
:00000001FF
