:020000040800F2
:1000000000500020C51C00084D1C00084F1C0008B3
:10001000511C0008531C0008551C0008000000007B
:10002000000000000000000000000000571C000855
:10003000591C0008000000005B1C00085D1C000843
:100040000D1D00080D1D00080D1D00080D1D0008E8
:100050000D1D00080D1D00080D1D0008CD1700081E
:100060000D1D00080D1D00080D1D00080D1D0008C8
:100070000D1D00080D1D00080D1D00080D1D0008B8
:100080000D1D0008691C00080D1D00080D1D00084D
:100090000D1D00080D1D00080D1D00080D1D000898
:1000A0000D1D00080D1D00080D1D00080D1D000888
:1000B0000D1D00080D1D00080D1D00080D1D000878
:1000C0000D1D00080D1D00080D1D00080D1D000868
:1000D0000D1D00080D1D00080D1D00080D1D000858
:1000E0000D1D00080D1D00080D1D0008000000007A
:1000F0000000000000000000000000000000000000
:0C01000000000000000000005FF808F1A3
:10010C0010B5054C237833B9044B13B10448AFF345
:10011C0000800123237010BD1C0000200000000093
:10012C00581D00080C4B43B10C4810B50C49AFF3EB
:10013C0000800C48036823B910BD0A48036833B922
:10014C007047094B002BF7D0BDE810401847064B01
:10015C00002BF5D0184700BF00000000581D000808
:10016C00200000201C0000200000000010B50446F8
:10017C000E4B18784FF47A73B3FBF0F30C4A1068FB
:10018C00B0FBF3F000F0E2F968B90F2C01D90120B3
:10019C0010BD002221464FF0FF3000F08BF9034BCD
:1001AC005C60002010BD012010BD00BF00000020CD
:1001BC001800002008B5074A136843F010031360B9
:1001CC00032000F065F90020FFF7D0FF01F050FC90
:1001DC00002008BD00200240034A1168034B1B7825
:1001EC000B441360704700BF380000200000002053
:1001FC00014B1868704700BF3800002030B482B043
:10020C000023019390F82430012B00F08B800246E0
:10021C00012380F824304B68062B29D80568686BBD
:10022C0003EB8303053B1F249C4020EA04000C686D
:10023C0004FA03F303436B630B68092B38D9156875
:10024C00E86803EB43031E3B07249C4020EA0400B0
:10025C008C6804FA03F30343EB600B68103B012B2F
:10026C0034D90020002382F8243002B030BC70470F
:10027C000C2B0ED80568286B03EB8303233B1F2440
:10028C009C4020EA04000C6804FA03F303432B633C
:10029C00D2E70568E86A03EB8303413B1F249C40CB
:1002AC0020EA04000C6804FA03F30343EB62C3E78F
:1002BC001568286903EB430307249C4020EA0400DB
:1002CC008C6804FA03F303432B61C6E713681648E2
:1002DC00834205D0936A43F0200393620120C1E767
:1002EC00986810F4000F1BD1986840F400009860D7
:1002FC000B68102B01D00020B4E70C4B1B680C4989
:10030C00A1FB03139B0C03EB83035900019102E047
:10031C00019B013B0193019B002BF9D10020A1E72C
:10032C0000209FE70220A0E70024014018000020D5
:10033C0083DE1B4338B503689A6812F0010F01D1B4
:10034C00002038BD04469A6822F001029A60FFF73B
:10035C004FFF054623689B6813F0010F0ED0FFF783
:10036C0047FF401B0228F5D9A36A43F01003A36290
:10037C00E36A43F00103E362012038BD002038BD7D
:10038C0000287FD038B50446836A002B4AD020461B
:10039C00FFF7D0FFA36A13F010036DD100286BD1C7
:1003AC00A26A22F4885222F0020242F00202A262F5
:1003BC006268E1690A43E56842EA4502A168B1F561
:1003CC00807F38D0012933D06169012936D0256866
:1003DC00696821F469410B436B6021688D682A4B75
:1003EC002B4013438B60A368B3F5807F37D0012B70
:1003FC0035D000232568E96A21F470010B43EB62C8
:10040C0023689968214B0B409A422CD0A36A23F0A5
:10041C00120343F01003A362E36A43F00103E362A7
:10042C00012038BDC36280F8243001F071FBAEE7C7
:10043C004FF48073C8E74FF48073C5E735B9A169F1
:10044C00013943EA413343F40063C0E7A16A41F048
:10045C002001A162E16A41F00101E162B7E7236981
:10046C00013B1B05C6E70023E362A36A23F00303E9
:10047C0043F00103A36238BDA36A43F01003A362E7
:10048C00012038BD01207047FDF7E1FFFE0E1FFF74
:10049C00074AD36823F4E0631B041B0C000200F42E
:1004AC00E060184340F0BF6040F40030D06070470B
:1004BC0000ED00E030B4164BDB68C3F30223C3F14C
:1004CC000704042C28BF04241D1D062D17D9033B3B
:1004DC00012505FA04F4013C2140994005FA03F387
:1004EC00013B1340194300280BDB0901C9B200F191
:1004FC00604000F5614080F8001330BC7047002369
:10050C00E6E700F00F000901C9B2024B1954F4E7F9
:10051C0000ED00E014ED00E0420900F01F000123A3
:10052C0003FA00F0014B43F82200704700E100E0B1
:10053C00430900F01F00012202FA00F02033024AA6
:10054C0042F82300704700BF00E100E00138B0F131
:10055C00807F0AD2064B5860F021064A82F823109D
:10056C000020986007221A6070470120704700BF76
:10057C0010E000E000ED00E0042805D0054A136807
:10058C0023F0040313607047024A136843F004031A
:10059C001360704710E000E0704708B5FFF7FCFFF0
:1005AC0008BD0000002830D010B403460068184A7B
:1005BC0002441849A1FB0212120992001A64164A4D
:1005CC00DA63022283F82120016821F47F5121F0A3
:1005DC0030015A689C682243DC6822431C69224320
:1005EC005C6922439C692243DC6922430A43026012
:1005FC0000209862D862186358639863012283F8CC
:10060C00212083F8200010BC70470120704700BFE8
:10061C00F8FFFDBFCDCCCCCC0000024038B5C36B8D
:10062C001A6804682568016C04238B401A4236D082
:10063C0015F0040F33D0236813F0200F03D1236877
:10064C0023F0040323600368434A934214D014320A
:10065C00934219D01432934218D01432934218D0CA
:10066C001432934218D01432934202D04FF080626D
:10067C0003E04FF4800200E00422384B5A60C36A56
:10068C00002B67D0984738BD4022F6E74FF48062C4
:10069C00F3E74FF48042F0E74FF48022EDE70223BA
:1006AC008B401A423BD015F0020F38D0236813F060
:1006BC00200F06D1236823F00A032360012380F85E
:1006CC0021300368244A934214D0143293421BD035
:1006DC00143293421AD0143293421AD014329342E9
:1006EC001AD01432934202D04FF0007203E04FF450
:1006FC00001200E00222194B5A60002380F82030CF
:10070C00836A3BB3984738BD2022F4E74FF400725C
:10071C00F1E74FF40052EEE74FF40032EBE7082319
:10072C0003FA01F10A4215D015F0080F12D0236814
:10073C0023F00E032360C16B026C012303FA02F257
:10074C004A60836380F82130002380F82030036BEB
:10075C0003B1984738BD00BF0800024000000240BA
:10076C00F0B583B00026344671E0002D00F0A18076
:10077C00012D00D1CE68FF2B00F2AF808646FF2BF7
:10078C0000F2AE80A500DEF800200F27AF4022EA71
:10079C00070206FA05F52A43CEF800204A6812F043
:1007AC00805F53D0634A956945F001059561926964
:1007BC0002F001020192019AA508AF1C5E4A52F8A0
:1007CC00272004F00307BF004FF00F0E0EFA07FEB0
:1007DC0022EA0E02DFF870E1704500F088800EF519
:1007EC00806E704500F086800EF5806E704500F0CE
:1007FC0084800EF5806E704576D04FF0040E0EFAA4
:10080C0007F73A4302354C4F47F825204A6812F453
:10081C00803F75D0494D2A681A432A604A6812F401
:10082C00003F73D0454D6A681A436A604A6812F4F7
:10083C00801F71D0414DAA681A43AA604A6812F40D
:10084C00001F6FD03D4DEA681343EB6001340F2C51
:10085C006ED80122A2400B6813409A42F6D14D6823
:10086C00122D30D00BD8022D2AD07FF67EAF032D5F
:10087C002FD0112D7FF47FAFCE6804367BE7304F3D
:10088C00BD4216D00CD92F4FBD4212D007F5803780
:10089C00BD420ED0A7F58017BD427FF46CAF08E0C7
:1008AC00A7F58017BD4204D007F58037BD427FF411
:1008BC0062AF8D687DB1012D08D0426108265AE7E0
:1008CC00CE68083657E7CE680C3654E70261082626
:1008DC0051E700264FE704264DE700F1040E4EE7E2
:1008EC00A4F10805AD004EE74FF0030E87E74FF07B
:1008FC00000E84E74FF0010E81E74FF0020E7EE709
:10090C000E4D2A6822EA03022A6087E70B4D6A68BB
:10091C0022EA03026A6089E7084DAA6822EA030208
:10092C00AA608BE7054DEA6822EA0303EB608DE7CA
:10093C0003B0F0BD00100240000001400004014073
:10094C0000002110000031100008014012B9090408
:10095C0001617047016170477047000008B5054B95
:10096C005B69034200D108BD024B5861FFF7F4FFED
:10097C00F9E700BF0004014082B0084B1B68084A2D
:10098C00A2FB03235B0A00FB03F0019000BF019B59
:10099C005A1E0192002BF9D102B0704718000020AA
:1009AC00D34D621070B582B00446036813F0010F8A
:1009BC003DD0AC4B5B6803F00C03042B2ED0A94B41
:1009CC005B6803F00C03082B23D06368B3F5803FFE
:1009DC0051D0002B55D103F1804303F504331A6831
:1009EC0022F480321A601A6822F480221A6063683A
:1009FC00002B60D0FFF7FCFB05469A4B1B6813F4E9
:100A0C00003F14D1FFF7F4FB401B6428F5D90320F9
:100A1C00AFE1944B5B6813F4803FD6D0914B1B68CD
:100A2C0013F4003F03D06368002B00F09F81236810
:100A3C0013F0020F65D08B4B5B6813F00C0F4ED08C
:100A4C00884B5B6803F00C03082B43D02369002B05
:100A5C0079D00122844B1A60FFF7CAFB0546814B03
:100A6C001B6813F0020F65D1FFF7C2FB401B022875
:100A7C00F5D903207DE17B4A136843F4803313607E
:100A8C00B5E7B3F5A02F09D0764B1A6822F4803263
:100A9C001A601A6822F480221A60A8E703F18043D6
:100AAC00A3F53C331A6842F480221A601A6842F4A7
:100ABC0080321A609BE7FFF79BFB0546694B1B686E
:100ACC0013F4003FB3D0FFF793FB401B6428F5D918
:100ADC0003204EE1634B5B6813F4803FB6D1614B4E
:100AEC001B6813F0020F04D02369012B01D00120E5
:100AFC003FE15C4A136823F0F803616943EAC103E0
:100B0C001360236813F0080F32D0A369002B6ED04A
:100B1C000122564B1A60FFF76BFB0546514B5B6A83
:100B2C0013F0020F21D1FFF763FB401B0228F5D90C
:100B3C0003201EE14B4A136823F0F803616943EA72
:100B4C00C1031360DDE70022474B1A60FFF750FB2F
:100B5C000546444B1B6813F0020FD2D0FFF748FB3D
:100B6C00401B0228F5D9032003E10120FFF704FF05
:100B7C00236813F0040F00F099803A4BDB6913F0F3
:100B8C00805F46D1374BDA6942F08052DA61DB691B
:100B9C0003F080530193019B0125354B1B6813F423
:100BAC00807F38D0E368012B49D0002B4DD103F165
:100BBC00804303F504331A6A22F001021A621A6A9E
:100BCC0022F004021A62E368002B5DD0FFF710FBE1
:100BDC000646244B1B6A13F0020F66D1FFF708FB85
:100BEC00801B41F288339842F3D90320C1E00022E4
:100BFC001E4B1A60FFF7FCFA05461A4B5B6A13F0A2
:100C0C00020FB5D0FFF7F4FA401B0228F5D90320E8
:100C1C00AFE00025C1E7164A136843F480731360F4
:100C2C00FFF7E6FA0646124B1B6813F4807FB9D126
:100C3C00FFF7DEFA801B6428F5D9032099E0094AF6
:100C4C00136A43F001031362BDE7052B12D0054B69
:100C5C001A6A22F001021A621A6A22F004021A625B
:100C6C00B1E700BF00100240000042428004424243
:100C7C0000700040414B1A6A42F004021A621A6A70
:100C8C0042F001021A629EE7FFF7B2FA06463B4BAE
:100C9C001B6A13F0020F08D0FFF7AAFA801B41F26F
:100CAC0088339842F3D9032063E0E5B9E369002B5C
:100CBC005ED0324A526802F00C02082A5BD0022B3A
:100CCC0017D000222E4B1A60FFF792FA04462B4BDA
:100CDC001B6813F0007F47D0FFF78AFA001B02282D
:100CEC00F5D9032045E0254AD36923F08053D3611D
:100CFC00DCE70022224B1A60FFF77AFA05461F4BFD
:100D0C001B6813F0007F06D0FFF772FA401B022815
:100D1C00F5D903202DE0236AB3F5803F1AD017498B
:100D2C004B6823F47413226A606A024313434B60CA
:100D3C000122134B1A60FFF75BFA04460F4B1B683A
:100D4C0013F0007F0ED1FFF753FA001B0228F5D9E0
:100D5C0003200EE0094A536823F40033A1680B43C7
:100D6C005360DCE7002004E0002002E0012000E0FA
:100D7C00002002B070BD0120FBE700BF0010024054
:100D8C006000424210B586B0154C94E80F000DF18E
:100D9C00180E0EE90F00238AADF80430114B5B6876
:100DAC0003F00C02082A18D1C3F38342724412F8E0
:100DBC00102C13F4803F03D10B4800FB02F00DE024
:100DCC00084B5B68C3F34043734413F8143C074867
:100DDC0000FB02F0B0FBF3F000E0044806B010BDDD
:100DEC00701D00080010024000093D0000127A003E
:100DFC00594B1B6803F007038B420CD2564A1368FD
:100E0C0023F007030B431360136803F007039942A5
:100E1C0001D00120704770B5036813F0020F06D0A3
:100E2C004E4A536823F0F0038468234353600D4605
:100E3C000446036813F0010F52D04368012B23D0F2
:100E4C00022B28D0454A126812F0020F00F0828063
:100E5C0042494A6822F0030213434B60FFF7C8F97A
:100E6C0006466368012B1DD0022B2AD03B4B5B68D6
:100E7C0013F00C0F34D0FFF7BBF9801B41F2883311
:100E8C009842F3D9032070BD344A126812F4003F23
:100E9C00DED1012070BD314A126812F0007FD7D12B
:100EAC00012070BD2D4B5B6803F00C03042B17D095
:100EBC00FFF79EF9801B41F288339842F2D9032048
:100ECC0070BD264B5B6803F00C03082B08D0FFF7B2
:100EDC008FF9801B41F288339842F2D9032070BD00
:100EEC001D4B1B6803F007039D420CD21A4A136872
:100EFC0023F007032B431360136803F007039D4291
:100F0C0001D0012070BD236813F0040F06D0134AE2
:100F1C00536823F4E063E1680B435360236813F0D8
:100F2C00080F07D00D4A536823F46053216943EA34
:100F3C00C1035360FFF726FF084B5B68C3F3031331
:100F4C00074AD35CD840074B18600020FFF70EF916
:100F5C00002070BD012070BD002002400010024036
:100F6C00841D000818000020014B1868704700BF52
:100F7C001800002070B582B00446036813F0010F0E
:100F8C0034D03E4BDB6913F0805F48D13B4BDA69C0
:100F9C0042F08052DA61DB6903F080530193019BCC
:100FAC000125374B1B6813F4807F3AD0334B1B6AF7
:100FBC0013F4407311D0626802F4407293420CD067
:100FCC002E4A136A23F440702E4901260E60002627
:100FDC000E60106213F0010F37D1284A136A23F404
:100FEC00407361680B431362002D3FD1236813F0EB
:100FFC00020F06D0214A536823F44043A1680B43E7
:10100C005360236813F0100F35D01C4A536823F437
:10101C008003E1680B435360002002B070BD0025D3
:10102C00BFE7174A136843F480731360FFF7E0F8C7
:10103C000646134B1B6813F4807FB7D1FFF7D8F823
:10104C00801B6428F5D90320E7E7FFF7D1F80646A3
:10105C000A4B1B6A13F0020FBFD1FFF7C9F8801BB4
:10106C0041F288339842F3D90320D6E7D36923F0B1
:10107C008053D361BAE70020CFE700BF00100240D5
:10108C00007000404004424230B4036A23F0010374
:10109C000362036A4468826922F073020D682A4372
:1010AC0023F002038D682B430D4DA84209D00C4D43
:1010BC00A8420DD0446082614A684263036230BC2E
:1010CC00704723F00803CD682B4323F00403EEE7AD
:1010DC0024F440744D692C438D692C43EAE700BF1E
:1010EC00002C014030B4036A23F480730362036A5A
:1010FC004468C26922F073020D682A4323F400731A
:10110C008D6843EA05230F4DA84209D00D4DA84226
:10111C000ED04460C2614A68C263036230BC70473F
:10112C0023F40063CD6843EA052323F48063EDE7E1
:10113C0024F440544D6944EA05148D6944EA0514BD
:10114C00E7E700BF002C014030B4036A23F480535E
:10115C000362036A4468C26922F4E6420D6842EAFB
:10116C00052223F400538D6843EA0533074DA8424A
:10117C0006D04460C2614A680264036230BC7047A6
:10118C0024F480444D6944EA8514F2E7002C0140B4
:10119C0010B4036A046A24F001040462846924F024
:1011AC00F00444EA021223F00A030B438261036247
:1011BC0010BC704710B4036A23F0100303628469F7
:1011CC00036A24F4704444EA023223F0A00343EA95
:1011DC0001138261036210BC7047836823F07003B3
:1011EC0041F007010B438360704710B4846824F40A
:1011FC007F4442EA032319430C43846010BC7047BC
:10120C00022380F83D300268136843F00103136039
:10121C00012380F83D30002070477047704790F8EC
:10122C003C30012B7DD010B50446012380F83C30B6
:10123C00022380F83D300268936823F47F4323F047
:10124C00770393600B68402B57D010D9702B3ED08E
:10125C001FD8502B47D0602B32D1CA684968006820
:10126C00FFF7A8FF60212068FFF7B7FF28E0102BDD
:10127C004DD008D9202B4FD0302B21D130210068F4
:10128C00FFF7ABFF1CE0DBB900210068FFF7A5FFFF
:10129C0016E0B3F5805F0ED0B3F5005F10D1CB68CC
:1012AC004A6889680068FFF7A0FF2268936843F4D6
:1012BC008043936004E00268936823F00703936013
:1012CC00012384F83D30002084F83C0010BDCB682D
:1012DC004A6889680068FFF788FF2268936843F0C2
:1012EC0077039360ECE7CA6849680068FFF750FF22
:1012FC0050212068FFF771FFE2E7CA68496800686F
:10130C00FFF746FF40212068FFF767FFD8E7102161
:10131C000068FFF762FFD3E720210068FFF75DFF4D
:10132C00CEE702207047000003681C4A904227D089
:10133C00B0F1804F24D0A2F59432904220D002F527
:10134C00806290421CD0154A90421ED0B0F1804F62
:10135C001BD0A2F59432904217D002F580629042D5
:10136C0013D023F080034A69134303608B68C36274
:10137C000B688362094B98420CD001234361704780
:10138C0023F070034A681343DDE723F44073CA6803
:10139C001343E6E70B690363EFE700BF002C014042
:1013AC00A8B110B5044690F83D305BB1022384F827
:1013BC003D30211D2068FFF7B7FF012384F83D3035
:1013CC00002010BD80F83C3000F0C4FBEEE701209B
:1013DC007047A8B110B5044690F83D305BB10223BC
:1013EC0084F83D30211D2068FFF79EFF012384F80F
:1013FC003D30002010BD80F83C30FFF70EFFEEE7CB
:10140C0001207047A8B110B5044690F83D305BB18F
:10141C00022384F83D30211D2068FFF785FF01234E
:10142C0084F83D30002010BD80F83C30FFF7F6FE0C
:10143C00EEE701207047000030B4036A23F010037C
:10144C000362036A4468826922F4E6420D6842EA48
:10145C00052223F020038D6843EA05130E4DA842A4
:10146C0009D00D4DA8420ED0446082614A68826357
:10147C00036230BC704723F08003CD6843EA051348
:10148C0023F04003EDE724F440644D6944EA8504FD
:10149C008D6944EA8504E7E7002C014090F83C3064
:1014AC00012B28D010B50446012380F83C300223D0
:1014BC0080F83D300C2A0BD8DFE802F0070A0A0A44
:1014CC00110A0A0A150A0A0A19000068FFF7DCFD5E
:1014DC00012384F83D30002084F83C0010BD0068E6
:1014EC00FFF7AAFFF4E70068FFF7FCFDF0E70068E0
:1014FC00FFF72AFEECE70220704738B590F83C3035
:10150C00012B66D00D460446012380F83C300223A3
:10151C0080F83D300C2A1AD8DFE802F007191919A7
:10152C00201919193419191947000068FFF7ACFD77
:10153C002268936943F0080393612268936923F04E
:10154C00040393612268936929690B439361012316
:10155C0084F83D30002084F83C0038BD0068FFF76B
:10156C006BFF2268936943F400639361226893696B
:10157C0023F48063936122689369296943EA012308
:10158C009361E4E70068FFF7ADFD2268D36943F08F
:10159C000803D3612268D36923F00403D361226862
:1015AC00D36929690B43D361D1E70068FFF7CCFD00
:1015BC002268D36943F40063D3612268D36923F4AE
:1015CC008063D3612268D369296943EA0123D3611B
:1015DC00BDE7022038BD10B4012303FA01F4036AFD
:1015EC0023EA04030362036A8A401343036210BCB8
:1015FC007047000010B5044601220068FFF7EBFFAE
:10160C002368074A934206D02268136843F001030B
:10161C001360002010BD5A6C42F400425A64F3E788
:10162C00002C014010B5044601220068FFF7D3FFDF
:10163C002368074A934206D02268136843F00103DB
:10164C001360002010BD5A6C42F400425A64F3E758
:10165C00002C014090F83C30012B22D030B40122F8
:10166C0080F83C20022380F83D300468636823F046
:10167C0070036360046863680D682B4363600468DF
:10168C00A36823F08003A3600468A36849680B4334
:10169C00A36080F83D20002380F83C30184630BC15
:1016AC007047022070470000F0B587B0204B9A6954
:1016BC0042F004029A619A6902F004020092009AC4
:1016CC009A6942F008029A619B6903F0080301933E
:1016DC00019B184D012208212846FFF737F980237A
:1016EC00029301260396002404940227059702A96D
:1016FC001148FFF735F80297104B0393049402A995
:10170C002846FFF72DF8082302930396049403232D
:10171C00059302A92846FFF723F822462146072005
:10172C00FEF7C8FE0720FEF7F7FE07B0F0BD00BFBE
:10173C0000100240000C0140000801400000111094
:10174C0000B583B00A4B5A6942F001025A615B69D9
:10175C0003F001030193019B002211461120FEF7B7
:10176C00A9FE1120FEF7D8FE03B05DF804FB00BF04
:10177C000010024010B50E4B1B680E4A9A600E4AC0
:10178C00DA6004225A600D4C22680D219164D168F4
:10179C0041F44071D1601A6842F001021A6020468F
:1017AC00FFF72EFD00212046FFF724FF10BD00BFE0
:1017BC00EC0000204C080040080000203C000020F9
:1017CC0008B5074B5B6913F0020F06D10220FFF737
:1017DC00C5F80720FEF7ACFE08BDFFF7CBFFF5E719
:1017EC0000040140FEE7000000B58FB02548264BF1
:1017FC00036040F6C3134360002383606422C2601D
:10180C0003618361FFF7CCFD30BB0EA94FF480530D
:10181C0041F8103D1B48FFF702FD08BB1948FFF7C4
:10182C00F1FD08BB00230893099308A91548FFF79D
:10183C0011FFE8B9602301933A230293002203922B
:10184C00059201A90F48FFF758FEB0B90D4800F0FA
:10185C00CFF90FB05DF804FBF3210C48FFF7C2FF82
:10186C00F9210A48FFF7BEFFFE210848FFF7BAFF2F
:10187C0040F205110548FFF7B5FF4FF48771034897
:10188C00FFF7B0FF7C000020000400409C1D000806
:10189C0000B58FB02848294B0360312343600023E7
:1018AC0083604FF47A72C260036180238361FFF717
:1018BC0077FD38BB0EA94FF4805341F8103D1E48FC
:1018CC00FFF7ADFC18BB1C48FFF783FD20BB402382
:1018DC0008930023099308A91748FFF7BBFE00BB28
:1018EC00302301930022029202230393059201A953
:1018FC001148FFF7D3FDC8B90F4800F079F90FB0C4
:10190C005DF804FB40F225110D48FFF76BFF40F228
:10191C002B110B48FFF766FF4FF498710848FFF73F
:10192C0061FF40F237110648FFF75CFF4FF4A071DE
:10193C000348FFF757FF00BF3C00002000080040A1
:10194C009C1D000800B585B01248134B03600023A2
:10195C0083600122C26043614FF46021C161436026
:10196C000261FEF70DFD60B9002301930122029282
:10197C00039301A90748FEF741FC30B905B05DF8A7
:10198C0004FBD4210548FFF72DFFDE210348FFF7A8
:10199C0029FF00BFBC000020002401409C1D000852
:1019AC0000B595B002230A9301230E9310230F93D5
:1019BC00002311930AA8FEF7F5FF48BB0F230593EC
:1019CC0000210691A02307934FF4C0630893099359
:1019DC0005A8FFF70DFAF8B902230193002303932E
:1019EC0001A8FFF7C7FAD8B9FFF7BEFA0E4BA3FB55
:1019FC0000308009FEF7AAFD0420FEF7BDFD002291
:101A0C0011464FF0FF30FEF755FD15B05DF804FBA5
:101A1C009F210648FFF7E6FEAD210448FFF7E2FEE2
:101A2C00B4210248FFF7DEFED34D62109C1D000866
:101A3C0000B583B0FEF7BEFBFFF7B2FFFFF734FE35
:101A4C00FFF77EFEFFF7D0FEFFF722FFFFF77AFFCE
:101A5C00064C2046FFF7D4FB00212046FFF7E2FDA1
:101A6C0000230193019B01330193F9E77C000020D3
:101A7C0000B583B0244B9A6942F001029A619A69CD
:101A8C0002F001020092009ADA6942F08052DA61A7
:101A9C00DB6903F080530193019B0320FEF7F8FCF4
:101AAC00002211466FF00B00FEF704FD00221146D8
:101ABC006FF00A00FEF7FEFC002211466FF00900E1
:101ACC00FEF7F8FC002211466FF00400FEF7F2FC62
:101ADC00002211466FF00300FEF7ECFC00221146C9
:101AEC006FF00100FEF7E6FC002211464FF0FF30CC
:101AFC00FEF7E0FC054A536823F0E06343F0007303
:101B0C00536003B05DF804FB00100240000001407C
:101B1C0002680E4B9A4200D0704700B587B003F5AF
:101B2C006C439A6942F400729A619B6903F40073E6
:101B3C000193019B012302930323039302A90448FD
:101B4C00FEF70EFE07B05DF804FB00BF0024014059
:101B5C000008014010B582B003681F4A934204D0BC
:101B6C001E4A93420CD002B010BD1D4BDA6942F0F4
:101B7C000202DA61DB6903F002030093009BF2E7D7
:101B8C000446174BDA6942F00402DA61DB6903F0B0
:101B9C0004030193019B1348134B03601023436010
:101BAC00002383608023C3604FF4807303614FF480
:101BBC0080634361202383614FF40053C361FEF7BC
:101BCC00F1FC18B9074B23625C62CCE7AA210748E9
:101BDC00FFF708FEF6E700BF0004004000080040D5
:101BEC0000100240EC00002080000240AC1D0008F8
:101BFC0000B585B003680E4A934205D00D4A934256
:101C0C000CD005B05DF804FB402300930223019334
:101C1C00039369460848FEF7A3FDF2E740230093BF
:101C2C0002230193039369460448FEF799FDE8E704
:101C3C00000400400008004000080140000C014076
:101C4C007047FEE7FEE7FEE7FEE770477047704718
:101C5C0008B5FEF7C1FAFEF7A0FC08BD08B50248AE
:101C6C00FEF7DCFC08BD00BFEC0000200F4B1A682F
:101C7C0042F001021A6059680D4A0A405A601A680B
:101C8C0022F0847222F480321A601A6822F48022C4
:101C9C001A605A6822F4FE025A604FF41F029A60CE
:101CAC004FF00062034B9A60704700BF0010024077
:101CBC000000FFF800ED00E0002103E00B4B5B5847
:101CCC00435004310A480B4B42189A42F6D30A4A45
:101CDC0002E0002342F8043B084B9A42F9D3FFF789
:101CEC00C5FF00F00FF8FFF7A3FE7047D01D0008EA
:101CFC00000000201C0000201C00002030010020EF
:101D0C00FEE7000070B500250C4E0D4CA41BA41072
:101D1C00A54209D100F01AF800250A4E0A4CA41B62
:101D2C00A410A54205D170BD56F825309847013551
:101D3C00EEE756F8253098470135F2E7C81D000844
:101D4C00C81D0008C81D0008CC1D0008F8B500BF50
:101D5C00F8BC08BC9E467047F8B500BFF8BC08BC80
:041D6C009E467047D8
:101D700002030405060708090A0B0C0D0E0F1010CC
:101D80000102000000000000000000000102030446
:101D90000607080900000000010203042E2E2F533D
:101DA00072632F6D61696E2E630000002E2E2F531B
:101DB00072632F73746D3332663178785F68616C4B
:081DC0005F6D73702E630000DB
:041DC80031010008DD
:041DCC000D010008FD
:101DD0000100000010000000000190010003180342
:0C1DE000001030010000000000A24A04C6
:0400000508001CC50E
:00000001FF
