:020000040800F2
:1000000000500020411D0008B91C0008BD1C00085C
:10001000C11C0008C51C0008C91C00080000000025
:10002000000000000000000000000000CD1C0008DF
:10003000D11C000800000000D51C0008D91C0008D5
:10004000891D0008891D0008891D0008891D0008F8
:10005000891D0008891D0008891D0008E117000896
:10006000891D0008891D0008891D0008E51C00087D
:10007000891D0008891D0008891D0008891D0008C8
:10008000891D0008891D0008891D0008891D0008B8
:10009000891D0008891D0008891D0008891D0008A8
:1000A000891D0008891D0008891D0008891D000898
:1000B000891D0008891D0008891D0008891D000888
:1000C000891D0008891D0008891D0008891D000878
:1000D000891D0008891D0008891D0008891D000868
:1000E000891D0008891D0008891D00080000000006
:1000F0000000000000000000000000000000000000
:0C01000000000000000000005FF808F1A3
:10010C0010B5054C237833B9044B13B10448AFF345
:10011C0000800123237010BD1C0000200000000093
:10012C00D81D0008084B10B51BB108490848AFF39F
:10013C0000800848036803B910BD074B002BFBD0A7
:10014C00BDE81040184700BF000000002000002050
:10015C00D81D00081C0000200000000010B504464B
:10016C000E4B18784FF47A73B3FBF0F30C4A10680B
:10017C00B0FBF3F000F0E2F958B90F2C0BD80022C9
:10018C0021464FF0FF3000F08DF9044B5C600020ED
:10019C0010BD012010BD012010BD00BF00000020CB
:1001AC001800002008B5074A136843F010031360C9
:1001BC00032000F065F90020FFF7D0FF01F092FC5E
:1001CC00002008BD00200240034A13680349097847
:1001DC000B441360704700BF40000020000000205B
:1001EC00014B1868704700BF4000002070B483B00A
:1001FC000023019390F82430012B00F08880012318
:10020C0080F824304B68062B0ED80668756B03EB10
:10021C008303053B1F249C4025EA04040A6802FA68
:10022C0003F3234373631EE00C2B0ED805682A6B73
:10023C0003EB8303233B1F249C4022EA04040A683B
:10024C0002FA03F323432B630DE00568EA6A03EB20
:10025C008303413B1F249C4022EA04040A6802FAEF
:10026C0003F32343EB620B68092B0ED90668F56880
:10027C0003EB43031E3B07249C4025EA04048A68D5
:10028C0002FA03F32343F3600CE00668356903EBD1
:10029C00430307249C4025EA04048A6802FA03F30A
:1002AC00234333610B68103B012B26D803681A4A91
:1002BC0093421CD19A6812F4000F20D19A6842F430
:1002CC0000029A600B68102B1BD1144B1B68144A4C
:1002DC00A2FB03239B0C03EB83035A00019202E065
:1002EC00019B013B0193019B002BF9D10AE0836A2E
:1002FC0043F020038362012304E0002302E0002387
:10030C0000E00023002280F82420184600E00220A0
:10031C0003B070BC704700BF0024014018000020DF
:10032C0083DE1B4338B503689A6812F0010F1ED0A8
:10033C0004469A6822F001029A60FFF751FF0546C5
:10034C000EE0FFF74DFF401B022809D9A36A43F0CA
:10035C001003A362E36A43F00103E362012038BD9A
:10036C0023689B6813F0010FEBD1002038BD0020EF
:10037C0038BD00BF00287DD038B50446836A23B948
:10038C00C36280F8243001F0FDFB2046FFF7CAFF62
:10039C00A36A13F0100F67D1002865D1A36A23F468
:1003AC00885323F0020343F00203A3626268E369FB
:1003BC001343E16843EA4103A268B2F5807F04D09D
:1003CC00012A05D14FF4807503E04FF4807500E0ED
:1003DC0000256269012A0FD131B9A269013A45EAB7
:1003EC00423242F4006507E0A26A42F02002A262A7
:1003FC00E26A42F00102E26221684A6822F4694230
:10040C002A434A6021688D681B4A2A401A438A6035
:10041C00A268B2F5807F01D0012A03D12269013A8A
:10042C00110500E000212568EA6A22F470020A43F3
:10043C00EA6222689168114A0A40934208D100236B
:10044C00E362A36A23F0030343F00103A36238BD04
:10045C00A36A23F0120343F01003A362E36A43F090
:10046C000103E362012038BDA36A43F01003A362C9
:10047C00012038BD01207047FDF7E1FFFE0E1FFF84
:10048C00074AD36823F4E0631B041B0C000200F43E
:10049C00E060184340F0BF6040F40030D06070471B
:1004AC0000ED00E030B4164BDB68C3F30223C3F15C
:1004BC000704042C28BF04241D1D062D01D9DD1EA4
:1004CC0000E00025012303FA04F4013C2140A9407B
:1004DC00AB40013B1A400A43002806DA00F00F003B
:1004EC001201D2B2074B1A5407E01201D2B200F13A
:1004FC00604000F5614080F8002330BC704700BFBD
:10050C0000ED00E014ED00E0420900F01F000123B3
:10051C0003FA00F0014B43F82200704700E100E0C1
:10052C00430900F01F00012202FA00F02033024AB6
:10053C0042F82300704700BF00E100E00138B0F141
:10054C00807F0AD2064B5860F021064A82F82310AD
:10055C000020986007221A6070470120704700BF86
:10056C0010E000E000ED00E0042805D1054A136816
:10057C0043F0040313607047024A136823F004032A
:10058C001360704710E000E0704700BF08B5FFF73C
:10059C00FBFF08BD00282FD010B403460068184A92
:1005AC0002441849A1FB0212120992001A64164A5D
:1005BC00DA63022283F82120026822F47F5121F0B1
:1005CC0030015C689A681443DA6814431A6914435E
:1005DC005A6914439A691443DA6922430A43026044
:1005EC0000209862D862186358639863012283F8DC
:1005FC00212083F8200001E00120704710BC7047D7
:10060C00F8FFFDBFCDCCCCCC0000024038B5C36B9D
:10061C001A6804682568016C04238B401A4236D092
:10062C0015F0040F33D0236813F0200F03D1236887
:10063C0023F0040323600368434A934211D014321D
:10064C00934210D0143293420FD0143293420FD0F5
:10065C00143293420FD0143293420FD14FF48002D4
:10066C000EE004220CE040220AE04FF4806207E026
:10067C004FF4804204E04FF4802201E04FF080629E
:10068C00324B5A60C36A002B5CD0984738BD0223AA
:10069C008B401A423BD015F0020F38D0236813F070
:1006AC00200F06D1236823F00A032360012380F86E
:1006BC0021300368244A934211D01432934210D053
:1006CC00143293420FD0143293420FD0143293420F
:1006DC000FD0143293420FD14FF400120EE00222CD
:1006EC000CE020220AE04FF4007207E04FF40052B5
:1006FC0004E04FF4003201E04FF00072134B5A60EB
:10070C00002380F82030836AE3B1984738BD082372
:10071C0003FA01F10A4215D015F0080F12D0236824
:10072C0023F00E032360C16B026C012303FA02F267
:10073C004A60836380F82130002380F82030036BFB
:10074C0003B1984738BD00BF0800024000000240CA
:10075C00F0B583B000263446D5E00122A2400B68E8
:10076C0013409A4240F0CE804D68122D2DD00BD8FC
:10077C00022D27D003D85DB3012D1ED035E0032DFB
:10078C0030D0112D1BD030E0614FBD4220D008D8A5
:10079C00A7F58017BD421BD007F58037BD4224D189
:1007AC0016E05C4FBD4213D007F58037BD420FD029
:1007BC00A7F58017BD4218D10AE0CE6815E0CE68C7
:1007CC00043612E0CE6808360FE0CE680C360CE02A
:1007DC008D684DB1012D02D10261082605E0426100
:1007EC00082602E0002600E00426FF2B01D88646EE
:1007FC0001E000F1040EFF2B01D8A20002E0A4F1ED
:10080C0008029200DEF800700F25954027EA0505D6
:10081C0006FA02F22A43CEF800204A6812F0805FF2
:10082C0070D03D4A956945F001059561926902F0D9
:10083C0001020192019AA708BD1C384A52F82550B2
:10084C0004F0030292004FF00F0E0EFA02FE25EA9E
:10085C000E0E334DA8420DD005F58065A8420BD085
:10086C0005F58065A84209D005F58065A84207D139
:10087C00032506E0002504E0012502E0022500E046
:10088C00042505FA02F24EEA02020237234D45F81E
:10089C0027204A6812F4803F05D005F580652A6848
:1008AC001A432A6004E01F4D2A6822EA03022A60D8
:1008BC004A6812F4003F04D01A4D6A681A436A6001
:1008CC0004E0184D6A6822EA03026A604A6812F46E
:1008DC00801F04D0134DAA681A43AA6004E0114D7E
:1008EC00AA6822EA0302AA604A6812F4001F04D024
:1008FC000C4DEA681343EB6004E00A4DEA6822EA07
:10090C000303EB6001340F2C7FF627AF03B0F0BD6F
:10091C0000002110000031100010024000000140C6
:10092C0000080140000401400AB10161704709044C
:10093C0001617047704700BF08B5044B5B69034207
:10094C0003D0024B5861FFF7F5FF08BD00040140CE
:10095C0082B0084B1B68084AA2FB03235B0A00FB0E
:10096C0003F0019000BF019B5A1E0192002BF9D19C
:10097C0002B0704718000020D34D621070B582B0E1
:10098C000446036813F0010F6BD0A84B5B6803F0AF
:10099C000C03042B0AD0A54B5B6803F00C03082B4B
:1009AC000DD1A24B5B6813F4803F08D09F4B1B68A2
:1009BC0013F4003F55D06368002B52D1B8E1636843
:1009CC00B3F5803F05D1994A136843F48033136023
:1009DC0026E063B903F1804303F504331A6822F46B
:1009EC0080321A601A6822F480221A6018E0B3F57B
:1009FC00A02F0CD103F18043A3F53C331A6842F4C9
:100A0C0080221A601A6842F480321A6008E0874B20
:100A1C001A6822F480321A601A6822F480221A6052
:100A2C0063687BB1FFF7DCFB054605E0FFF7D8FBFD
:100A3C00401B642800F27E817C4B1B6813F4003F42
:100A4C00F4D00EE0FFF7CCFB054605E0FFF7C8FB42
:100A5C00401B642800F27081744B1B6813F4003F38
:100A6C00F4D1236813F0020F50D0704B5B6813F075
:100A7C000C0F0AD06D4B5B6803F00C03082B16D1DE
:100A8C006A4B5B6813F4803F11D1684B1B6813F001
:100A9C00020F03D02369012B40F05081634A136885
:100AAC0023F0F803616943EAC10313602EE0236964
:100ABC00D3B101225E4B1A60FFF792FB054605E0AD
:100ACC00FFF78EFB401B022800F23A81574B1B6844
:100ADC0013F0020FF4D0554A136823F0F803616940
:100AEC0043EAC103136011E00022514B1A60FFF777
:100AFC0077FB054605E0FFF773FB401B022800F26D
:100B0C0021814A4B1B6813F0020FF4D1236813F0B8
:100B1C00080F29D0A369ABB10122464B1A60FFF72D
:100B2C005FFB054605E0FFF75BFB401B022800F26C
:100B3C000B813E4B5B6A13F0020FF4D00120FFF7E0
:100B4C0007FF11E000223B4B1A60FFF749FB0546FB
:100B5C0005E0FFF745FB401B022800F2F780334B02
:100B6C005B6A13F0020FF4D1236813F0040F00F04A
:100B7C0089802E4BDB6913F0805F0BD12B4BDA692C
:100B8C0042F08052DA61DB6903F080530193019BE0
:100B9C00012500E00025284B1B6813F4807F13D13E
:100BAC00254A136843F480731360FFF719FB06465C
:100BBC0005E0FFF715FB801B642800F2C9801E4B73
:100BCC001B6813F4807FF4D0E368012B05D1174A1E
:100BDC00136A43F00103136222E063B903F180430B
:100BEC0003F504331A6A22F001021A621A6A22F01F
:100BFC0004021A6214E0052B09D10C4B1A6A42F05C
:100C0C0004021A621A6A42F001021A6208E0074BE7
:100C1C001A6A22F001021A621A6A22F004021A629B
:100C2C00E368CBB1FFF7DCFA06460FE00010024098
:100C3C00000042428004424200700040FFF7D0FAAC
:100C4C00801B41F28833984200F28480494B1B6A26
:100C5C0013F0020FF2D00FE0FFF7C2FA064606E0DF
:100C6C00FFF7BEFA801B41F28833984274D8414B8F
:100C7C001B6A13F0020FF3D125B13E4AD36923F05E
:100C8C008053D361E369002B68D03A4A526802F072
:100C9C000C02082A64D0022B37D10022364B1A6082
:100CAC00FFF79EFA054604E0FFF79AFA401B02286C
:100CBC0058D8304B1B6813F0007FF5D1236AB3F57D
:100CCC00803F06D12B494B6823F40032A3681343B1
:100CDC004B602848436823F47411236A626A1343F7
:100CEC000B4343600122244B1A60FFF779FA044648
:100CFC0004E0FFF775FA001B022835D81D4B1B6862
:100D0C0013F0007FF5D0002031E000221A4B1A605E
:100D1C00FFF766FA044604E0FFF762FA001B0228AC
:100D2C0024D8144B1B6813F0007FF5D100201EE073
:100D3C0001201CE003201AE0032018E0012016E03B
:100D4C00032014E0032012E0032010E003200EE047
:100D5C0003200CE003200AE0032008E0002006E05A
:100D6C00012004E0032002E0032000E0032002B095
:100D7C0070BD00BF001002406000424230B486B02B
:100D8C00164D02AC28686968AA68EB680FC42B8AF8
:100D9C00ADF80430124B5B6803F00C02082A19D131
:100DAC00C3F3834206A90A4412F8100C13F4803FD3
:100DBC000CD00B4B5B68C3F340430B4413F8142C5F
:100DCC00084B03FB00F0B0FBF2F004E0064B03FB16
:100DDC0000F000E0034806B030BC7047F01D00087E
:100DEC000010024000127A0000093D0070B55C4B07
:100DFC001B6803F007038B420BD2594A136823F08C
:100E0C0007030B431360136803F00703994240F088
:100E1C009780036813F0020F06D0524C636823F0DE
:100E2C00F0028368134363600D460446036813F0B5
:100E3C00010F4DD04268012A05D14A4B1B6813F4AF
:100E4C00003F0DD17EE0022A05D1464B1B6813F002
:100E5C00007F05D178E0434B1B6813F0020F75D06F
:100E6C0040494B6823F0030313434B60FFF7B8F979
:100E7C0006466368012B0ED106E0FFF7B1F9801B23
:100E8C0041F28833984263D8364B5B6803F00C030D
:100E9C00042BF2D11CE0022B15D106E0FFF7A0F9D0
:100EAC00801B41F28833984254D82E4B5B6803F078
:100EBC000C03082BF2D10BE0FFF792F9801B41F2E7
:100ECC008833984248D8274B5B6813F00C0FF3D14A
:100EDC00234B1B6803F007039D420AD2204A136878
:100EEC0023F007032B431360136803F007039D42A1
:100EFC0034D1236813F0040F06D01A494B6823F43D
:100F0C00E062E36813434B60236813F0080F07D0CB
:100F1C00144A536823F46053216943EAC1035360B4
:100F2C00FFF72CFF0F4B5B68C3F303130E4AD35C24
:100F3C00D8400E4B18600020FFF710F9002070BD50
:100F4C00012070BD012070BD012070BD012070BD5D
:100F5C00032070BD032070BD032070BD012070BD47
:100F6C000020024000100240041E0008180000205F
:100F7C00014B1868704700BF1800002070B582B094
:100F8C000446036813F0010F5CD03E4BDB6913F091
:100F9C00805F0BD13B4BDA6942F08052DA61DB693E
:100FAC0003F080530193019B012600E00026364B91
:100FBC001B6813F4807F12D1334A136843F4807397
:100FCC001360FFF70DF9054604E0FFF709F9401B24
:100FDC0064284FD82C4B1B6813F4807FF5D0294B19
:100FEC001B6A13F4407321D0626802F4407293427E
:100FFC001CD0244A136A23F44070244901250D6047
:10100C0000250D60106213F0010F0FD0FFF7E8F808
:10101C00054606E0FFF7E4F8401B41F2883398429E
:10102C002AD8184B1B6A13F0020FF3D015490B6A20
:10103C0023F44072636813430B621EB1CB6923F037
:10104C008053CB61236813F0020F06D00D494B6817
:10105C0023F44042A36813434B60236813F0100F32
:10106C000CD008494B6823F48002E36813434B60AF
:10107C00002004E0032002E0032000E0002002B086
:10108C0070BD00BF0010024000700040400442429E
:10109C0070B4036A23F001030362036A4668826931
:1010AC0022F073020C6842EA040523F002028B68FA
:1010BC0013430C4CA04205D123F00803CA68134318
:1010CC0023F00403074CA04205D126F440764A696C
:1010DC0032438E691643466085614A6842630362F7
:1010EC0070BC7047002C014030B4036A23F4807349
:1010FC000362036A4568C26922F073020C682243DA
:10110C0023F400738C6843EA04230E4CA04206D1EE
:10111C0023F40063CC6843EA042323F48063094C72
:10112C00A04207D125F440554C6945EA04158C6959
:10113C0045EA04154560C2614A68C263036230BC6B
:10114C00704700BF002C014030B4036A23F4805375
:10115C000362036A4468C26922F4E6420D6842EAFB
:10116C00052223F400538D6843EA0533074DA8424A
:10117C0004D124F480444D6944EA85144460C2616E
:10118C004A680264036230BC704700BF002C014007
:10119C0010B4036A046A24F001040462846924F024
:1011AC00F00444EA021223F00A031943826101623B
:1011BC0010BC704710B4036A23F0100303628469F7
:1011CC00036A24F4704444EA023223F0A00343EA95
:1011DC0001118261016210BC704700BF836823F06B
:1011EC00700341F007010B438360704710B48468AF
:1011FC0024F47F4442EA0323194344EA0103836045
:10120C0010BC7047022380F83D300268136843F02D
:10121C0001031360012380F83D300020704700BFAC
:10122C00704700BF704700BF90F83C30012B00F0B6
:10123C00838010B50446012380F83C30022380F8EB
:10124C003D300268936823F47F4323F07703936067
:10125C000B68402B4CD00AD8102B58D002D8002B3E
:10126C0050D062E0202B57D0302B5AD05DE0702B41
:10127C0012D004D8502B27D0602B2FD055E0B3F5CB
:10128C00805F03D0B3F5005F12D04EE00268936824
:10129C0023F00703936048E0CB684A6889680068CC
:1012AC00FFF7A4FF2268936843F0770393603CE058
:1012BC00CB684A6889680068FFF798FF22689368D2
:1012CC0043F48043936030E0CA6849680068FFF7D4
:1012DC005FFF50212068FFF781FF26E0CA6849684C
:1012EC000068FFF767FF60212068FFF777FF1CE0BD
:1012FC00CA6849680068FFF74BFF40212068FFF778
:10130C006DFF12E000210068FFF768FF0DE010216F
:10131C000068FFF763FF08E020210068FFF75EFF1D
:10132C0003E030210068FFF759FF012384F83D30BA
:10133C00002084F83C0010BD0220704703681A4A54
:10134C0090420AD0B0F1804F07D0A2F5943290426F
:10135C0003D002F58062904203D123F070034A68F7
:10136C001343114A90420AD0B0F1804F07D0A2F536
:10137C009432904203D002F58062904203D123F460
:10138C004073CA68134323F080034A691343036014
:10139C008B68C3620B688362034B984201D10B6963
:1013AC000363012343617047002C0140B8B110B5B1
:1013BC00044690F83D3013F0FF0F04D1002380F861
:1013CC003C3000F001FC022384F83D30211D2068E4
:1013DC00FFF7B4FF012384F83D30002010BD01203D
:1013EC00704700BFB8B110B5044690F83D3013F00B
:1013FC00FF0F04D1002380F83C30FFF711FF0223CC
:10140C0084F83D30211D2068FFF798FF012384F8F4
:10141C003D30002010BD0120704700BFB8B110B5A1
:10142C00044690F83D3013F0FF0F04D1002380F8F0
:10143C003C30FFF7F7FE022384F83D30211D206875
:10144C00FFF77CFF012384F83D30002010BD012004
:10145C00704700BF30B4036A23F010030362036AC1
:10146C004468826922F4E6420D6842EA052223F0C0
:10147C0020038D6843EA05130D4DA84206D123F0D5
:10148C008003CD6843EA051323F04003084DA842BE
:10149C0007D124F440644D6944EA85048D6944EA1B
:1014AC008504446082614A688263036230BC704781
:1014BC00002C014090F83C30012B28D010B504468C
:1014CC00012380F83C30022380F83D300C2A17D8D9
:1014DC00DFE802F0071616160B1616160F16161660
:1014EC0013000068FFF7D4FD0AE00068FFF7B2FFB5
:1014FC0006E00068FFF7F8FD02E00068FFF724FE45
:10150C00012384F83D30002084F83C0010BD0220FB
:10151C00704700BF38B590F83C30012B66D00D46B3
:10152C000446012380F83C30022380F83D300C2A1D
:10153C0055D8DFE802F0075454541A5454542E541E
:10154C00545441000068FFF7A3FD2268936943F0EF
:10155C00080393612268936923F004039361226862
:10156C0091692B690B43936139E00068FFF772FFB7
:10157C002268936943F4006393612268936923F4AE
:10158C008063936122689369296943EA012393611B
:10159C0025E00068FFF7A8FD2268D36943F0080333
:1015AC00D3612268D36923F00403D3612268D16923
:1015BC002B690B43D36112E00068FFF7C5FD22686D
:1015CC00D36943F40063D3612268D36923F4806345
:1015DC00D3612268D369296943EA0123D3610123CA
:1015EC0084F83D30002084F83C0038BD022038BD22
:1015FC0010B4012303FA01F4036A23EA040303621F
:10160C00036A8A401A43026210BC704710B5044644
:10161C0001220068FFF7ECFF2368074A934203D1CD
:10162C005A6C42F400425A642268136843F0010376
:10163C001360002010BD00BF002C014010B5044603
:10164C0001220068FFF7D4FF2368074A934203D1B5
:10165C005A6C42F400425A642268136843F0010346
:10166C001360002010BD00BF002C014090F83C30EE
:10167C00012B21D030B4012280F83C20022380F8C9
:10168C003D300468636823F0700363600468656828
:10169C000B682B4363600468A36823F08003A3608A
:1016AC000468A5684B682B43A36080F83D20002399
:1016BC0080F83C30184601E00220704730BC70477F
:1016CC00094B1B68094A9A60094ADA6004225A607D
:1016DC00084A1168CA6842F48442CA601A6842F027
:1016EC0001021A60704700BFF4000020340800406B
:1016FC0008000020440000202DE9F04186B0244B66
:10170C009A6942F004029A619A6902F0040200920A
:10171C00009A9A6942F008029A619B6903F00803E7
:10172C000193019BDFF87480002280214046FFF773
:10173C00FBF8184D012208212846FFF7F5F8802305
:10174C00029301260396002404940227059702A90C
:10175C004046FEF7FDFF02970F4B0393049402A93A
:10176C002846FEF7F5FF08230293039604940323FF
:10177C00059302A92846FEF7EBFF224621460720D7
:10178C00FEF790FE0720FEF7BFFE06B0BDE8F08125
:10179C0000100240000C0140000011100008014034
:1017AC0000B583B00A4B5A6942F001025A615B6979
:1017BC0003F001030193019B002211460B20FEF75D
:1017CC0071FE0B20FEF7A0FE03B05DF804FB00BF1A
:1017DC000010024010B5104B5B6913F0020F13D0D0
:1017EC0001220E4B1A6080210D48FFF79DF80D4C1D
:1017FC002268536943F04203536100212046FFF7EE
:10180C0005FF2046FFF7FEFC0220FFF795F80720A6
:10181C00FEF786FE10BD00BF00040140380000201A
:10182C000008014044000020FEE700BF00B58FB067
:10183C002648274B036031234360002383606422D6
:10184C00C26003618361FFF7B1FD18B1FA21214831
:10185C00FFF7EAFF0EA94FF4805341F8103D1B48E7
:10186C00FFF7E2FC20B14FF480711A48FFF7DCFF60
:10187C001648FFF7D3FD20B140F205111548FFF7CC
:10188C00D3FF00230893099308A91048FFF7EEFE35
:10189C0020B14FF486710F48FFF7C6FF6023019308
:1018AC003A23029300220392059201A90748FFF7FD
:1018BC0031FE20B140F215110648FFF7B5FF034881
:1018CC0000F0CCF90FB05DF804FB00BF84000020E1
:1018DC00000400401C1E000800B58FB02748284BA0
:1018EC00036031234360002383606422C260036180
:1018FC0080238361FFF75AFD20B14FF49671214884
:10190C00FFF792FF0EA94FF4805341F8103D1B488E
:10191C00FFF78AFC20B14FF499711A48FFF784FF46
:10192C001648FFF75FFD20B140F237111548FFF75D
:10193C007BFF402308930023099308A90F48FFF766
:10194C0095FE20B14FF49F710E48FFF76DFF3023C9
:10195C000193002202920392059201A90748FFF716
:10196C00A9FD20B140F247110648FFF75DFF03487F
:10197C0000F074F90FB05DF804FB00BF44000020C8
:10198C00000800401C1E000800B585B01248134B1F
:10199C000360002383600122C26043614FF4602125
:1019AC00C16143600261FEF7E5FC18B1DB210C4814
:1019BC00FFF73AFF0023019301220292039301A93E
:1019CC000548FEF713FC18B1E5210548FFF72CFF7D
:1019DC0005B05DF804FB00BFC400002000240140EA
:1019EC001C1E000800B595B002230A9301230E9328
:1019FC0010230F93002311930AA8FEF7BFFF18B111
:101A0C00A6211A48FFF710FF0F230593002106911A
:101A1C00A02307934FF4C0630893099305A8FFF71D
:101A2C00E5F918B1B4211148FFF7FEFE022301932A
:101A3C000023039301A8FFF7A1FA18B1BB210B48AF
:101A4C00FFF7F2FEFFF794FA094BA3FB0030800975
:101A5C00FEF774FD0420FEF787FD002211464FF0BF
:101A6C00FF30FEF71FFD15B05DF804FB1C1E0008CF
:101A7C00D34D621010B5FEF795FBFFF7B3FFFFF7E0
:101A8C003BFEFFF78DFEFFF7D1FEFFF725FFFFF7BB
:101A9C007BFFFFF715FE104C2046FFF7B3FB002130
:101AAC002046FFF7CBFD002280210C48FEF73CFFBF
:101ABC000B4B1B68002BFBD00022094B1A604FF418
:101ACC00967300E013465A1E002BFBD10022802196
:101ADC000248FEF729FFEBE78400002000080140D4
:101AEC003800002000B583B0244B9A6942F0010203
:101AFC009A619A6902F001020092009ADA6942F046
:101B0C008052DA61DB6903F080530193019B03205F
:101B1C00FEF7B6FC002211466FF00B00FEF7C2FC7C
:101B2C00002211466FF00A00FEF7BCFC00221146A1
:101B3C006FF00900FEF7B6FC002211466FF00400AE
:101B4C00FEF7B0FC002211466FF00300FEF7AAFC72
:101B5C00002211466FF00100FEF7A4FC0022114692
:101B6C004FF0FF30FEF79EFC054A536823F0E0630C
:101B7C0043F00073536003B05DF804FB00100240A7
:101B8C000000014002680E4B9A4217D100B587B095
:101B9C0003F56C439A6942F400729A619B6903F4F1
:101BAC0000730193019B012302930323039302A966
:101BBC000448FEF7CDFD07B05DF804FB704700BF8D
:101BCC00002401400008014010B582B003681D4A92
:101BDC0093420AD11C4BDA6942F00202DA61DB69EA
:101BEC0003F002030093009B2AE0184A934227D18A
:101BFC000446154BDA6942F00402DA61DB6903F042
:101C0C0004030193019B1248124B036010234360A1
:101C1C00002383608022C2604FF4807202614FF413
:101C2C008062426183614FF40053C361FEF7B2FCE2
:101C3C0018B1AA210848FFF7F7FD054B63625C62F7
:101C4C0002B010BD0004004000100240000800402B
:101C5C00F4000020080002402C1E000800B585B0DE
:101C6C0003680E4A934209D1402300930223019347
:101C7C00039369460A48FEF76BFD0BE0094A934251
:101C8C0008D140230093022301930393694606482D
:101C9C00FEF75EFD05B05DF804FB00BF00040040DC
:101CAC000008014000080040000C0140704700BFD4
:101CBC00FEE700BFFEE700BFFEE700BFFEE700BF88
:101CCC00704700BF704700BF704700BF08B5FEF7F4
:101CDC007BFAFEF75BFC08BD08B50248FEF796FCE4
:101CEC0008BD00BFF40000200F4B1A6842F001023F
:101CFC001A6059680D4A0A405A601A6822F08472B8
:101D0C0022F480321A601A6822F480221A605A680F
:101D1C0022F4FE025A604FF41F029A604FF00062E8
:101D2C00034B9A60704700BF001002400000FFF8A0
:101D3C0000ED00E0002103E00B4B5B5843500431F5
:101D4C000A480B4B42189A42F6D30A4A02E0002387
:101D5C0042F8043B084B9A42F9D3FFF7C5FF00F059
:101D6C000FF8FFF787FE7047501E00080000002098
:101D7C001C0000201C00002038010020FEE70000A1
:101D8C000E4B70B51E460E4C0025E41AA410A5424D
:101D9C0004D056F8253098470135F8E700F016F8CE
:101DAC00084B094C1E46E41AA4100025A54204D089
:101DBC0056F8253098470135F8E770BD481E0008E5
:101DCC00481E0008481E00084C1E0008F8B500BF4D
:101DDC00F8BC08BC9E467047F8B500BFF8BC08BC00
:041DEC009E46704758
:101DF00002030405060708090A0B0C0D0E0F10104C
:101E000001020000000000000000000001020304C5
:101E10000607080900000000010203042E2E2F53BC
:101E200072632F6D61696E2E630000002E2E2F539A
:101E300072632F73746D3332663178785F68616CCA
:081E40005F6D73702E6300005A
:041E4800310100085C
:041E4C000D0100087C
:101E50000100000010000000140064001E003200A9
:0C1E6000340014002800000000A24A0416
:0400000508001D4191
:00000001FF
