:020000040800F2
:1000000000500020D92E0008612E0008632E000841
:10001000652E0008672E0008692E00080000000009
:100020000000000000000000000000006B2E00082F
:100030006D2E0008000000006F2E0008712E0008D1
:10004000212F0008212F0008212F0008212F000850
:10005000212F0008212F0008212F00082528000843
:10006000212F0008212F0008212F00087D2E0008D5
:10007000212F0008212F0008212F0008212F000820
:10008000212F0008212F0008212F0008212F000810
:10009000212F0008212F0008212F0008212F000800
:1000A000212F0008212F0008212F0008212F0008F0
:1000B000212F0008212F0008212F0008212F0008E0
:1000C000212F0008212F0008212F0008212F0008D0
:1000D000212F0008212F0008212F0008212F0008C0
:1000E000212F0008212F0008212F00080000000008
:1000F0000000000000000000000000000000000000
:0C01000000000000000000005FF808F1A3
:1001100010B5054C237833B9044B13B10448AFF341
:1001200000800123237010BD180000200000000093
:100130006C2F00080C4B43B10C4810B50C49AFF3C1
:1001400000800C48036823B910BD0A48036833B91E
:100150007047094B002BF7D0BDE810401847064BFD
:10016000002BF5D0184700BF000000006C2F0008DE
:100170001C000020180000200000000081F0004159
:1001800002E000BF83F0004330B54FEA41044FEA7C
:10019000430594EA050F08BF90EA020F1FBF54EA17
:1001A000000C55EA020C7FEA645C7FEA655C00F0B3
:1001B000E2804FEA5454D4EB5555B8BF6D420CDD84
:1001C0002C4480EA020281EA030382EA000083EA07
:1001D000010180EA020281EA0303362D88BF30BDA7
:1001E00011F0004F4FEA01314FF4801C4CEA1131FD
:1001F00002D0404261EB410113F0004F4FEA03335C
:100200004CEA133302D0524263EB430394EA050FE6
:1002100000F0A780A4F10104D5F1200E0DDB02FA55
:100220000EFC22FA05F2801841F1000103FA0EF2E9
:10023000801843FA05F359410EE0A5F120050EF1AF
:10024000200E012A03FA0EFC28BF4CF0020C43FAE0
:1002500005F3C01851EBE37101F0004507D54FF0ED
:10026000000EDCF1000C7EEB00006EEB0101B1F53D
:10027000801F1BD3B1F5001F0CD349085FEA300083
:100280004FEA3C0C04F101044FEA445212F5800F8E
:1002900080F09A80BCF1004F08BF5FEA500C50F12B
:1002A000000041EB045141EA050130BD5FEA4C0C0E
:1002B000404141EB010111F4801FA4F10104E9D197
:1002C00091F0000F04BF01460020B1FA81F308BF8E
:1002D0002033A3F10B03B3F120020CDA0C3208DD5A
:1002E00002F1140CC2F10C0201FA0CF021FA02F135
:1002F0000CE002F11402D8BFC2F1200C01FA02F1A5
:1003000020FA0CFCDCBF41EA0C019040E41AA2BFC9
:1003100001EB0451294330BD6FEA04041F3C1CDA91
:100320000C340EDC04F11404C4F1200220FA04F0B1
:1003300001FA02F340EA030021FA04F345EA03015B
:1003400030BDC4F10C04C4F1200220FA02F001FA1D
:1003500004F340EA0300294630BD21FA04F029469F
:1003600030BD94F0000F83F4801306BF81F4801138
:100370000134013D4EE77FEA645C18BF7FEA655CAB
:1003800029D094EA050F08BF90EA020F05D054EA7D
:10039000000C04BF1946104630BD91EA030F1EBF82
:1003A0000021002030BD5FEA545C05D14000494186
:1003B00028BF41F0004130BD14F580043CBF01F579
:1003C000801130BD01F0004545F0FE4141F470015F
:1003D0004FF0000030BD7FEA645C1ABF194610463A
:1003E0007FEA655C1CBF0B46024650EA013406BF3B
:1003F00052EA033591EA030F41F4002130BD00BFFA
:1004000090F0000F04BF0021704730B54FF48064B6
:1004100004F132044FF000054FF0000150E700BF37
:1004200090F0000F04BF0021704730B54FF4806496
:1004300004F1320410F0004548BF40424FF0000183
:100440003EE700BF42004FEAE2014FEA31014FEAC6
:1004500002701FBF12F07F4393F07F4F81F0605115
:10046000704792F0000F14BF93F07F4F704730B584
:100470004FF4607401F0004521F0004120E700BF17
:1004800050EA010208BF704730B54FF000050AE09E
:1004900050EA010208BF704730B511F0004502D59F
:1004A000404261EB41014FF4806404F132045FEAA1
:1004B000915C3FF4DCAE4FF003025FEADC0C18BF46
:1004C00003325FEADC0C18BF033202EBDC02C2F13C
:1004D000200300FA03FC20FA02F001FA03FE40EACE
:1004E0000E0021FA02F11444C1E600BF70B54FF0CE
:1004F000FF0C4CF4E06C1CEA11541DBF1CEA1355B0
:1005000094EA0C0F95EA0C0F00F0DEF82C4481EA17
:10051000030621EA4C5123EA4C5350EA013518BF37
:1005200052EA033541F4801143F4801338D0A0FB24
:1005300002CE4FF00005E1FB02E506F00042E0FBD1
:1005400003E54FF00006E1FB03569CF0000F18BFD7
:100550004EF0010EA4F1FF04B6F5007F64F540747F
:1005600004D25FEA4E0E6D4146EB060642EAC62112
:1005700041EA55514FEAC52040EA5E504FEACE2E7F
:10058000B4F1FD0C88BFBCF5E06F1ED8BEF1004F82
:1005900008BF5FEA500E50F1000041EB045170BDFE
:1005A00006F0004646EA010140EA020081EA030142
:1005B000B4EB5C04C2BFD4EB0C0541EA045170BD3E
:1005C00041F480114FF0000E013C00F3AB8014F1B8
:1005D000360FDEBF002001F0004170BDC4F1000401
:1005E000203C35DA0C341BDC04F11404C4F1200582
:1005F00000FA05F320FA04F001FA05F240EA0200DD
:1006000001F0004221F0004110EBD37021FA04F612
:1006100042EB06015EEA430E08BF20EAD37070BDCC
:10062000C4F10C04C4F1200500FA04F320FA05F02B
:1006300001FA04F240EA020001F0004110EBD3702D
:1006400041F100015EEA430E08BF20EAD37070BD9D
:10065000C4F1200500FA05F24EEA020E20FA04F376
:1006600001FA05F243EA020321FA04F001F0004125
:1006700021FA04F220EA020000EBD3705EEA430E96
:1006800008BF20EAD37070BD94F0000F0FD101F0C5
:100690000046400041EB010111F4801F08BF013CFE
:1006A000F7D041EA060195F0000F18BF704703F03C
:1006B0000046520043EB030313F4801F08BF013DC3
:1006C000F7D043EA0603704794EA0C0F0CEA13557F
:1006D00018BF95EA0C0F0CD050EA410618BF52EA39
:1006E0004306D1D181EA030101F000414FF000003F
:1006F00070BD50EA410606BF1046194652EA43064D
:1007000019D094EA0C0F02D150EA013613D195EAC0
:100710000C0F05D152EA03361CBF104619460AD108
:1007200081EA030101F0004141F0FE4141F4700112
:100730004FF0000070BD41F0FE4141F4780170BD02
:1007400070B54FF0FF0C4CF4E06C1CEA11541DBF67
:100750001CEA135594EA0C0F95EA0C0F00F0A7F869
:10076000A4EB050481EA030E52EA03354FEA013196
:1007700000F088804FEA03334FF0805545EA1313A9
:1007800043EA12634FEA022245EA111545EA106571
:100790004FEA00260EF000419D4208BF964244F108
:1007A000FD0404F5407402D25B084FEA3202B61A27
:1007B00065EB03055B084FEA32024FF480104FF4FB
:1007C000002CB6EB020E75EB030E22BFB61A75466F
:1007D00040EA0C005B084FEA3202B6EB020E75EB02
:1007E000030E22BFB61A754640EA5C005B084FEA6A
:1007F0003202B6EB020E75EB030E22BFB61A754637
:1008000040EA9C005B084FEA3202B6EB020E75EB41
:10081000030E22BFB61A754640EADC0055EA060E02
:1008200018D04FEA051545EA16754FEA06164FEA45
:10083000C30343EA52734FEAC2025FEA1C1CC0D1F1
:1008400011F4801F0BD141EA00014FF000004FF07E
:10085000004CB6E711F4801F04BF01430020B4F13F
:10086000FD0C88BFBCF5E06F3FF6AFAEB5EB030CF7
:1008700004BFB6EB020C5FEA500C50F1000041EBF4
:10088000045170BD0EF0004E4EEA113114EB5C04C1
:10089000C2BFD4EB0C0541EA045170BD41F4801194
:1008A0004FF0000E013C90E645EA060E8DE60CEA9C
:1008B000135594EA0C0F08BF95EA0C0F3FF43BAFB9
:1008C00094EA0C0F0AD150EA01347FF434AF95EA70
:1008D0000C0F7FF425AF104619462CE795EA0C0F54
:1008E00006D152EA03353FF4FDAE1046194622E721
:1008F00050EA410618BF52EA43067FF4C5AE50EAFB
:1009000041047FF40DAF52EA43057FF4EBAE12E7EA
:100910004FF0FF3C06E000BF4FF0010C02E000BFCB
:100920004FF0010C4DF804CD4FEA410C7FEA6C5CAE
:100930004FEA430C18BF7FEA6C5C1BD001B050EA51
:10094000410C0CBF52EA430C91EA030F02BF90EA3C
:10095000020F0020704710F1000F91EA030F58BFFB
:10096000994208BF90422CBFD8176FEAE37040F05D
:10097000010070474FEA410C7FEA6C5C02D150EAFB
:10098000013C07D14FEA430C7FEA6C5CD6D152EAB6
:10099000033CD3D05DF8040B704700BF844610467B
:1009A00062468C461946634600E000BF01B5FFF77A
:1009B000B7FF002848BF10F1000F01BD4DF808ED4A
:1009C000FFF7F4FF0CBF012000205DF808FB00BF1B
:1009D0004DF808EDFFF7EAFF34BF012000205DF875
:1009E00008FB00BF4DF808EDFFF7E0FF94BF0120C2
:1009F00000205DF808FB00BF4DF808EDFFF7CEFFC3
:100A000094BF012000205DF808FB00BF4DF808ED01
:100A1000FFF7C4FF34BF012000205DF808FB00BFD2
:100A20004FEA4102B2F1E04324BFB3F5001CDCF110
:100A3000FE5C0DD901F0004C4FEAC0024CEA507048
:100A4000B2F1004F40EB830008BF20F00100704777
:100A500011F0804F21D113F13872BCBF01F000407A
:100A6000704741F480114FEA5252C2F11802C2F1AC
:100A7000200C10FA0CF320FA02F018BF40F001002D
:100A80004FEAC1234FEAD32303FA0CFC40EA0C00DF
:100A900023FA02F34FEA4303CCE77FEA625307D11C
:100AA00050EA01331EBF4FF0FE4040F44000704753
:100AB00001F0004040F0FE4040F40000704700BFED
:100AC00080F0004002E000BF81F0004142001FBF03
:100AD0005FEA410392EA030F7FEA226C7FEA236C0C
:100AE0006AD04FEA1262D2EB1363C1BFD218414001
:100AF00048404140B8BF5B42192B88BF704710F097
:100B0000004F40F4000020F07F4018BF404211F039
:100B1000004F41F4000121F07F4118BF494292EAA1
:100B2000030F3FD0A2F1010241FA03FC10EB0C00CD
:100B3000C3F1200301FA03F100F0004302D549425A
:100B400060EB4000B0F5000F13D3B0F1807F06D307
:100B500040084FEA310102F10102FE2A51D2B1F1FF
:100B6000004F40EBC25008BF20F0010040EA0300F4
:100B70007047490040EB000010F4000FA2F10102A1
:100B8000EDD1B0FA80FCACF1080CB2EB0C0200FA2B
:100B90000CF0AABF00EBC25052421843BCBFD04079
:100BA0001843704792F0000F81F4000106BF80F4F3
:100BB00000000132013BB5E74FEA41037FEA226CB6
:100BC00018BF7FEA236C21D092EA030F04D092F081
:100BD000000F08BF0846704790EA010F1CBF0020B5
:100BE000704712F07F4F04D1400028BF40F0004012
:100BF000704712F100723CBF00F50000704700F032
:100C0000004343F0FE4040F4000070477FEA226258
:100C100016BF08467FEA23630146420206BF5FEA29
:100C2000412390EA010F40F4800070474FF0000329
:100C300004E000BF10F0004348BF40425FEA000CF0
:100C400008BF704743F0964301464FF000001CE098
:100C500050EA010208BF70474FF000030AE000BFEE
:100C600050EA010208BF704711F0004302D540422C
:100C700061EB41015FEA010C02BF8446014600209E
:100C800043F0B64308BFA3F18053A3F50003BCFAB9
:100C90008CF2083AA3EBC25310DB01FA02FC634466
:100CA00000FA02FCC2F12002BCF1004F20FA02F26D
:100CB00043EB020008BF20F00100704702F1200260
:100CC00001FA02FCC2F1200250EA4C0021FA02F2C1
:100CD00043EB020008BF20EADC7070474FF0FF0CC6
:100CE0001CEAD0521EBF1CEAD15392EA0C0F93EAC1
:100CF0000C0F6FD01A4480EA010C400218BF5FEA63
:100D000041211ED04FF0006343EA501043EA5111D5
:100D1000A0FB01310CF00040B1F5000F3EBF4900CF
:100D200041EAD3715B0040EA010062F17F02FD2AD3
:100D30001DD8B3F1004F40EBC25008BF20F00100B6
:100D4000704790F0000F0CF0004C08BF49024CEACD
:100D5000502040EA51207F3AC2BFD2F1FF0340EA5F
:100D6000C250704740F400004FF00003013A5DDCD0
:100D700012F1190FDCBF00F000407047C2F1000211
:100D8000410021FA02F1C2F1200200FA02FC5FEAFE
:100D9000310040F1000053EA4C0308BF20EADC7048
:100DA000704792F0000F00F0004C02BF400010F4BA
:100DB000000F013AF9D040EA0C0093F0000F01F067
:100DC000004C02BF490011F4000F013BF9D041EA89
:100DD0000C018FE70CEAD15392EA0C0F18BF93EA8B
:100DE0000C0F0AD030F0004C18BF31F0004CD8D1B5
:100DF00080EA010000F00040704790F0000F17BF3C
:100E000090F0004F084691F0000F91F0004F14D081
:100E100092EA0C0F01D142020FD193EA0C0F03D1D9
:100E20004B0218BF084608D180EA010000F00040DC
:100E300040F0FE4040F40000704740F0FE4040F4B7
:100E4000400070474FF0FF0C1CEAD0521EBF1CEA56
:100E5000D15392EA0C0F93EA0C0F69D0A2EB030274
:100E600080EA010C49024FEA402037D04FF080530E
:100E700043EA111143EA10130CF000408B4238BFD3
:100E80005B0042F17D024FF4000C8B4224BF5B1AE1
:100E900040EA0C00B3EB510F24BFA3EB510340EA2F
:100EA0005C00B3EB910F24BFA3EB910340EA9C00DD
:100EB000B3EBD10F24BFA3EBD10340EADC001B014D
:100EC00018BF5FEA1C1CE0D1FD2A3FF650AF8B42F1
:100ED00040EBC25008BF20F0010070470CF0004CFE
:100EE0004CEA50207F32C2BFD2F1FF0340EAC25029
:100EF000704740F400004FF00003013A37E792F0EA
:100F0000000F00F0004C02BF400010F4000F013A47
:100F1000F9D040EA0C0093F0000F01F0004C02BF42
:100F2000490011F4000F013BF9D041EA0C0195E7AB
:100F30000CEAD15392EA0C0F08D142027FF47DAF44
:100F400093EA0C0F7FF470AF084676E793EA0C0F34
:100F500004D14B023FF44CAF08466EE730F0004C32
:100F600018BF31F0004CCAD130F000427FF45CAFC2
:100F700031F000437FF43CAF5FE700BF4FF0FF3C30
:100F800006E000BF4FF0010C02E000BF4FF0010C83
:100F90004DF804CD4FEA40024FEA41037FEA226C4C
:100FA00018BF7FEA236C11D001B052EA530C18BF6E
:100FB00090EA010F58BFB2EB030088BFC81738BFD3
:100FC0006FEAE17018BF40F0010070477FEA226CC1
:100FD00002D15FEA402C05D17FEA236CE4D15FEABD
:100FE000412CE1D05DF8040B704700BF84460846F1
:100FF0006146FFE70FB5FFF7C9FF002848BF10F1B2
:10100000000F0FBD4DF808EDFFF7F4FF0CBF0120F6
:1010100000205DF808FB00BF4DF808EDFFF7EAFF80
:1010200034BF012000205DF808FB00BF4DF808ED3B
:10103000FFF7E0FF94BF012000205DF808FB00BF30
:101040004DF808EDFFF7D2FF94BF012000205DF8B6
:1010500008FB00BF4DF808EDFFF7C8FF34BF0120C3
:1010600000205DF808FB00BF4FEA4002B2F1FE4FDE
:101070000FD34FF09E03B3EB12620DD94FEA00235A
:1010800043F0004310F0004F23FA02F018BF404233
:1010900070474FF00000704712F1610F01D142021A
:1010A00005D110F0004008BF6FF0004070474FF0CE
:1010B0000000704710B504460E4B18784FF47A7351
:1010C000B3FBF0F30C4A1068B0FBF3F000F0E2F968
:1010D00068B90F2C01D9012010BD002221464FF024
:1010E000FF3000F08BF9034B5C60002010BD012045
:1010F00010BD00BF000000201400002008B5074A02
:10110000136843F010031360032000F065F900201A
:10111000FFF7D0FF01F0BCFD002008BD0020024019
:10112000034A1168034B1B780B441360704700BFE0
:10113000D000002000000020014B1868704700BF5D
:10114000D000002030B482B00023019390F8243006
:10115000012B00F08B800246012380F824304B687D
:10116000062B29D80568686B03EB8303053B1F2416
:101170009C4020EA04000C6804FA03F303436B6309
:101180000B68092B38D91568E86803EB43031E3B4D
:1011900007249C4020EA04008C6804FA03F303430C
:1011A000EB600B68103B012B34D90020002382F840
:1011B000243002B030BC70470C2B0ED80568286B69
:1011C00003EB8303233B1F249C4020EA04000C68AC
:1011D00004FA03F303432B63D2E70568E86A03EBE1
:1011E0008303413B1F249C4020EA04000C6804FA5E
:1011F00003F30343EB62C3E71568286903EB43037A
:1012000007249C4020EA04008C6804FA03F303439B
:101210002B61C6E713681648834205D0936A43F0F2
:10122000200393620120C1E7986810F4000F1BD1DE
:10123000986840F4000098600B68102B01D00020E3
:10124000B4E70C4B1B680C49A1FB03139B0C03EB8D
:1012500083035900019102E0019B013B0193019B33
:10126000002BF9D10020A1E700209FE70220A0E792
:10127000002401401400002083DE1B4338B50368BE
:101280009A6812F0010F01D1002038BD04469A6817
:1012900022F001029A60FFF74FFF054623689B6822
:1012A00013F0010F0ED0FFF747FF401B0228F5D9BE
:1012B000A36A43F01003A362E36A43F00103E3620D
:1012C000012038BD002038BD00287FD038B5044645
:1012D000836A002B4AD02046FFF7D0FFA36A13F0A1
:1012E00010036DD100286BD1A26A22F4885222F03B
:1012F000020242F00202A2626268E1690A43E56802
:1013000042EA4502A168B1F5807F38D0012933D087
:101310006169012936D02568696821F469410B4368
:101320006B6021688D682A4B2B4013438B60A36848
:10133000B3F5807F37D0012B35D000232568E96ACB
:1013400021F470010B43EB6223689968214B0B4039
:101350009A422CD0A36A23F0120343F01003A36235
:10136000E36A43F00103E362012038BDC36280F801
:10137000243001F0DDFCAEE74FF48073C8E74FF492
:101380008073C5E735B9A169013943EA413343F4B4
:101390000063C0E7A16A41F02001A162E16A41F067
:1013A0000101E162B7E72369013B1B05C6E70023A2
:1013B000E362A36A23F0030343F00103A36238BD91
:1013C000A36A43F01003A362012038BD01207047D7
:1013D000FDF7E1FFFE0E1FFF074AD36823F4E06329
:1013E0001B041B0C000200F4E060184340F0BF60D7
:1013F00040F40030D060704700ED00E030B4164B90
:10140000DB68C3F30223C3F10704042C28BF0424C0
:101410001D1D062D17D9033B012505FA04F4013CD7
:101420002140994005FA03F3013B1340194300287A
:101430000BDB0901C9B200F1604000F5614080F8A2
:10144000001330BC70470023E6E700F00F000901ED
:10145000C9B2024B1954F4E700ED00E014ED00E0CE
:10146000420900F01F00012303FA00F0014B43F88A
:101470002200704700E100E0430900F01F00012254
:1014800002FA00F02033024A42F82300704700BFFE
:1014900000E100E00138B0F1807F0AD2064B5860CD
:1014A000F021064A82F823100020986007221A6073
:1014B00070470120704700BF10E000E000ED00E041
:1014C000042805D0054A136823F00403136070470D
:1014D000024A136843F004031360704710E000E011
:1014E000704708B5FFF7FCFF08BD70B4C56B066C0C
:1014F0000124B4406C60046863604368102B05D01D
:10150000036899600368DA6070BC704703689A608A
:101510000368D960F8E70000002830D010B4034613
:101520000068184A02441849A1FB021212099200ED
:101530001A64164ADA63022283F82120016821F432
:101540007F5121F030015A689C682243DC682243B5
:101550001C6922435C6922439C692243DC69224363
:101560000A43026000209862D86218635863986347
:10157000012283F8212083F8200010BC704701204D
:10158000704700BFF8FFFDBFCDCCCCCC00000240BF
:1015900038B590F82040012C32D0012480F820404A
:1015A00090F82140012C04D0002380F82030022044
:1015B00038BD0446022084F821000020A06325687D
:1015C000286820F0010028602046FFF78EFFE36ABC
:1015D0005BB12268136843F00E031360226813683E
:1015E00043F001031360002038BD2268136823F024
:1015F000040313602268136843F00A031360EDE7E5
:10160000022038BDF0B583B00026344671E0002DCD
:1016100000F0A180012D00D1CE68FF2B00F2AF8039
:101620008646FF2B00F2AE80A500DEF800200F27D3
:10163000AF4022EA070206FA05F52A43CEF8002059
:101640004A6812F0805F53D0634A956945F00105FE
:101650009561926902F001020192019AA508AF1CFE
:101660005E4A52F8272004F00307BF004FF00F0E28
:101670000EFA07FE22EA0E02DFF870E1704500F074
:1016800088800EF5806E704500F086800EF5806EC5
:10169000704500F084800EF5806E704576D04FF076
:1016A000040E0EFA07F73A4302354C4F47F825204F
:1016B0004A6812F4803F75D0494D2A681A432A605F
:1016C0004A6812F4003F73D0454D6A681A436A6055
:1016D0004A6812F4801F71D0414DAA681A43AA606B
:1016E0004A6812F4001F6FD03D4DEA681343EB6067
:1016F00001340F2C6ED80122A2400B6813409A428D
:10170000F6D14D68122D30D00BD8022D2AD07FF69D
:101710007EAF032D2FD0112D7FF47FAFCE6804361E
:101720007BE7304FBD4216D00CD92F4FBD4212D0AF
:1017300007F58037BD420ED0A7F58017BD427FF474
:101740006CAF08E0A7F58017BD4204D007F58037DD
:10175000BD427FF462AF8D687DB1012D08D042613A
:1017600008265AE7CE68083657E7CE680C3654E7A5
:101770000261082651E700264FE704264DE700F1F5
:10178000040E4EE7A4F10805AD004EE74FF0030E3E
:1017900087E74FF0000E84E74FF0010E81E74FF02E
:1017A000020E7EE70E4D2A6822EA03022A6087E7CE
:1017B0000B4D6A6822EA03026A6089E7084DAA684D
:1017C00022EA0302AA608BE7054DEA6822EA0303D6
:1017D000EB608DE703B0F0BD001002400000014057
:1017E00000040140000021100000311000080140F9
:1017F00012B9090401617047016170477047000028
:1018000008B5054B5B69034200D108BD024B586126
:10181000FFF7F4FFF9E700BF0004014082B0084B76
:101820001B68084AA2FB03235B0A00FB03F001903C
:1018300000BF019B5A1E0192002BF9D102B07047E4
:1018400014000020D34D621070B582B004460368C6
:1018500013F0010F3DD0AC4B5B6803F00C03042B7D
:101860002ED0A94B5B6803F00C03082B23D06368D0
:10187000B3F5803F51D0002B55D103F1804303F5E0
:1018800004331A6822F480321A601A6822F4802223
:101890001A606368002B60D0FFF74EFC05469A4B38
:1018A0001B6813F4003F14D1FFF746FC401B64286B
:1018B000F5D90320AFE1944B5B6813F4803FD6D099
:1018C000914B1B6813F4003F03D06368002B00F0BA
:1018D0009F81236813F0020F65D08B4B5B6813F078
:1018E0000C0F4ED0884B5B6803F00C03082B43D0E1
:1018F0002369002B79D00122844B1A60FFF71CFC6E
:101900000546814B1B6813F0020F65D1FFF714FCED
:10191000401B0228F5D903207DE17B4A136843F47C
:1019200080331360B5E7B3F5A02F09D0764B1A6862
:1019300022F480321A601A6822F480221A60A8E722
:1019400003F18043A3F53C331A6842F480221A6005
:101950001A6842F480321A609BE7FFF7EDFB0546F8
:10196000694B1B6813F4003FB3D0FFF7E5FB401B46
:101970006428F5D903204EE1634B5B6813F4803F84
:10198000B6D1614B1B6813F0020F04D02369012B01
:1019900001D001203FE15C4A136823F0F80361693C
:1019A00043EAC1031360236813F0080F32D0A36920
:1019B000002B6ED00122564B1A60FFF7BDFB054687
:1019C000514B5B6A13F0020F21D1FFF7B5FB401BAF
:1019D0000228F5D903201EE14B4A136823F0F803CF
:1019E000616943EAC1031360DDE70022474B1A60D7
:1019F000FFF7A2FB0546444B1B6813F0020FD2D041
:101A0000FFF79AFB401B0228F5D9032003E10120D0
:101A1000FFF704FF236813F0040F00F099803A4B9E
:101A2000DB6913F0805F46D1374BDA6942F08052B0
:101A3000DA61DB6903F080530193019B0125354B8B
:101A40001B6813F4807F38D0E368012B49D0002B4A
:101A50004DD103F1804303F504331A6A22F00102E9
:101A60001A621A6A22F004021A62E368002B5DD03F
:101A7000FFF762FB0646244B1B6A13F0020F66D188
:101A8000FFF75AFB801B41F288339842F3D90320B9
:101A9000C1E000221E4B1A60FFF74EFB05461A4BB1
:101AA0005B6A13F0020FB5D0FFF746FB401B02281C
:101AB000F5D90320AFE00025C1E7164A136843F4C7
:101AC00080731360FFF738FB0646124B1B6813F454
:101AD000807FB9D1FFF730FB801B6428F5D9032044
:101AE00099E0094A136A43F001031362BDE7052B2D
:101AF00012D0054B1A6A22F001021A621A6A22F009
:101B000004021A62B1E700BF001002400000424226
:101B10008004424200700040414B1A6A42F00402C5
:101B20001A621A6A42F001021A629EE7FFF704FB8A
:101B300006463B4B1B6A13F0020F08D0FFF7FCFA76
:101B4000801B41F288339842F3D9032063E0E5B962
:101B5000E369002B5ED0324A526802F00C02082A78
:101B60005BD0022B17D000222E4B1A60FFF7E4FA4D
:101B700004462B4B1B6813F0007F47D0FFF7DCFABD
:101B8000001B0228F5D9032045E0254AD36923F03C
:101B90008053D361DCE70022224B1A60FFF7CCFAB6
:101BA00005461F4B1B6813F0007F06D0FFF7C4FAF1
:101BB000401B0228F5D903202DE0236AB3F5803FAE
:101BC0001AD017494B6823F47413226A606A0243DF
:101BD00013434B600122134B1A60FFF7ADFA044622
:101BE0000F4B1B6813F0007F0ED1FFF7A5FA001B07
:101BF0000228F5D903200EE0094A536823F4003384
:101C0000A1680B435360DCE7002004E0002002E001
:101C1000012000E0002002B070BD0120FBE700BF02
:101C2000001002406000424210B586B0154C94E8A6
:101C30000F000DF1180E0EE90F00238AADF80430E5
:101C4000114B5B6803F00C02082A18D1C3F38342DE
:101C5000724412F8102C13F4803F03D10B4800FBA0
:101C600002F00DE0084B5B68C3F34043734413F884
:101C7000143C074800FB02F0B0FBF3F000E004481E
:101C800006B010BD842F00080010024000093D007E
:101C900000127A00594B1B6803F007038B420CD2E9
:101CA000564A136823F007030B431360136803F0CD
:101CB0000703994201D00120704770B5036813F003
:101CC000020F06D04E4A536823F0F0038468234382
:101CD00053600D460446036813F0010F52D0436869
:101CE000012B23D0022B28D0454A126812F0020F94
:101CF00000F0828042494A6822F0030213434B609D
:101D0000FFF71AFA06466368012B1DD0022B2AD072
:101D10003B4B5B6813F00C0F34D0FFF70DFA801BC0
:101D200041F288339842F3D9032070BD344A1268D7
:101D300012F4003FDED1012070BD314A126812F06A
:101D4000007FD7D1012070BD2D4B5B6803F00C03E1
:101D5000042B17D0FFF7F0F9801B41F2883398422B
:101D6000F2D9032070BD264B5B6803F00C03082BEF
:101D700008D0FFF7E1F9801B41F288339842F2D98D
:101D8000032070BD1D4B1B6803F007039D420CD25E
:101D90001A4A136823F007032B431360136803F0F8
:101DA00007039D4201D0012070BD236813F0040F8A
:101DB00006D0134A536823F4E063E1680B43536091
:101DC000236813F0080F07D00D4A536823F46053BB
:101DD000216943EAC1035360FFF726FF084B5B68A4
:101DE000C3F30313074AD35CD840074B18600020A5
:101DF000FFF760F9002070BD012070BD0020024097
:101E000000100240982F000814000020014B1868B1
:101E1000704700BF1400002070B582B0044603680C
:101E200013F0010F34D03E4BDB6913F0805F48D1D3
:101E30003B4BDA6942F08052DA61DB6903F0805390
:101E40000193019B0125374B1B6813F4807F3AD027
:101E5000334B1B6A13F4407311D0626802F4407272
:101E600093420CD02E4A136A23F440702E49012667
:101E70000E6000260E60106213F0010F37D1284A61
:101E8000136A23F4407361680B431362002D3FD142
:101E9000236813F0020F06D0214A536823F440430D
:101EA000A1680B435360236813F0100F35D01C4A10
:101EB000536823F48003E1680B435360002002B0B1
:101EC00070BD0025BFE7174A136843F480731360A1
:101ED000FFF732F90646134B1B6813F4807FB7D126
:101EE000FFF72AF9801B6428F5D90320E7E7FFF7FD
:101EF00023F906460A4B1B6A13F0020FBFD1FFF706
:101F00001BF9801B41F288339842F3D90320D6E7AE
:101F1000D36923F08053D361BAE70020CFE700BF35
:101F200000100240007000404004424230B4036A96
:101F300023F001030362036A4468826922F073029A
:101F40000D682A4323F002038D682B430D4DA842F0
:101F500009D00C4DA8420DD0446082614A684263AA
:101F6000036230BC704723F00803CD682B4323F095
:101F70000403EEE724F440744D692C438D692C432F
:101F8000EAE700BF002C014030B4036A23F48073F9
:101F90000362036A4468C26922F073020D682A432F
:101FA00023F400738D6843EA05230F4DA84209D03E
:101FB0000D4DA8420ED04460C2614A68C2630362FC
:101FC00030BC704723F40063CD6843EA052323F453
:101FD0008063EDE724F440544D6944EA05148D69AB
:101FE00044EA0514E7E700BF002C014030B4036A5F
:101FF00023F480530362036A4468C26922F4E64210
:102000000D6842EA052223F400538D6843EA053344
:10201000074DA84206D04460C2614A680264036268
:1020200030BC704724F480444D6944EA8514F2E7DB
:10203000002C014010B4036A046A24F00104046215
:10204000846924F0F00444EA021223F00A030B43EB
:102050008261036210BC704710B4036A23F010035E
:1020600003628469036A24F4704444EA023223F070
:10207000A00343EA01138261036210BC70478368C6
:1020800023F0700341F007010B438360704710B4E5
:10209000846824F47F4442EA032319430C43846098
:1020A00010BC7047022380F83D300268136843F08B
:1020B00001031360012380F83D3000207047704712
:1020C000704790F83C30012B7DD010B504460123B9
:1020D00080F83C30022380F83D300268936823F496
:1020E0007F4323F0770393600B68402B57D010D9C0
:1020F000702B3ED01FD8502B47D0602B32D1CA68EE
:1021000049680068FFF7A8FF60212068FFF7B7FF64
:1021100028E0102B4DD008D9202B4FD0302B21D1C7
:1021200030210068FFF7ABFF1CE0DBB9002100683D
:10213000FFF7A5FF16E0B3F5805F0ED0B3F5005FA3
:1021400010D1CB684A6889680068FFF7A0FF226851
:10215000936843F48043936004E00268936823F03B
:1021600007039360012384F83D30002084F83C008D
:1021700010BDCB684A6889680068FFF788FF22684D
:10218000936843F077039360ECE7CA684968006896
:10219000FFF750FF50212068FFF771FFE2E7CA68A0
:1021A00049680068FFF746FF40212068FFF767FF96
:1021B000D8E710210068FFF762FFD3E7202100680D
:1021C000FFF75DFFCEE702207047000003681C4A5E
:1021D000904227D0B0F1804F24D0A2F594329042A3
:1021E00020D002F5806290421CD0154A90421ED049
:1021F000B0F1804F1BD0A2F59432904217D002F577
:102200008062904213D023F080034A691343036035
:102210008B68C3620B688362094B98420CD0012320
:102220004361704723F070034A681343DDE723F4EA
:102230004073CA681343E6E70B690363EFE700BF27
:10224000002C0140A8B110B5044690F83D305BB1B8
:10225000022384F83D30211D2068FFF7B7FF0123DA
:1022600084F83D30002010BD80F83C3000F082FD45
:10227000EEE701207047A8B110B5044690F83D3054
:102280005BB1022384F83D30211D2068FFF79EFFDB
:10229000012384F83D30002010BD80F83C30FFF76A
:1022A0000EFFEEE701207047A8B110B5044690F884
:1022B0003D305BB1022384F83D30211D2068FFF7DB
:1022C00085FF012384F83D30002010BD80F83C30AC
:1022D000FFF7F6FEEEE701207047000030B4036A16
:1022E00023F010030362036A4468826922F4E64221
:1022F0000D6842EA052223F020038D6843EA0513A6
:102300000E4DA84209D00D4DA8420ED04460826106
:102310004A688263036230BC704723F08003CD6853
:1023200043EA051323F04003EDE724F440644D69CC
:1023300044EA85048D6944EA8504E7E7002C0140FE
:1023400090F83C30012B28D010B50446012380F8CA
:102350003C30022380F83D300C2A0BD8DFE802F035
:10236000070A0A0A110A0A0A150A0A0A1900006865
:10237000FFF7DCFD012384F83D30002084F83C00A9
:1023800010BD0068FFF7AAFFF4E70068FFF7FCFD47
:10239000F0E70068FFF72AFEECE70220704738B547
:1023A00090F83C30012B66D00D460446012380F89E
:1023B0003C30022380F83D300C2A1AD8DFE802F0C6
:1023C0000719191920191919341919194700006822
:1023D000FFF7ACFD2268936943F00803936122681C
:1023E000936923F0040393612268936929690B437D
:1023F0009361012384F83D30002084F83C0038BD0F
:102400000068FFF76BFF2268936943F400639361F0
:102410002268936923F48063936122689369296930
:1024200043EA01239361E4E70068FFF7ADFD22680A
:10243000D36943F00803D3612268D36923F004030E
:10244000D3612268D36929690B43D361D1E700685E
:10245000FFF7CCFD2268D36943F40063D36122689F
:10246000D36923F48063D3612268D369296943EA7D
:102470000123D361BDE7022038BD10B4012303FA64
:1024800001F4036A23EA04030362036A8A401343E4
:10249000036210BC7047000010B5044601220068BA
:1024A000FFF7EBFF2368074A934206D022681368C0
:1024B00043F001031360002010BD5A6C42F4004247
:1024C0005A64F3E7002C014010B50446012200686D
:1024D000FFF7D3FF2368074A934206D022681368A8
:1024E00043F001031360002010BD5A6C42F4004217
:1024F0005A64F3E7002C014090F83C30012B22D0C5
:1025000030B4012280F83C20022380F83D3004687A
:10251000636823F070036360046863680D682B438D
:1025200063600468A36823F08003A3600468A36861
:1025300049680B43A36080F83D20002380F83C30BD
:10254000184630BC7047022070470000054B064A11
:102550009A62064ADA62064B1A68D36843F48443E7
:10256000D3607047A4010020CD2600080927000889
:10257000D400002000000000F8B5FEF7A5FA0446DC
:10258000FEF772FD0028B8BF4042FDF749FF2CA3BB
:10259000D3E90023FEF73AFAA0B12046FDF752FF37
:1025A00029A3D3E90023FDF7A1FF06460F46284DD6
:1025B0002868FDF747FF32463B46FDF7E5FDFEF78D
:1025C0002FFA2860224D69682046FEF77DFAFDF754
:1025D00039FF1DA3D3E90023FEF7B2F8FEF720FA76
:1025E00006461C492046FEF779FB0746002128686D
:1025F000FEF774FB01463846FEF768FA05461649B1
:102600003046FEF76BFB01462846FEF75DFA0546AD
:102610001249FEF71FFD30B911492846FEF7FCFCB0
:1026200010B10F4D00E00D4D094B5C602846FEF7E0
:102630001BFD0028B8BF4042FEF7FCFAF8BD00BF02
:102640007B14AE47E17A843F7B14AE47E17A943F36
:1026500034000020000070410000404000E80047C6
:1026600000E800C70E4B9B68102B14D00022082AEC
:1026700015D070B40A498B6805680A4C24F81350C9
:102680005D1C642624F8156002338B600232082A30
:10269000F0D170BC70470022014B9A60E6E77047AA
:1026A000340000201401002038B50D4614460549B9
:1026B000FEF7C8FB0449FEF711FBFEF7D5FC2860C6
:1026C000206038BD00E800470000C84238B5026805
:1026D000136843F004031360084C254655F8043B87
:1026E00007490848984708342A462146FFF7DCFF87
:1026F00029462046FFF7B6FF38BD00BF080000207E
:10270000000016430000484338B50268136843F0E0
:1027100002031360084C254655F8043B0749084856
:10272000984708342A462146FFF7BEFF294620462F
:10273000FFF798FF38BD00BF080000200000F041FF
:10274000000048432DE9F04186B0254B9A6942F0DC
:1027500004029A619A6902F004020092009A9A694E
:1027600042F008029A619B6903F008030193019B00
:10277000DFF87880002280214046FFF739F8194DB4
:10278000012208212846FFF733F88023029301270E
:102790000397002404940326059602A94046FEF7F9
:1027A00031FF02230293104B0393049402A928469D
:1027B000FEF728FF082302930397049405960DEB78
:1027C00003012846FEF71EFF224621460720FEF79A
:1027D00015FE0720FEF744FE06B0BDE8F08100BFFD
:1027E00000100240000C01400000111000080140E0
:1027F00000B583B00A4B5A6942F001025A615B6925
:1028000003F001030193019B002211460B20FEF708
:10281000F5FD0B20FEF724FE03B05DF804FB00BFBE
:102820000010024008B5144B5B6913F0020F03D18E
:102830000220FEF7E5FF08BD0720FEF71DFE01227E
:102840000E4BDA6080210E48FEF7D2FF0D4B1B685D
:102850005A6942F042025A619A6922F070029A6102
:102860009A6942F030029A611023074A07490848E2
:10287000FEF78EFEDCE700BF0004014034000020BC
:1028800000080140D400002034080040140100205A
:10289000A401002038B5C36B1A6804682568016C70
:1028A00004238B401A4236D015F0040F33D023682E
:1028B00013F0200F03D0236823F004032360036880
:1028C0002F4A934214D01432934219D014329342B7
:1028D00018D01432934218D01432934218D01432C4
:1028E000934202D04FF0806203E04FF4800200E098
:1028F0000422244B5A60C36A002B40D0984738BD4D
:102900004022F6E74FF48062F3E74FF48042F0E7AD
:102910004FF48022EDE702238B401A4214D015F0C9
:10292000020F11D0236813F0200F06D0236823F084
:102930000A032360012380F82130002380F820302F
:10294000836AE3B1984738BD082303FA01F10A42CC
:1029500015D015F0080F12D0236823F00E03236062
:10296000C16B026C012303FA02F24A60836380F8B0
:102970002130002380F82030036B03B1984738BD25
:102980000800024000000240FEE7000000B58FB0E2
:102990002648274B03603123436000238360642271
:1029A000C26003618361FFF74DFC30BB0EA94FF499
:1029B000805341F8103D1D48FFF783FB10BB1B48B7
:1029C000FFF772FC18BB00230893099308A9174866
:1029D000FFF792FD00BB602301933A23029300228C
:1029E0000392059201A91148FFF7D9FCC8B90F4815
:1029F00000F00EFA0FB05DF804FB4FF491710D4832
:102A0000FFF7C2FF4FF494710A48FFF7BDFF40F291
:102A10002D110848FFF7B8FF4FF49A710548FFF7EA
:102A2000B3FF40F23D110348FFF7AEFF3401002031
:102A300000040040B02F000800B58FB02748284B95
:102A4000036031234360002383606422C26003611A
:102A500080238361FFF7F6FB30BB0EA94FF4805350
:102A600041F8103D1D48FFF72CFB10BB1B48FFF73A
:102A700002FC18BB402308930023099308A91748B8
:102A8000FFF73AFDF8B94023019300220292039226
:102A9000059201A91148FFF753FCC8B90F4800F08F
:102AA000B7F90FB05DF804FB4FF4AA710D48FFF7BA
:102AB0006BFF4FF4AD710B48FFF766FF40F25F11FB
:102AC0000848FFF761FF4FF4B3710648FFF75CFF5A
:102AD00040F26F110348FFF757FF00BFD4000020FA
:102AE00000080040B02F000800B585B01348144B13
:102AF0000360002383600122C26043614FF46021C0
:102B0000C16143600261FEF7DFFB60B900230193FE
:102B100001220292039301A90848FEF713FB38B97A
:102B200005B05DF804FB40F203110648FFF72CFFE7
:102B300040F20D110348FFF727FF00BF740100208A
:102B400000240140B02F000800B595B002230A937D
:102B500001230E9310230F93002311930AA8FEF76D
:102B600073FE48BB0F23059300210691A023079312
:102B70004FF4C0630893099305A8FFF78BF8F8B9E1
:102B8000022301930023039301A8FFF745F9D8B965
:102B9000FFF73CF90E4BA3FB00308009FEF77AFCEF
:102BA0000420FEF78DFC002211464FF0FF30FEF7A7
:102BB00025FC15B05DF804FBCE210648FFF7E4FEC6
:102BC000DC210448FFF7E0FEE3210248FFF7DCFECA
:102BD000D34D6210B02F000838B5FEF78FFAFFF71B
:102BE000B3FFFFF7AFFDFFF703FEFFF7CFFEFFF7E1
:102BF00023FFFFF779FF1F4C254655F8043B1E497C
:102C00001E48984708342A462146FFF74DFD2946BD
:102C10002046FFF727FD29462046FFF723FDFFF753
:102C200095FC174C2046FFF73DFA00212046FFF7A0
:102C30004BFC002280211348FEF7DAFD124C20469F
:102C4000FFF730FA00212046FFF726FC08E0134684
:102C50005A1E002BFBD1002280210A48FEF7C8FD36
:102C60000A4BDB68002BFBD00022084BDA604FF4E4
:102C70009673EDE7080000200000A04100004843E3
:102C80003401002000080140D4000020340000205E
:102C900000B583B0244B9A6942F001029A619A69A7
:102CA00002F001020092009ADA6942F08052DA6181
:102CB000DB6903F080530193019B0320FEF78CFB3B
:102CC000002211466FF00B00FEF798FB0022114620
:102CD0006FF00A00FEF792FB002211466FF0090028
:102CE000FEF78CFB002211466FF00400FEF786FB16
:102CF000002211466FF00300FEF780FB0022114610
:102D00006FF00100FEF77AFB002211464FF0FF3012
:102D1000FEF774FB054A536823F0E06343F0007349
:102D2000536003B05DF804FB001002400000014056
:102D300002680E4B9A4200D0704700B587B003F589
:102D40006C439A6942F400729A619B6903F40073C0
:102D50000193019B012302930323039302A90448D7
:102D6000FEF750FC07B05DF804FB00BF00240140F3
:102D70000008014010B582B003681F4A934204D096
:102D80001E4A93420CD002B010BD1D4BDA6942F0CE
:102D90000202DA61DB6903F002030093009BF2E7B1
:102DA0000446174BDA6942F00402DA61DB6903F08A
:102DB00004030193019B1348134B036010234360EA
:102DC000002383608023C3604FF4807303614FF45A
:102DD00080634361202383614FF40053C361FEF796
:102DE0009BFB18B9074B63625C62CCE7AA210748DA
:102DF000FFF7CAFDF6E700BF0004004000080040EE
:102E000000100240A401002008000240C02F00086A
:102E100000B585B003680E4A934205D00D4A93422F
:102E20000CD005B05DF804FB40230093022301930E
:102E3000039369460848FEF7E5FBF2E74023009359
:102E400002230193039369460448FEF7DBFBE8E79E
:102E5000000400400008004000080140000C014050
:102E60007047FEE7FEE7FEE7FEE7704770477047F2
:102E700008B5FEF755F9FEF734FB08BD08B5024862
:102E8000FFF708FD08BD00BFA40100200F4B1A6822
:102E900042F001021A6059680D4A0A405A601A68E5
:102EA00022F0847222F480321A601A6822F480229E
:102EB0001A605A6822F4FE025A604FF41F029A60A8
:102EC0004FF00062034B9A60704700BF0010024051
:102ED0000000FFF800ED00E0002103E00B4B5B5821
:102EE000435004310A480B4B42189A42F6D30A4A1F
:102EF00002E0002342F8043B084B9A42F9D3FFF763
:102F0000C5FF00F00FF8FFF767FE7047E42F0008D9
:102F1000000000201800002018000020E801002018
:102F2000FEE7000070B500250C4E0D4CA41BA4104C
:102F3000A54209D100F01AF800250A4E0A4CA41B3C
:102F4000A410A54205D170BD56F82530984701352B
:102F5000EEE756F8253098470135F2E7DC2F0008F8
:102F6000DC2F0008DC2F0008E02F0008F8B500BFB8
:102F7000F8BC08BC9E467047F8B500BFF8BC08BC5A
:042F80009E467047B2
:102F840002030405060708090A0B0C0D0E0F1010A6
:102F94000102000000000000000000000102030420
:102FA4000607080900000000010203042E2E2F5317
:102FB40072632F6D61696E2E630000002E2E2F53F5
:102FC40072632F73746D3332663178785F68616C25
:082FD4005F6D73702E630000B5
:042FDC0035010008B3
:042FE00011010008D3
:102FE400010000001000000079250008190000000D
:082FF4001400000000A24A04D1
:0400000508002ED9E8
:00000001FF
