:020000040800F2
:1000000000500020D1540008495000084B5000080F
:100010004D5000084F5000085150000800000000EB
:100020000000000000000000000000005350000825
:1000300055500008000000005750000859500008B3
:1000400019550008195500081955000819550008D8
:100050001955000819550008195500083D490008B0
:100060001955000819550008195500086550000871
:1000700019550008195500081955000819550008A8
:100080001955000819550008195500081955000898
:100090007550000819550008195500081955000831
:1000A0001955000819550008195500081955000878
:1000B00019550008814A000819550008195500080B
:1000C0001955000819550008195500081955000858
:1000D0001955000819550008195500081955000848
:1000E00019550008195500081955000800000000AE
:1000F0000000000000000000000000000000000000
:0C01000000000000000000005FF808F1A3
:1001100010B5054C237833B9044B13B10448AFF341
:1001200000800123237010BDA40500200000000002
:100130001C5500080C4B43B10C4810B50C49AFF3EB
:1001400000800C48036823B910BD0A48036833B91E
:100150007047094B002BF7D0BDE810401847064BFD
:10016000002BF5D0184700BF000000001C55000808
:10017000A8050020A40500200000000081F0004137
:1001800002E000BF83F0004330B54FEA41044FEA7C
:10019000430594EA050F08BF90EA020F1FBF54EA17
:1001A000000C55EA020C7FEA645C7FEA655C00F0B3
:1001B000E2804FEA5454D4EB5555B8BF6D420CDD84
:1001C0002C4480EA020281EA030382EA000083EA07
:1001D000010180EA020281EA0303362D88BF30BDA7
:1001E00011F0004F4FEA01314FF4801C4CEA1131FD
:1001F00002D0404261EB410113F0004F4FEA03335C
:100200004CEA133302D0524263EB430394EA050FE6
:1002100000F0A780A4F10104D5F1200E0DDB02FA55
:100220000EFC22FA05F2801841F1000103FA0EF2E9
:10023000801843FA05F359410EE0A5F120050EF1AF
:10024000200E012A03FA0EFC28BF4CF0020C43FAE0
:1002500005F3C01851EBE37101F0004507D54FF0ED
:10026000000EDCF1000C7EEB00006EEB0101B1F53D
:10027000801F1BD3B1F5001F0CD349085FEA300083
:100280004FEA3C0C04F101044FEA445212F5800F8E
:1002900080F09A80BCF1004F08BF5FEA500C50F12B
:1002A000000041EB045141EA050130BD5FEA4C0C0E
:1002B000404141EB010111F4801FA4F10104E9D197
:1002C00091F0000F04BF01460020B1FA81F308BF8E
:1002D0002033A3F10B03B3F120020CDA0C3208DD5A
:1002E00002F1140CC2F10C0201FA0CF021FA02F135
:1002F0000CE002F11402D8BFC2F1200C01FA02F1A5
:1003000020FA0CFCDCBF41EA0C019040E41AA2BFC9
:1003100001EB0451294330BD6FEA04041F3C1CDA91
:100320000C340EDC04F11404C4F1200220FA04F0B1
:1003300001FA02F340EA030021FA04F345EA03015B
:1003400030BDC4F10C04C4F1200220FA02F001FA1D
:1003500004F340EA0300294630BD21FA04F029469F
:1003600030BD94F0000F83F4801306BF81F4801138
:100370000134013D4EE77FEA645C18BF7FEA655CAB
:1003800029D094EA050F08BF90EA020F05D054EA7D
:10039000000C04BF1946104630BD91EA030F1EBF82
:1003A0000021002030BD5FEA545C05D14000494186
:1003B00028BF41F0004130BD14F580043CBF01F579
:1003C000801130BD01F0004545F0FE4141F470015F
:1003D0004FF0000030BD7FEA645C1ABF194610463A
:1003E0007FEA655C1CBF0B46024650EA013406BF3B
:1003F00052EA033591EA030F41F4002130BD00BFFA
:1004000090F0000F04BF0021704730B54FF48064B6
:1004100004F132044FF000054FF0000150E700BF37
:1004200090F0000F04BF0021704730B54FF4806496
:1004300004F1320410F0004548BF40424FF0000183
:100440003EE700BF42004FEAE2014FEA31014FEAC6
:1004500002701FBF12F07F4393F07F4F81F0605115
:10046000704792F0000F14BF93F07F4F704730B584
:100470004FF4607401F0004521F0004120E700BF17
:1004800050EA010208BF704730B54FF000050AE09E
:1004900050EA010208BF704730B511F0004502D59F
:1004A000404261EB41014FF4806404F132045FEAA1
:1004B000915C3FF4DCAE4FF003025FEADC0C18BF46
:1004C00003325FEADC0C18BF033202EBDC02C2F13C
:1004D000200300FA03FC20FA02F001FA03FE40EACE
:1004E0000E0021FA02F11444C1E600BF4FF0FF3CB8
:1004F00006E000BF4FF0010C02E000BF4FF0010C1E
:100500004DF804CD4FEA410C7FEA6C5C4FEA430C96
:1005100018BF7FEA6C5C1BD001B050EA410C0CBFE5
:1005200052EA430C91EA030F02BF90EA020F002047
:10053000704710F1000F91EA030F58BF994208BFAE
:1005400090422CBFD8176FEAE37040F0010070476B
:100550004FEA410C7FEA6C5C02D150EA013C07D1C2
:100560004FEA430C7FEA6C5CD6D152EA033CD3D00D
:100570005DF8040B704700BF8446104662468C4607
:100580001946634600E000BF01B5FFF7B7FF00283A
:1005900048BF10F1000F01BD4DF808EDFFF7F4FF63
:1005A0000CBF012000205DF808FB00BF4DF808EDEE
:1005B000FFF7EAFF34BF012000205DF808FB00BF11
:1005C0004DF808EDFFF7E0FF94BF012000205DF833
:1005D00008FB00BF4DF808EDFFF7CEFF94BF0120E8
:1005E00000205DF808FB00BF4DF808EDFFF7C4FFE1
:1005F00034BF012000205DF808FB00BF80F0004000
:1006000002E000BF81F0004142001FBF5FEA4103EA
:1006100092EA030F7FEA226C7FEA236C6AD04FEAEA
:100620001262D2EB1363C1BFD2184140484041402F
:10063000B8BF5B42192B88BF704710F0004F40F4E1
:10064000000020F07F4018BF404211F0004F41F4FD
:10065000000121F07F4118BF494292EA030F3FD0C9
:10066000A2F1010241FA03FC10EB0C00C3F12003DC
:1006700001FA03F100F0004302D5494260EB40006B
:10068000B0F5000F13D3B0F1807F06D340084FEAD6
:10069000310102F10102FE2A51D2B1F1004F40EBCB
:1006A000C25008BF20F0010040EA03007047490033
:1006B00040EB000010F4000FA2F10102EDD1B0FAFE
:1006C00080FCACF1080CB2EB0C0200FA0CF0AABFF3
:1006D00000EBC25052421843BCBFD0401843704791
:1006E00092F0000F81F4000106BF80F40000013297
:1006F000013BB5E74FEA41037FEA226C18BF7FEA6E
:10070000236C21D092EA030F04D092F0000F08BFAF
:100710000846704790EA010F1CBF0020704712F096
:100720007F4F04D1400028BF40F00040704712F1D5
:1007300000723CBF00F50000704700F0004343F03A
:10074000FE4040F4000070477FEA226216BF084670
:100750007FEA23630146420206BF5FEA412390EA33
:10076000010F40F4800070474FF0000304E000BF29
:1007700010F0004348BF40425FEA000C08BF7047DA
:1007800043F0964301464FF000001CE050EA01029E
:1007900008BF70474FF000030AE000BF50EA0102B3
:1007A00008BF704711F0004302D5404261EB4101A0
:1007B0005FEA010C02BF84460146002043F0B643C5
:1007C00008BFA3F18053A3F50003BCFA8CF2083AEA
:1007D000A3EBC25310DB01FA02FC634400FA02FCF3
:1007E000C2F12002BCF1004F20FA02F243EB0200FA
:1007F00008BF20F00100704702F1200201FA02FC5C
:10080000C2F1200250EA4C0021FA02F243EB02004E
:1008100008BF20EADC7070474FF0FF0C1CEAD05292
:100820001EBF1CEAD15392EA0C0F93EA0C0F6FD053
:100830001A4480EA010C400218BF5FEA41211ED031
:100840004FF0006343EA501043EA5111A0FB01311D
:100850000CF00040B1F5000F3EBF490041EAD371F2
:100860005B0040EA010062F17F02FD2A1DD8B3F16E
:10087000004F40EBC25008BF20F00100704790F0DD
:10088000000F0CF0004C08BF49024CEA502040EA2F
:1008900051207F3AC2BFD2F1FF0340EAC2507047F5
:1008A00040F400004FF00003013A5DDC12F1190F33
:1008B000DCBF00F000407047C2F10002410021FAA5
:1008C00002F1C2F1200200FA02FC5FEA310040F1BD
:1008D000000053EA4C0308BF20EADC70704792F036
:1008E000000F00F0004C02BF400010F4000F013A6E
:1008F000F9D040EA0C0093F0000F01F0004C02BF69
:10090000490011F4000F013BF9D041EA0C018FE7D7
:100910000CEAD15392EA0C0F18BF93EA0C0F0AD0DD
:1009200030F0004C18BF31F0004CD8D180EA010003
:1009300000F00040704790F0000F17BF90F0004F9C
:10094000084691F0000F91F0004F14D092EA0C0F7E
:1009500001D142020FD193EA0C0F03D14B0218BF11
:10096000084608D180EA010000F0004040F0FE4057
:1009700040F40000704740F0FE4040F440007047F3
:100980004FF0FF0C1CEAD0521EBF1CEAD15392EA72
:100990000C0F93EA0C0F69D0A2EB030280EA010C62
:1009A00049024FEA402037D04FF0805343EA1111FB
:1009B00043EA10130CF000408B4238BF5B0042F159
:1009C0007D024FF4000C8B4224BF5B1A40EA0C00FE
:1009D000B3EB510F24BFA3EB510340EA5C00B3EB30
:1009E000910F24BFA3EB910340EA9C00B3EBD10F1E
:1009F00024BFA3EBD10340EADC001B0118BF5FEA70
:100A00001C1CE0D1FD2A3FF650AF8B4240EBC25098
:100A100008BF20F0010070470CF0004C4CEA502059
:100A20007F32C2BFD2F1FF0340EAC250704740F4A8
:100A300000004FF00003013A37E792F0000F00F09A
:100A4000004C02BF400010F4000F013AF9D040EA18
:100A50000C0093F0000F01F0004C02BF490011F4AC
:100A6000000F013BF9D041EA0C0195E70CEAD153A4
:100A700092EA0C0F08D142027FF47DAF93EA0C0F8B
:100A80007FF470AF084676E793EA0C0F04D14B026F
:100A90003FF44CAF08466EE730F0004C18BF31F021
:100AA000004CCAD130F000427FF45CAF31F000431B
:100AB0007FF43CAF5FE700BF4FF0FF3C06E000BFB4
:100AC0004FF0010C02E000BF4FF0010C4DF804CDD7
:100AD0004FEA40024FEA41037FEA226C18BF7FEAE7
:100AE000236C11D001B052EA530C18BF90EA010FE9
:100AF00058BFB2EB030088BFC81738BF6FEAE17078
:100B000018BF40F0010070477FEA226C02D15FEA13
:100B1000402C05D17FEA236CE4D15FEA412CE1D07F
:100B20005DF8040B704700BF844608466146FFE746
:100B30000FB5FFF7C9FF002848BF10F1000F0FBD28
:100B40004DF808EDFFF7F4FF0CBF012000205DF821
:100B500008FB00BF4DF808EDFFF7EAFF34BF0120A6
:100B600000205DF808FB00BF4DF808EDFFF7E0FF3F
:100B700094BF012000205DF808FB00BF4DF808ED90
:100B8000FFF7D2FF94BF012000205DF808FB00BFF3
:100B90004DF808EDFFF7C8FF34BF012000205DF8D5
:100BA00008FB00BF4FEA4002B2F1FE4F0FD34FF0F7
:100BB0009E03B3EB12620DD94FEA002343F00043CA
:100BC00010F0004F23FA02F018BF404270474FF078
:100BD0000000704712F1610F01D1420205D110F0FF
:100BE000004008BF6FF0004070474FF000007047B2
:100BF00070B50F4E0F4D761BB61018BF002405D0F0
:100C0000013455F8043B9847A642F9D10A4E0B4DE2
:100C100004F084FC761BB61018BF002406D0013403
:100C200055F8043B9847A642F9D170BD70BD00BF8E
:100C3000FC550008FC55000804560008FC55000847
:100C4000024B13B1024800F005B8704700000000E5
:100C5000610C0008002301461A46184600F01EB831
:100C600038B50A4C0A4D641BA4100AD004F1804325
:100C7000013B05EB8305013C55F804399847002CEE
:100C8000F9D1BDE8384004F04FBC00BF0856000859
:100C900004560008704700BF704700BF2DE9F843B5
:100CA0002C4D0646286898460F469146FFF7F2FFFE
:100CB000294B1C68D4F84831002B3ED05A681F2AB3
:100CC0001CDC02F1010E76B1012103EB8204C4F8B1
:100CD0008890D3F8880191400843022EC3F8880118
:100CE000C4F8088123D00232C3F804E0286843F82E
:100CF0002270FFF7D1FF0020BDE8F883174B0BB33C
:100D00004FF4C870AFF300800346D8B10020D4F888
:100D100048114FF0010E586019600246C4F848317E
:100D2000C3F88801C3F88C01002EDCD0CCE7D3F8DF
:100D30008C010143C3F88C11D5E704F5A673C4F800
:100D40004831BBE72868FFF7A7FF4FF0FF30BDE849
:100D5000F88300BFA00500206055000800000000D7
:100D600010B504460E4B18784FF47A73B3FBF0F3CA
:100D70000C4A1068B0FBF3F000F0D4F968B90F2CFE
:100D800001D9012010BD002221464FF0FF3000F0B4
:100D90008BF9034B5C60002010BD012010BD00BF2B
:100DA000000000203001002008B5074A136843F016
:100DB00010031360032000F065F90020FFF7D0FF57
:100DC00004F01EF8002008BD00200240034A11680C
:100DD000034B1B780B441360704700BF840800204E
:100DE00000000020014B1868704700BF84080020F5
:100DF00030B482B00023019390F82430012B00F02E
:100E00008B800246012380F824304B68062B29D8BA
:100E10000568686B03EB8303053B1F249C4020EAB5
:100E200004000C6804FA03F303436B630B68092B9B
:100E300038D91568E86803EB43031E3B07249C4040
:100E400020EA04008C6804FA03F30343EB600B68A8
:100E5000103B012B34D90020002382F8243002B04B
:100E600030BC70470C2B0ED80568286B03EB83034E
:100E7000233B1F249C4020EA04000C6804FA03F37F
:100E800003432B63D2E70568E86A03EB8303413B26
:100E90001F249C4020EA04000C6804FA03F3034377
:100EA000EB62C3E71568286903EB430307249C4002
:100EB00020EA04008C6804FA03F303432B61C6E7BD
:100EC00013681648834205D0936A43F02003936267
:100ED0000120C1E7986810F4000F1BD1986840F416
:100EE000000098600B68102B01D00020B4E70C4B79
:100EF0001B680C49A1FB03139B0C03EB83035900F4
:100F0000019102E0019B013B0193019B002BF9D170
:100F10000020A1E700209FE70220A0E70024014075
:100F20003001002083DE1B4338B503689A6812F055
:100F3000010F01D1002038BD04469A6822F0010259
:100F40009A60FFF74FFF054623689B6813F0010F77
:100F50000ED0FFF747FF401B0228F5D9A36A43F0E4
:100F60001003A362E36A43F00103E362012038BD8A
:100F7000002038BD00287FD038B50446836A002B96
:100F80004AD02046FFF7D0FFA36A13F010036DD1BB
:100F900000286BD1A26A22F4885222F0020242F0A9
:100FA0000202A2626268E1690A43E56842EA450218
:100FB000A168B1F5807F38D0012933D0616901295A
:100FC00036D02568696821F469410B436B6021685C
:100FD0008D682A4B2B4013438B60A368B3F5807F49
:100FE00037D0012B35D000232568E96A21F4700140
:100FF0000B43EB6223689968214B0B409A422CD03B
:10100000A36A23F0120343F01003A362E36A43F0E0
:101010000103E362012038BDC36280F8243003F08D
:101020003FFFAEE74FF48073C8E74FF48073C5E726
:1010300035B9A169013943EA413343F40063C0E79C
:10104000A16A41F02001A162E16A41F00101E1627F
:10105000B7E72369013B1B05C6E70023E362A36AE8
:1010600023F0030343F00103A36238BDA36A43F0F6
:101070001003A362012038BD01207047FDF7E1FF96
:10108000FE0E1FFF074AD36823F4E0631B041B0C0A
:10109000000200F4E060184340F0BF6040F400300C
:1010A000D060704700ED00E030B4164BDB68C3F34E
:1010B0000223C3F10704042C28BF04241D1D062DA0
:1010C00017D9033B012505FA04F4013C214099405E
:1010D00005FA03F3013B1340194300280BDB090118
:1010E000C9B200F1604000F5614080F8001330BCE7
:1010F00070470023E6E700F00F000901C9B2024B78
:101100001954F4E700ED00E014ED00E0420900F0AE
:101110001F00012303FA00F0014B43F8220070473F
:1011200000E100E00138B0F1807F0AD2064B586040
:10113000F021064A82F823100020986007221A60E6
:1011400070470120704700BF10E000E000ED00E0B4
:10115000042805D0054A136823F004031360704780
:10116000024A136843F004031360704710E000E084
:10117000704708B5FFF7FCFF08BD0000002830D01D
:1011800010B403460068184A02441849A1FB021231
:10119000120992001A64164ADA63022283F82120A7
:1011A000016821F47F5121F030015A689C68224384
:1011B000DC6822431C6922435C6922439C69224308
:1011C000DC6922430A43026000209862D8621863F7
:1011D00058639863012283F8212083F8200010BC13
:1011E00070470120704700BFF8FFFDBFCDCCCCCCCD
:1011F0000000024038B5C36B1A6804682568016CAA
:1012000004238B401A4236D015F0040F33D02368E4
:1012100013F0200F03D1236823F004032360036835
:10122000434A934214D01432934219D01432934259
:1012300018D01432934218D01432934218D014327A
:10124000934202D04FF0806203E04FF4800200E04E
:101250000422384B5A60C36A002B67D0984738BDC8
:101260004022F6E74FF48062F3E74FF48042F0E764
:101270004FF48022EDE702238B401A423BD015F059
:10128000020F38D0236813F0200F06D1236823F013
:101290000A032360012380F821300368244A934223
:1012A00014D0143293421BD0143293421AD0143209
:1012B00093421AD0143293421AD01432934202D07D
:1012C0004FF0007203E04FF4001200E00222194BCD
:1012D0005A60002380F82030836A3BB3984738BDBA
:1012E0002022F4E74FF40072F1E74FF40052EEE7EA
:1012F0004FF40032EBE7082303FA01F10A4215D05C
:1013000015F0080F12D0236823F00E032360C16B81
:10131000026C012303FA02F24A60836380F82130F1
:10132000002380F82030036B03B1984738BD00BF1D
:101330000800024000000240F0B583B000263446A9
:1013400071E0002D00F0A180012D00D1CE68FF2BAF
:1013500000F2AF808646FF2B00F2AE80A500DEF8DB
:1013600000200F27AF4022EA070206FA05F52A43BC
:10137000CEF800204A6812F0805F53D0634A956926
:1013800045F001059561926902F001020192019A0E
:10139000A508AF1C5E4A52F8272004F00307BF00DF
:1013A0004FF00F0E0EFA07FE22EA0E02DFF870E190
:1013B000704500F088800EF5806E704500F08680E4
:1013C0000EF5806E704500F084800EF5806E7045DD
:1013D00076D04FF0040E0EFA07F73A4302354C4F21
:1013E00047F825204A6812F4803F75D0494D2A6895
:1013F0001A432A604A6812F4003F73D0454D6A6868
:101400001A436A604A6812F4801F71D0414DAA687D
:101410001A43AA604A6812F4001F6FD03D4DEA6873
:101420001343EB6001340F2C6ED80122A2400B68ED
:1014300013409A42F6D14D68122D30D00BD8022DB0
:101440002AD07FF67EAF032D2FD0112D7FF47FAFF2
:10145000CE6804367BE7304FBD4216D00CD92F4FF3
:10146000BD4212D007F58037BD420ED0A7F58017D8
:10147000BD427FF46CAF08E0A7F58017BD4204D0F1
:1014800007F58037BD427FF462AF8D687DB1012DD5
:1014900008D0426108265AE7CE68083657E7CE687A
:1014A0000C3654E70261082651E700264FE7042670
:1014B0004DE700F1040E4EE7A4F10805AD004EE73C
:1014C0004FF0030E87E74FF0000E84E74FF0010E58
:1014D00081E74FF0020E7EE70E4D2A6822EA0302F2
:1014E0002A6087E70B4D6A6822EA03026A6089E78F
:1014F000084DAA6822EA0302AA608BE7054DEA6854
:1015000022EA0303EB608DE703B0F0BD0010024058
:1015100000000140000401400000211000003110D3
:101520000008014012B90904016170470161704768
:101530007047000008B5054B5B69034200D108BD48
:10154000024B5861FFF7F4FFF9E700BF00040140C8
:10155000002866D0F0B587B0044690F82934C3B1AE
:10156000032384F82934206801F053FE254655F8FA
:10157000107B6E460FCD0FC62B683360231D0ECB3C
:10158000384601F036FE0021206801F04CFE0023B1
:1015900015E080F8283403F0F9FDE1E704EB43128D
:1015A000012182F8291082F828309386002182F8E0
:1015B0002B109163D1639A1C5201A15001330E2B61
:1015C000ECD9002312E004EB4312002182F8291227
:1015D00082F82832938682F82B12C2F83812C2F8A9
:1015E0003C1203F112025201A15001330E2BEAD931
:1015F000254655F8107B6E460FCD0FC62B6833601D
:10160000231D0ECB384601F010FE002584F824502F
:10161000012384F82934206802F020F9284607B015
:10162000F0BD0120704790F82834012B01D1022031
:10163000704710B50446012180F8281403F0E5FE38
:10164000206802F009F9206801F0DAFD002084F832
:10165000280410BD90F82834012B01D102207047D6
:1016600010B50446012380F8283480F8241000685F
:1016700002F0ECF8002084F8280410BD38B54DB213
:10168000002D12DB01F07F04640104F50A740444A8
:1016900001F07F012170ED0F65702261E37090F819
:1016A0002834012B07D1022038BD01F07F046401EA
:1016B00028340444ECE70546012380F82834214609
:1016C000006801F0C8FD002085F8280438BD4AB242
:1016D000002A10DB01F07F035B0103F50A7303446A
:1016E00001F07F011970D20F5A7090F82824012A56
:1016F00007D10220704701F07F035B0128330344C8
:10170000EEE710B50446012280F828241946006847
:1017100001F03AFF002084F8280410BD70B501F0F4
:101720007F056C0104F50A7101440444C4F83C22AD
:1017300005F112025201861883500023736084F869
:10174000293284F8285225B1006802F0A4F800205C
:1017500070BD006802F09FF8F9E701F00F01123147
:1017600000EB41118888704770B501F07F056C016E
:1017700004F1280101440444E263AA1C52018618C2
:10178000835000237360012384F8293084F82850A3
:1017900025B1006802F07FF8002070BD006802F0FB
:1017A0007AF8F9E770B582B005460023ADF8063047
:1017B000ADF8043095E103889BB223F4E14323F0B4
:1017C00070039BB203802A68B2F850309BB295F840
:1017D000281003EBC103023302EB4303D3F80034B8
:1017E000C3F309036B64EA6B1344EB6300212846DF
:1017F00003F0FEFC95F82430002B00F072812B6C76
:10180000002B40F06E812A6895F8243043F0800365
:10181000A2F84C30002385F8243062E1B0F8503053
:101820009BB295F8282203EBC203063300EB430377
:10183000D3F80034C3F30903C5F84432B5F82C22B9
:1018400005F22C4102F08DF92A68138823F0700309
:101850001B051B0D1380284603F0B8FC41E1B5F8C9
:101860002C22D5F83C1202F07CF9D5F84422D5F8A8
:101870003C321344C5F83C3272E1C1F34F0211F01F
:10188000010F01D0013292B2920292B2C3F8002449
:1018900084E130F824309BB2ADF80430BDF8043058
:1018A00013F4004F36D1BDF8043013F0800F00F070
:1018B00018812A6832F824309BB223F4E14323F0E4
:1018C00070039BB222F8243005EB441393F83230B6
:1018D000002B40F0B6802868B0F850309BB205EB82
:1018E000441292F8282003EBC203023300EB4303B7
:1018F000D3F80034C3F30903A21C05EB4212536072
:10190000002B00F0CD8005EB44118A8DC96B01F0EE
:10191000ADFFC5E030F8243023F070031B051B0D2C
:1019200020F8243005EB441393F83232DBB92868F1
:10193000B0F850309BB205EB441292F8282203EB2A
:10194000C203063300EB4303B3F80064C6F3090691
:101950008EB305EB44113346B1F82C22D1F83C127A
:1019600002F0FFF827E0286805EB441393F82822DB
:1019700030F8223013F4804F43D0B0F850309BB28F
:1019800003EBC203023300EB4303B3F80064C6F376
:10199000090666BB2A6805EB441393F8281232F84F
:1019A000213023F0F0031B051B0D43F4004343F0EB
:1019B000C00322F8213004F112035B01E9184A68E0
:1019C00032444A6005EB4411D1F83C223244C1F85C
:1019D0003C22EB581BB1D1F838128E4229D205EBCC
:1019E000441393F82812284603F0F8FB5BE705EB55
:1019F00044113346B1F82E22D1F83C1202F0B1F86E
:101A0000C8E7B0F850309BB203EBC203063300EBDB
:101A10004303B3F80064C6F30906002EBAD005EB01
:101A200044113346B1F83022D1F83C1202F099F853
:101A3000B0E705EB441191F828122846FFF76EFE37
:101A400031E7286805EB441393F8282030F822305A
:101A500013F0400F00F0B880B0F850309BB203EBA9
:101A6000C203023300EB4303D3F80034C3F309038A
:101A7000A21C05EB42125360002B40F09E802A68A6
:101A800005EB441393F8281032F8213023F0F003CB
:101A90001B051B0D43F4404343F0800322F8213023
:101AA0002A68B2F850309BB205EB441090F8281029
:101AB00003EBC103023302EB4303D3F80024C2F368
:101AC0000902A31C5B01E9184A60C16B0A44C263A6
:101AD000EB58002B40F0928090F82810284603F035
:101AE00087FB2868B0F844309BB2ADF8063013F499
:101AF000004F00F08B80BDF8064014F00F047FF417
:101B0000C8AEBDF8063013F0100F3FF454AE038892
:101B10009BB2ADF80430BDF8043013F4006F7FF4CD
:101B20007DAEBDF8043013F4004FDAD0038823F003
:101B300070031B051B0D03802868B0F850309BB262
:101B400095F8282203EBC203063300EB4303D3F8D6
:101B50000034C3F30903C5F84432002B7FF47FAE91
:101B60000021284603F03AFB2A68B2F850309BB2B5
:101B7000063302EB4303D5F838123E297FF67DAEDB
:101B8000C1F34F1211F01F0F01D1013A92B26FEA67
:101B9000C2626FEA524292B2C3F800242A681388E4
:101BA0009BB223F4804323F0700383F4405343F447
:101BB000004343F08003138093E705EB4411CA8D83
:101BC000C96B01F053FE5AE7B0F850309BB203EBFB
:101BD000C203063300EB4303D3F80034C3F3090315
:101BE000A21C05EB42125360002B3FF448AF05EBFB
:101BF00044110A8EC96B01F039FE40E705EB44142D
:101C000094F828102846FFF7AFFD6AE7002002B0DD
:101C100070BD10B50446006801F022FE10F4004FBC
:101C200045D1206801F01CFE10F4806F43D120687C
:101C300001F016FE10F4804F08D02268B2F844304C
:101C40009BB223F480439BB2A2F84430206801F099
:101C500007FE10F4005F08D02268B2F844309BB24F
:101C600023F400539BB2A2F84430206801F0F8FD41
:101C700010F4805F30D1206801F0F2FD10F4006FA5
:101C800049D1206801F0ECFD10F4007F66D1206896
:101C900001F0E6FD10F4807F08D02268B2F84430ED
:101CA0009BB223F480739BB2A2F8443010BD20464F
:101CB000FFF778FDB5E72268B2F844309BB223F411
:101CC00080639BB2A2F84430204603F0A0FA0021C2
:101CD0002046FFF7BFFCAAE72268B2F840309BB26B
:101CE00023F004039BB2A2F840302268B2F84030DF
:101CF0009BB223F008039BB2A2F84030204603F0C9
:101D0000A3FA2268B2F844309BB223F480539BB20A
:101D1000A2F84430AFE72268B2F840309BB243F0FB
:101D20000803A2F840302268B2F844309BB223F492
:101D300000639BB2A2F844302268B2F840309BB2F4
:101D400043F00403A2F84030206801F089FD10F44C
:101D5000805F96D1204603F067FA92E72268B2F8D6
:101D600044309BB223F400739BB2A2F84430204667
:101D700003F047FA8BE738B54AB2002A10DB4B0173
:101D800003F50A73034401249C7001F07F041C7066
:101D9000D20F5A7090F82824012A07D1022038BDAA
:101DA00001F07F035B0128330344ECE70546012281
:101DB00080F828241946006801F0C8FC1CB10020F6
:101DC00085F8280438BD05F22C41286801F04CFD47
:101DD000F5E710B54AB2002A10DB4B0103F50A7390
:101DE000034400249C7001F07F011970D20F5A70D7
:101DF00090F82824012A07D1022010BD01F07F03AA
:101E00005B0128330344ECE70446012280F82824D0
:101E10001946006801F0D1FC002084F8280410BDA8
:101E200011F0800F0CD001F07F01490128310144ED
:101E30005AB101228A72CB801B0C0B8100207047A3
:101E4000490101F50A710144F2E78A728B80F5E7D6
:101E500082B0084B1B68084AA2FB03235B0A00FB05
:101E600003F0019000BF019B5A1E0192002BF9D193
:101E700002B0704730010020D34D621070B582B0BF
:101E80000446036813F0010F3DD0AC4B5B6803F0D0
:101E90000C03042B2ED0A94B5B6803F00C03082B1A
:101EA00023D06368B3F5803F51D0002B55D103F1A7
:101EB000804303F504331A6822F480321A601A68EA
:101EC00022F480221A606368002B60D0FEF78AFF3C
:101ED00005469A4B1B6813F4003F14D1FEF782FFAE
:101EE000401B6428F5D90320AFE1944B5B6813F4E1
:101EF000803FD6D0914B1B6813F4003F03D063683A
:101F0000002B00F09F81236813F0020F65D08B4BEC
:101F10005B6813F00C0F4ED0884B5B6803F00C032A
:101F2000082B43D02369002B79D00122844B1A60FF
:101F3000FEF758FF0546814B1B6813F0020F65D171
:101F4000FEF750FF401B0228F5D903207DE17B4AB4
:101F5000136843F480331360B5E7B3F5A02F09D0BD
:101F6000764B1A6822F480321A601A6822F48022B2
:101F70001A60A8E703F18043A3F53C331A6842F4E2
:101F800080221A601A6842F480321A609BE7FEF7DA
:101F900029FF0546694B1B6813F4003FB3D0FEF7D9
:101FA00021FF401B6428F5D903204EE1634B5B6899
:101FB00013F4803FB6D1614B1B6813F0020F04D0BD
:101FC0002369012B01D001203FE15C4A136823F013
:101FD000F803616943EAC1031360236813F0080F33
:101FE00032D0A369002B6ED00122564B1A60FEF747
:101FF000F9FE0546514B5B6A13F0020F21D1FEF743
:10200000F1FE401B0228F5D903201EE14B4A13685C
:1020100023F0F803616943EAC1031360DDE700229E
:10202000474B1A60FEF7DEFE0546444B1B6813F073
:10203000020FD2D0FEF7D6FE401B0228F5D90320AE
:1020400003E10120FFF704FF236813F0040F00F001
:1020500099803A4BDB6913F0805F46D1374BDA69E0
:1020600042F08052DA61DB6903F080530193019BF7
:102070000125354B1B6813F4807F38D0E368012BB2
:1020800049D0002B4DD103F1804303F504331A6A84
:1020900022F001021A621A6A22F004021A62E3684C
:1020A000002B5DD0FEF79EFE0646244B1B6A13F004
:1020B000020F66D1FEF796FE801B41F288339842EC
:1020C000F3D90320C1E000221E4B1A60FEF78AFEFE
:1020D00005461A4B5B6A13F0020FB5D0FEF782FE7D
:1020E000401B0228F5D90320AFE00025C1E7164ABE
:1020F000136843F480731360FEF774FE0646124BB8
:102100001B6813F4807FB9D1FEF76CFE801B642836
:10211000F5D9032099E0094A136A43F001031362D9
:10212000BDE7052B12D0054B1A6A22F001021A6294
:102130001A6A22F004021A62B1E700BF00100240DE
:10214000000042428004424200700040414B1A6A43
:1021500042F004021A621A6A42F001021A629EE711
:10216000FEF740FE06463B4B1B6A13F0020F08D0F9
:10217000FEF738FE801B41F288339842F3D90320E2
:1021800063E0E5B9E369002B5ED0324A526802F0A1
:102190000C02082A5BD0022B17D000222E4B1A60AB
:1021A000FEF720FE04462B4B1B6813F0007F47D040
:1021B000FEF718FE001B0228F5D9032045E0254A4A
:1021C000D36923F08053D361DCE70022224B1A60ED
:1021D000FEF708FE05461F4B1B6813F0007F06D074
:1021E000FEF700FE401B0228F5D903202DE0236AEC
:1021F000B3F5803F1AD017494B6823F47413226A51
:10220000606A024313434B600122134B1A60FEF7CE
:10221000E9FD04460F4B1B6813F0007F0ED1FEF75B
:10222000E1FD001B0228F5D903200EE0094A53689E
:1022300023F40033A1680B435360DCE7002004E083
:10224000002002E0012000E0002002B070BD01206B
:10225000FBE700BF001002406000424210B586B0AC
:10226000154C94E80F000DF1180E0EE90F00238AAB
:10227000ADF80430114B5B6803F00C02082A18D14A
:10228000C3F38342724412F8102C13F4803F03D13D
:102290000B4800FB02F00DE0084B5B68C3F34043C2
:1022A000734413F8143C074800FB02F0B0FBF3F052
:1022B00000E0044806B010BD34550008001002408C
:1022C00000093D0000127A00594B1B6803F0070318
:1022D0008B420CD2564A136823F007030B4313605A
:1022E000136803F00703994201D00120704770B5CD
:1022F000036813F0020F06D04E4A536823F0F00330
:102300008468234353600D460446036813F0010FAD
:1023100052D04368012B23D0022B28D0454A1268A3
:1023200012F0020F00F0828042494A6822F0030254
:1023300013434B60FEF756FD06466368012B1DD024
:10234000022B2AD03B4B5B6813F00C0F34D0FEF706
:1023500049FD801B41F288339842F3D9032070BDB8
:10236000344A126812F4003FDED1012070BD314AB8
:10237000126812F0007FD7D1012070BD2D4B5B6831
:1023800003F00C03042B17D0FEF72CFD801B41F249
:1023900088339842F2D9032070BD264B5B6803F066
:1023A0000C03082B08D0FEF71DFD801B41F288337B
:1023B0009842F2D9032070BD1D4B1B6803F0070340
:1023C0009D420CD21A4A136823F007032B43136073
:1023D000136803F007039D4201D0012070BD2368FC
:1023E00013F0040F06D0134A536823F4E063E16846
:1023F0000B435360236813F0080F07D00D4A53684E
:1024000023F46053216943EAC1035360FFF726FFB9
:10241000084B5B68C3F30313074AD35CD840074BF0
:1024200018600020FEF79CFC002070BD012070BDEC
:1024300000200240001002404855000830010020F2
:10244000014B1868704700BF3001002070B582B0A2
:102450000446036813F0010F34D03E4BDB6913F0E0
:10246000805F48D13B4BDA6942F08052DA61DB6928
:1024700003F080530193019B0125374B1B6813F434
:10248000807F3AD0334B1B6A13F4407311D06268DB
:1024900002F4407293420CD02E4A136A23F4407027
:1024A0002E4901260E6000260E60106213F0010F07
:1024B00037D1284A136A23F4407361680B431362CF
:1024C000002D3FD1236813F0020F06D0214A536834
:1024D00023F44043A1680B435360236813F0100FAB
:1024E00035D01C4A536823F48003E1680B435360E2
:1024F000002002B070BD0025BFE7174A136843F4FF
:1025000080731360FEF76EFC0646134B1B6813F4D2
:10251000807FB7D1FEF766FC801B6428F5D90320C5
:10252000E7E7FEF75FFC06460A4B1B6A13F0020F53
:10253000BFD1FEF757FC801B41F288339842F3D994
:102540000320D6E7D36923F08053D361BAE7002094
:10255000CFE700BF0010024000700040400442423C
:10256000F8B505460F4616461C463BE02CB1FEF773
:1025700039FC069BC01A844234D82A68536823F079
:10258000E00353606B68B3F5827F0BD0AB6AB3F5A1
:10259000005F14D0012385F85130002385F85030B6
:1025A0000320F8BDAB68B3F5004F02D0B3F5806FE0
:1025B000ECD12A68136823F040031360E6E72A6829
:1025C000136823F400531B041B0C13602A68136860
:1025D00043F400531360DDE70123B34209D0B4F1A3
:1025E000FF3FC3D12B689B6837EA0303F4D0002375
:1025F000F3E70020F8BD10B582B0044600920B4608
:1026000000228021FFF7ACFF034620B1636D43F049
:10261000200363650323184602B010BD2DE9F04383
:1026200085B098460C9D90F85030012B04D10223C0
:10263000184605B0BDE8F08304460F461646012350
:1026400080F85030FEF7CEFB814694F85130DBB273
:102650006268012B12D0B2F5827F07D002230122DB
:1026600084F85120002284F85020E1E7A268002A73
:1026700040F0E980042B01D00223F0E7002F00F0A6
:10268000E480002E00F0E380B8F1000F00F0E1805C
:1026900094F85130DBB2012B2CD000236365A66384
:1026A000A4F83E80A4F83C802763A4F83680A4F800
:1026B00034802364636423681A6812F0400F03D1E6
:1026C0001A6842F040021A60E368B3F5006F15D053
:1026D00063681BB1E38E9BB2012B08D1236817F806
:1026E000012B1A73E38E9BB2013B9BB2E3864FF042
:1026F000010869E0052384F85130CEE763681BB117
:10270000E38E9BB2012B08D1236837F8022BDA60E5
:10271000E38E9BB2013B9BB2E3864FF001081AE0C7
:10272000E38F9BB273B123689A6812F0010F09D04E
:10273000DB6826F8023BE38F9BB2013B9BB2E38749
:102740004FF00108B5F1FF3F05D0FEF74BFBA0EBC2
:10275000090085427FD9E38E9BB21BB9E38F9BB200
:10276000002B4ED0B8F1000FDAD0E38E9BB2002BD5
:10277000D6D023689A6812F0020FD1D037F8022B16
:10278000DA60E38E9BB2013B9BB2E3864FF0000818
:10279000C6E7E38F9BB273B123689A6812F0010F0A
:1027A00009D0DB683370E38F9BB2013B9BB2E387B8
:1027B00001364FF00108B5F1FF3F05D0FEF712FBDF
:1027C000A0EB0900854248D9E38E9BB213B9E38F91
:1027D0009BB2B3B1B8F1000FDBD0E38E9BB2002BFC
:1027E000D7D023689A6812F0020FD2D03A781A73C1
:1027F000E38E9BB2013B9BB2E38601374FF00008AA
:10280000C7E7CDF800902B46012202212046FFF7B2
:10281000A7FE08B1032322E74A4629462046FFF7D0
:10282000EAFE034618B120236365012317E7A26877
:10283000002A7FF414AF03922268D1680391926852
:102840000392039A0BE7022309E7012307E7012319
:1028500005E7012303E7032301E70323FFE62DE94F
:10286000F04182B004460D4690461E464368B3F5DB
:10287000827F07D094F85030012B0FD1022002B094
:10288000BDE8F0818368002BF4D1042380F8513037
:10289000009613460A46FFF7C1FEF0E7012384F8CD
:1028A0005030FEF79FFA074694F85130DBB2012B07
:1028B00007D00220012384F85130002384F85030DF
:1028C000DDE7002D72D0B8F1000F71D0042384F839
:1028D000513000236365A563A4F83C80A4F83E80D2
:1028E0002363A386E38623646364A368B3F5004F80
:1028F0000BD023681A6812F0400F03D11A6842F017
:1029000040021A60E36883B12AE02268136823F466
:1029100080431360EDE7002E4CD0B6F1FF3F04D0AA
:10292000FEF760FAC01B864246D9E38F9BB243B3E1
:1029300023689A6812F0010FEDD01B7B05F8013B6C
:10294000E38F9BB2013B9BB2E387EEE7002E35D0CD
:10295000B6F1FF3F04D0FEF745FAC01B86422FD9DF
:10296000E38F9BB26BB123689A6812F0010FEDD030
:10297000DB6825F8023BE38F9BB2013B9BB2E38708
:10298000EEE76368B3F5827F03D0636DD3B90020AF
:1029900090E7A368B3F5004F02D0B3F5806FF4D190
:1029A0002268136823F040031360EEE7012081E7FB
:1029B00001207FE703207DE703207BE7032079E701
:1029C000032077E7012075E700283CD010B50446C6
:1029D0000023836290F85130002B31D0022384F819
:1029E00051302268136823F0400313602268636843
:1029F000A1680B43E1680B4321690B4361690B43F9
:102A0000A16901F400710B43E1690B43216A0B4397
:102A1000A16A0B4313602268638B03F00403616AAD
:102A20000B4353602368E26A1A612268D36923F476
:102A30000063D36100206065012384F8513010BD2C
:102A400002F050FACAE701207047000030B4036A70
:102A500023F001030362036A4468826922F073026F
:102A60000D682A4323F002038D682B430D4DA842C5
:102A700009D00C4DA8420DD0446082614A6842637F
:102A8000036230BC704723F00803CD682B4323F06A
:102A90000403EEE724F440744D692C438D692C4304
:102AA000EAE700BF002C014030B4036A23F48073CE
:102AB0000362036A4468C26922F073020D682A4304
:102AC00023F400738D6843EA05230F4DA84209D013
:102AD0000D4DA8420ED04460C2614A68C2630362D1
:102AE00030BC704723F40063CD6843EA052323F428
:102AF0008063EDE724F440544D6944EA05148D6980
:102B000044EA0514E7E700BF002C014030B4036A33
:102B100023F480530362036A4468C26922F4E642E4
:102B20000D6842EA052223F400538D6843EA053319
:102B3000074DA84206D04460C2614A68026403623D
:102B400030BC704724F480444D6944EA8514F2E7B0
:102B5000002C014010B4036A046A24F001040462EA
:102B6000846924F0F00444EA021223F00A030B43C0
:102B70008261036210BC704710B4036A23F0100333
:102B800003628469036A24F4704444EA023223F045
:102B9000A00343EA01138261036210BC704783689B
:102BA00023F0700341F007010B438360704710B4BA
:102BB000846824F47F4442EA032319430C4384606D
:102BC00010BC704710B50268936823F070034C681E
:102BD000234323F007030C68234393604B68502B77
:102BE0001FD00AD9602B22D0702B25D10B698A689F
:102BF000C9680068FFF7DBFF10BD402B10D10368E8
:102C00001C6A1A6A22F001021A620268936923F0B0
:102C1000F003096943EA0113936103681C6210BD64
:102C200010BD0A6989680068FFF794FF10BD0A6942
:102C300089680068FFF7A0FF10BD0268D36843F001
:102C40000103D3600268136843F00103136000209E
:102C500070477047704790F83C30012B7DD010B51D
:102C60000446012380F83C30022380F83D3002689E
:102C7000936823F47F4323F0770393600B68402B22
:102C800057D010D9702B3ED01FD8502B47D0602B77
:102C900032D1CA6849680068FFF76EFF602120687A
:102CA000FFF77DFF28E0102B4DD008D9202B4FD007
:102CB000302B21D130210068FFF771FF1CE0DBB918
:102CC00000210068FFF76BFF16E0B3F5805F0ED0C0
:102CD000B3F5005F10D1CB684A6889680068FFF7D8
:102CE00066FF2268936843F48043936004E00268BF
:102CF000936823F007039360012384F83D3000209C
:102D000084F83C0010BDCB684A6889680068FFF70A
:102D10004EFF2268936843F077039360ECE7CA683C
:102D200049680068FFF716FF50212068FFF737FF5A
:102D3000E2E7CA6849680068FFF70CFF4021206895
:102D4000FFF72DFFD8E710210068FFF728FFD3E732
:102D500020210068FFF723FFCEE70220704738B537
:102D600090F83C30012B01D1022038BD04460125EA
:102D700080F83C50022380F83D30FFF723FF2268A3
:102D8000D36823F04003D3602268D36823F48043E0
:102D9000D36084F83D50002084F83C0038BD704773
:102DA000704770477047704710B5044603681A694A
:102DB00012F0020F11D0DA6812F0020F0DD06FF08E
:102DC00002021A610123037703689B6913F0030F62
:102DD00070D0FFF7E6FF0023237723681A6912F00B
:102DE000040F12D0DA6812F0040F0ED06FF0040254
:102DF0001A610223237723689B6913F4407F5FD015
:102E00002046FFF7CEFF0023237723681A6912F0CC
:102E1000080F12D0DA6812F0080F0ED06FF0080217
:102E20001A61042323772368DB6913F0030F4ED064
:102E30002046FFF7B6FF0023237723681A6912F0B4
:102E4000100F12D0DA6812F0100F0ED06FF01002CF
:102E50001A61082323772368DB6913F4407F3DD090
:102E60002046FFF79EFF0023237723681A6912F09C
:102E7000010F03D0DA6812F0010F36D123681A6906
:102E800012F0800F03D0DA6812F0800F34D123687B
:102E90001A6912F0400F03D0DA6812F0400F32D1F5
:102EA00023681A6912F0200F03D0DA6812F0200F9D
:102EB00030D110BDFFF774FF2046FFF773FF8AE79C
:102EC0002046FFF76DFF2046FFF76CFF9BE720468B
:102ED000FFF766FF2046FFF765FFACE72046FFF7E8
:102EE0005FFF2046FFF75EFFBDE76FF001021A614A
:102EF0002046FFF754FFC1E76FF080021A612046B9
:102F000000F076F9C3E76FF040021A612046FFF740
:102F10004AFFC5E76FF020021A61204600F067F90A
:102F2000C7E7000003681C4A904227D0B0F1804FE9
:102F300024D0A2F59432904220D002F580629042D3
:102F40001CD0154A90421ED0B0F1804F1BD0A2F584
:102F50009432904217D002F58062904213D023F051
:102F600080034A69134303608B68C3620B68836202
:102F7000094B98420CD001234361704723F0700342
:102F80004A681343DDE723F44073CA681343E6E756
:102F90000B690363EFE700BF002C0140A8B110B537
:102FA000044690F83D305BB1022384F83D30211D8A
:102FB0002068FFF7B7FF012384F83D30002010BDE3
:102FC00080F83C3001F0C8FFEEE701207047A8B15F
:102FD00010B5044690F83D305BB1022384F83D30D3
:102FE000211D2068FFF79EFF012384F83D3000205B
:102FF00010BD80F83C30FFF72CFEEEE70120704753
:10300000A8B110B5044690F83D305BB1022384F8B6
:103010003D30211D2068FFF785FF012384F83D30F6
:10302000002010BD80F83C30FFF714FEEEE70120D1
:103030007047000030B4036A23F010030362036A90
:103040004468826922F4E6420D6842EA052223F0D0
:1030500020038D6843EA05130E4DA84209D00D4D9B
:10306000A8420ED0446082614A688263036230BC29
:10307000704723F08003CD6843EA051323F0400333
:10308000EDE724F440644D6944EA85048D6944EA1F
:103090008504E7E7002C014090F83C30012B28D054
:1030A00010B50446012380F83C30022380F83D30FF
:1030B0000C2A0BD8DFE802F0070A0A0A110A0A0AEA
:1030C000150A0A0A19000068FFF7C0FC012384F8FA
:1030D0003D30002084F83C0010BD0068FFF7AAFFD7
:1030E000F4E70068FFF7E0FCF0E70068FFF70EFD8B
:1030F000ECE70220704710B4012303FA01F4036ADD
:1031000023EA04030362036A8A401343036210BC88
:103110007047000010B5044601220068FFF7EBFF7E
:103120002368074A934206D02268136843F00103DC
:103130001360002010BD5A6C42F400425A64F3E759
:10314000002C014010B5044600220068FFF7D3FFB1
:103150002368114A934210D02368196A41F2111270
:10316000114208D1196A40F24442114203D11A684F
:1031700022F001021A60002010BD196A41F21112FA
:103180001142E9D1196A40F244421142E4D15A6C29
:1031900022F400425A64DFE7002C014090F83C30F2
:1031A000012B22D030B4012280F83C20022380F889
:1031B0003D300468636823F07003636004686368EB
:1031C0000D682B4363600468A36823F08003A36049
:1031D0000468A36849680B43A36080F83D2000237E
:1031E00080F83C30184630BC70470220704770476A
:1031F000704784B001A880E80E00002004B070473A
:10320000B0F840309BB243F43F43A0F84030002078
:103210007047B0F8403023F474535B045B0CA0F8A3
:103220004030002070470020704784B038B505ACAE
:1032300084E80E000123A0F840300024A0F84040AC
:10324000A0F84440A0F85040FFF7DAFF2046BDE860
:10325000384004B0704710B4CB78032B0FD8DFE8A8
:1032600003F0026E55610A7830F822309BB223F4E5
:10327000EC4323F0700343F4007320F822300A7803
:1032800030F8223023F0F0031B051B0D134343F4E9
:10329000004343F0800320F822308B7A002B40F06B
:1032A000B2804B78002B57D0B0F850309BB20A78E0
:1032B00003EBC20300EB43038A8852085200C3F8B1
:1032C00000240A7830F8223013F0400F0BD030F889
:1032D000223023F0F0031B051B0D43F4004343F0A1
:1032E000C00320F822300A7830F822309BB223F451
:1032F000E04323F0400383F0200343F4004343F012
:10330000800320F82230002010BC70470A7830F883
:1033100022309BB223F4EC4323F070039BB220F8DD
:103320002230ACE70A7830F822309BB223F4EC4329
:1033300023F0700343F4C06320F822309FE70A783B
:1033400030F822309BB223F4EC4323F0700343F4B3
:10335000806320F8223092E7B0F850309BB20A78B0
:1033600003EBC203043300EB43038A885208520084
:10337000C3F80024B0F850309BB20A7803EBC203C4
:10338000063300EB43030C693E2C30D9C4F34F12D3
:1033900014F01F0F01D1013A92B26FEAC2626FEAD4
:1033A000524292B2C3F800240A7830F8223013F463
:1033B000804F0BD030F8223023F0F0031B051B0D9B
:1033C00043F4404343F0800320F822300A7830F879
:1033D00022309BB223F4804323F0700383F44053E4
:1033E00043F4004343F0800320F822308BE7C4F31A
:1033F0004F0214F0010F01D0013292B2920292B248
:10340000C3F80024D0E70A7830F8223023F4F873A8
:103410001B051B0D43F4014343F0800320F82230C9
:10342000B0F850309BB20A7803EBC20300EB4303C1
:10343000CA8852085200C3F80024B0F850309BB23A
:103440000A7803EBC203043300EB43030A895208F2
:103450005200C3F800244B78002B4BD10A7830F887
:10346000223013F4804F0BD030F8223023F0F003D9
:103470001B051B0D43F4404343F0800320F822302A
:103480000A7830F8223013F0400F0BD030F8223099
:1034900023F0F0031B051B0D43F4004343F0C0036E
:1034A00020F822300A7830F8223023F0F0031B0590
:1034B0001B0D43F4004343F0C00320F822300A7888
:1034C00030F822309BB223F4804323F0700383F45E
:1034D000405348F28004234320F822300A7830F821
:1034E00022309BB223F4E04323F04003234320F82F
:1034F000223008E70A7830F8223013F4804F0BD0DE
:1035000030F8223023F0F0031B051B0D43F4404339
:1035100043F0800320F822300A7830F8223013F08C
:10352000400F0BD030F8223023F0F0031B051B0DA9
:1035300043F4004343F0C00320F822300A7830F807
:10354000223023F0F0031B051B0D43F4404343F0EE
:10355000800320F822300B7830F8232092B222F436
:10356000E04222F0400248F28004224320F8232067
:103570000A7830F822309BB223F4804323F07003A2
:10358000234320F82230BEE68B7A002B44D14B78BF
:103590000BB30A7830F8223013F0400F0BD030F81C
:1035A000223023F0F0031B051B0D43F4004343F0CE
:1035B000C00320F822300A7830F822309BB223F47E
:1035C000E04323F0400343F4004343F0800320F83A
:1035D0002230002070470A7830F8223013F4804FF0
:1035E0000BD030F8223023F0F0031B051B0D43F401
:1035F000404343F0800320F822300A7830F822302C
:103600009BB223F4804323F0700343F4004343F060
:10361000800320F82230DCE710B44B78002B4BD12C
:103620000A7830F8223013F4804F0BD030F8223073
:1036300023F0F0031B051B0D43F4404343F08003CC
:1036400020F822300A7830F8223013F0400F0BD0E7
:1036500030F8223023F0F0031B051B0D43F4004328
:1036600043F0C00320F822300A7830F8223023F0EB
:10367000F0031B051B0D43F4004343F0C00320F887
:1036800022300B7830F8232092B222F4804222F0CC
:10369000700248F28004224320F823200A7830F890
:1036A00022309BB223F4E04323F04003234320F86D
:1036B0002230002010BC70470A7830F8223013F412
:1036C000804F0BD030F8223023F0F0031B051B0D88
:1036D00043F4404343F0800320F822300A7830F866
:1036E000223013F0400F0BD030F8223023F0F003DB
:1036F0001B051B0D43F4004343F0C00320F82230A8
:103700000A7830F8223023F0F0031B051B0D43F438
:10371000404343F0800320F822300B7830F8232018
:1037200092B222F4E04222F0400248F280042243A6
:1037300020F823200A7830F822309BB223F480430B
:1037400023F07003234320F82230B2E70A788AB1CD
:103750004B7813BB30F822309BB223F4804323F024
:10376000700383F4805343F4004343F0800320F854
:10377000223010E030F822309BB223F4804323F053
:10378000400383F4805383F0100343F4004343F079
:10379000800320F822300020704730F822309BB29E
:1037A00023F4E04323F0400383F0100343F4004389
:1037B00043F0800320F82230EDE74B781BB30A7802
:1037C00030F8223013F0400F0BD030F8223023F0C5
:1037D000F0031B051B0D43F4004343F0C00320F826
:1037E00022300A7830F822309BB223F4E04323F0F1
:1037F000400383F0300343F4004343F0800320F898
:103800002230002070470A7830F8223013F4804FBD
:103810000BD030F8223023F0F0031B051B0D43F4CE
:10382000404343F0800320F822300A7830F82230F9
:103830009BB223F4804323F0700383F4405343F49A
:10384000004343F0800320F82230DAE711B98023E7
:10385000A0F84C30002070470020704700207047CF
:10386000B0F8440080B270470020704701335B100D
:1038700000EB420202F5806263B110B40C78487824
:1038800044EA002422F8044B0231013B002BF5D11D
:1038900010BC70477047F8B58A694C78012C35D058
:1038A0000B699A4240F2F080D21A8A618A7A002A21
:1038B00040F0FA80B0F8502092B20C7802EBC402CB
:1038C000063200EB42023E2B40F2E280C3F34F147B
:1038D00013F01F0F01D1013CA4B26FEAC4646FEA78
:1038E0005444A4B2C2F800440A7830F822309BB2A3
:1038F00023F4804323F0700383F4405343F40043E4
:1039000043F0800320F822300020F8BD0F69BA424E
:1039100026D9D21B8A610E4605468B7A23B30B78D3
:1039200030F8232012F0400F6CD0002C39D1B0F8C1
:10393000502092B202EBC303063300EB43033E2F49
:1039400023D9C7F34F1217F01F0F01D1013A92B2DA
:103950006FEAC2626FEA524292B2C3F800242AE0D0
:1039600000238B611746D6E7BBB28A884969FFF707
:103970007DFFB5F850309BB2327803EBC2030233BF
:1039800005EB4303C3F800742BE0C7F34F0217F0B5
:10399000010F01D0013292B2920292B2C3F8002418
:1039A00009E0B0F8502092B202EBC303023300EBFF
:1039B0004303C3F800743289BBB271692846FFF72C
:1039C00055FF7378002B4FD1327835F8223023F031
:1039D000F0031B051B0D43F4004343F0C00325F81F
:1039E0002230327835F822309BB223F4E04323F0C2
:1039F000400383F0300343F4004343F0800325F891
:103A0000223081E724BBB0F8502092B202EBC3030E
:103A1000023300EB43033E2F0ED9C7F34F1217F0CA
:103A20001F0F01D1013A92B26FEAC2626FEA5242AD
:103A300092B2C3F8002415E0C7F34F0217F0010F4C
:103A400001D0013292B2920292B2C3F8002409E08E
:103A5000B0F8502092B202EBC303023300EB4303F1
:103A6000C3F80074F288A7E7012BBAD1327835F891
:103A7000223023F0F0031B051B0D43F4404343F0B9
:103A8000800325F82230ACE700238B6113460DE755
:103A9000C3F34F0413F0010F01D00134A4B2A40208
:103AA000A4B2C2F800441FE7C4B9B0F8502092B2E3
:103AB0000C7802EBC402023200EB42023E2B29D901
:103AC000C3F34F1413F01F0F01D1013CA4B26FEAEE
:103AD000C4646FEA5444A4B2C2F800444A788ABB72
:103AE000B0F8502092B20C7802EBC402063200EB20
:103AF00042023E2B1AD9C3F34F1413F01F0F01D10A
:103B0000013CA4B26FEAC4646FEA5444A4B2C2F8A0
:103B10000044E9E6C3F34F0413F0010F01D0013470
:103B2000A4B2A402A4B2C2F80044D7E7C3F34F047E
:103B300013F0010F01D00134A4B2A402A4B2C2F860
:103B40000044D1E6012A7FF4CFAEB0F8502092B203
:103B50000C7802EBC402023200EB4202C2F80034DD
:103B6000C2E601335B1000EB420202F5806204E022
:103B7000106821F8020B013B0432002BF8D170478A
:103B8000D0F818321BB10020C3F81402704702208D
:103B9000704710B5D0F81842D0F81C325BB194F8D9
:103BA0000002FF2807D09B6894F80122214698471D
:103BB000FF2384F80032002010BD0000432303805F
:103BC00000487047080000204323038000487047E6
:103BD0004C000020432303800048704790000020E1
:103BE0000A23038000487047D400002038B50446FB
:103BF000D0F8185201F0FEFBC5F80C02D4F81832C8
:103C00004BB1D4F81C32DB6805F50371D5F804021A
:103C10009847002038BD022038BD000070B5054629
:103C20000C46D0F818620B7813F0600224D0202ADA
:103C300025D1CA88CAB113F0800F0AD14B7886F813
:103C40000032CB8886F80132CA88314600F090FCF9
:103C500015E0D0F81C329B68314660789847E288BE
:103C60003146284600F06FFC09E0D0F81C329B6812
:103C700000224878984702E04B780A2B01D00020B8
:103C800070BD0122014900F05EFCF8E7C00500208C
:103C900010B50446812101F046FB0121204601F0C8
:103CA00042FB8221204601F03EFBD4F8183253B18A
:103CB000D4F81C325B689847D4F8180201F0A4FBD2
:103CC0000023C4F81832002010BD38B50446037C28
:103CD00073BB4FF400730222812101F013FB4FF4F8
:103CE000007302220121204601F00CFB082303226D
:103CF0008221204601F006FB4FF4077001F080FBA3
:103D00000546C4F8180248B3D4F81C321B6898471B
:103D10000023C5F81432C5F81832237CA3B1402320
:103D2000D5F804220121204601F056FB002038BDC1
:103D300040230222812101F0E5FA402302220121E1
:103D4000204601F0DFFAD1E74FF40073D5F80422E2
:103D50000121204601F040FB002038BD012038BD84
:103D600019B1C0F81C120020704702207047D0F82B
:103D70001832C3F80812C3F8102200207047D0F898
:103D80001832C3F8041200207047D0F818228AB104
:103D900008B5D2F814320BB1012008BD0123C2F8D6
:103DA0001432B2F81032D2F80822812101F006FB59
:103DB000002008BD02207047D0F818229AB108B53B
:103DC000037C3BB14023D2F80422012101F004FB23
:103DD000002008BD4FF40073D2F80422012101F045
:103DE000FBFA002008BD0220704798B108B50346D1
:103DF000D0F8140210B10020C3F8140209B1C3F8BE
:103E000010121846012380F8FC31027001F022FAEA
:103E1000002008BD0220704719B1C0F8141200201C
:103E200070470220704708B501F05EFA002008BD17
:103E300008B5D0F8143223B11B68984718B1022096
:103E400008BD022008BD002008BD08B5D0F8143216
:103E50005B689847002008BD38B5044600F5027538
:103E6000284600F00DF90123C4F8F431B4F80E32FD
:103E7000C4F8F83194F8081201F01F03012B0ED09A
:103E80003BB1022B10D001F08001204601F059FA1D
:103E900003E02946204600F06DFA002038BD29468F
:103EA000204600F08BFAF8E72946204600F0A2FAF7
:103EB000F3E710B5044619BB1346D0F8F421032AE2
:103EC00027D1D0F80C11D0F8102191420BD8D0F89E
:103ED00014321B691BB190F8FC21032A0ED0204636
:103EE00000F05DFB15E0891AC0F80C118A4228BF6A
:103EF0000A4692B2194600F04AFB0AE09847EEE7FC
:103F00000A46D0F814329B691BB190F8FC110329C2
:103F100001D0002010BD11469847FAE710B50446BD
:103F2000002947D11346D0F8F421022A05D094F88D
:103F30000032012B3AD0002010BDC169026A9142C3
:103F400017D88169B1FBF2F302FB13132BB98A4234
:103F500003D8D0F8F831994218D3D4F81432DB687A
:103F60001BB194F8FC21032A1DD0204600F022FB4F
:103F7000DDE78A1AC26192B2194600F0F1FA002315
:103F80001A461946204601F027FAD0E700221146CA
:103F900000F0E6FA0021C4F8F8110B460A46204664
:103FA00001F01AFAC3E720469847DEE7002384F8B9
:103FB0000032C0E70A46D0F814325B69002BBAD051
:103FC00090F8FC110329B6D111469847B3E738B5EC
:103FD000044640230022114601F094F94025C4F81C
:103FE00010512B4600228021204601F08BF92562DA
:103FF000012384F8FC31D4F818322BB1D4F81432F0
:104000005B68217920469847002038BD0174002064
:10401000704790F8FC3180F8FD31042380F8FC31C2
:104020000020704790F8FD3180F8FC310020704787
:1040300008B590F8FC31032B01D0002008BDD0F862
:104040001432DB69002BF8D09847F6E7002302E032
:104050000133DBB201300278002AF9D118467047EB
:104060004B88012B00D0704710B50446C0F80432CD
:10407000D0F814329B689847204600F090FA10BDA3
:104080000B7803704B7843708B78CA7803EB02236C
:1040900043800B794A7903EB022383808B79CA79B9
:1040A00003EB0223C380704710B50446802101F062
:1040B00048F90021204601F044F910BD30B583B025
:1040C00004460D464A88130A013B062B00F2818004
:1040D000DFE803F00413277F7F637000D0F810320D
:1040E0001B680DF10601007C9847BDF8062012B14F
:1040F000EB88002B71D103B030BD037C43B9D0F8FD
:1041000014329B6A0DF10600984702234370ECE7D6
:10411000D0F81432DB6A0DF1060098470223437091
:10412000E3E7D2B2052A34D8DFE802F0030B131B11
:10413000232BD0F810325B680DF10601007C984704
:10414000D3E7D0F810329B680DF10601007C984748
:10415000CBE7D0F81032DB680DF10601007C984700
:10416000C3E7D0F810321B690DF10601007C9847B7
:10417000BBE7D0F810325B690DF10601007C98476F
:10418000B3E7D0F810329B690DF10601007C984727
:10419000ABE72946FFF788FFADE7037C33B9D0F8DA
:1041A00014325B6B0DF1060098479EE72946FFF736
:1041B0007BFFA0E7037C43B9D0F814321B6B0DF1F1
:1041C00006009847072343708FE72946FFF76CFFE7
:1041D00091E72946FFF768FF8DE79A4228BF1A4604
:1041E000ADF806200146204600F0ADF983E738B56A
:1041F00004468B88E3B9CB88D3B98D7805F07F0569
:1042000090F8FC31032B0CD080F8FE51294601F0C8
:10421000C7F8204600F0C3F935B1022384F8FC3119
:1042200038BDFFF741FF38BD012384F8FC3138BDAC
:104230002046FFF739FF38BD38B504460D4689786A
:10424000254B1970012909D890F8FC31022B09D0AF
:10425000032B1CD02946FFF727FF38BD2946FFF75F
:1042600023FF38BD81B14160032380F8FC31FFF7A3
:10427000DFFD022803D0204600F091F938BD294621
:104280002046FFF711FF38BD00F089F938BD89B12C
:10429000436899421DD0D9B2FFF7D7FD0E4B19786C
:1042A00061602046FFF7C4FD02280DD0204600F0D3
:1042B00076F938BD022380F8FC314160FFF7C5FD77
:1042C000204600F06CF938BD29462046FFF7ECFE89
:1042D00038BD00F064F938BDC105002008B5CB88B1
:1042E000012B08D190F8FC31022B07D0032B0DD005
:1042F000FFF7DAFE08BDFFF7D7FE08BD0146002331
:1043000041F8083F012200F01EF908BD0122011DFD
:1043100000F019F908BD08B590F8FC31023B012BFB
:104320000CD80123C360D0F804320BB10323C3605F
:10433000022200F10C0100F006F908BDFFF7B4FEFF
:1043400008BD10B5044690F8FC31023B012B0ED895
:104350004B88012B00D010BD0023C0F80432D0F8E8
:1043600014329B689847204600F019F910BDFFF7FA
:104370009BFEF0E708B54B78092B1CD8DFE803F06B
:1043800012181B151B09051B0F0CFFF797FE0020C9
:1043900008BDFFF72CFFFAE7FFF74EFFF7E7FFF73F
:1043A0009DFFF4E7FFF7B7FFF1E7FFF759FEEEE7F0
:1043B000FFF7C7FFEBE7FFF777FEE8E738B50446FE
:1043C0000D4690F8FC31032B11D10B79012B03D949
:1043D000FFF76AFE002038BDD0F814329B6898477A
:1043E000EB88002BF6D1204600F0D9F8F2E7FFF772
:1043F0005BFEEFE738B505460C468A880B7803F07C
:104400006003202B11D0D1B26378012B2BD0002B6D
:104410004DD0032B0DD190F8FC31022B0BD0032B88
:1044200010D02146FFF740FE03E0D0F814329B681D
:104430009847002038BD0029FBD08029F9D000F032
:1044400080FFF6E7638823B919B1802901D000F015
:1044500078FFD5F814329B682146284698472846AD
:1044600000F09DF8E5E790F8FC31022B05D0032B16
:104470000AD02146FFF718FEDBE70029D9D08029B2
:10448000D7D000F05EFFD4E76388002BD1D111F0C4
:104490007F0F03D1284600F082F8CAE700F05FFFE3
:1044A000D5F814329B68214628469847F2E790F8E1
:1044B000FC31022B05D0032B09D02146FFF7F4FD78
:1044C000B7E711F07F0FB4D000F03BFFB1E712F077
:1044D000800F11D101F07F04103400EB0414043478
:1044E000284600F04AFF70B10123236002222146D2
:1044F000284600F028F89CE701F07F04013400EB27
:1045000004140434ECE700232360EFE7D0B170B566
:104510000D4616460446FFF799FD0130400080B273
:104520003080287003236B70022307E05A1CD2B23C
:104530000134E9540233DBB20021A9542178002967
:10454000F4D170BD704710B513460222C0F8F421B3
:104550008361C3610A46002100F030FF002010BDD6
:1045600008B513460A46002100F028FF002008BDC8
:1045700010B513460322C0F8F421C0F80831C0F882
:104580000C310A46002100F027FF002010BD08B5BD
:1045900013460A46002100F01FFF002008BD08B5A1
:1045A0000423C0F8F43100231A46194600F006FF30
:1045B000002008BD08B50523C0F8F43100231A46D1
:1045C000194600F009FF002008BD10B400EBD070C0
:1045D0004010404200F164040C6032301060002250
:1045E0001A6010BC70470968B1F1FF3F04D001297F
:1045F00009D001230360704711684FF0FF320A6051
:104600001B681A607047022303607047F0B5059F6E
:10461000DDF818E0DDF81CC0DCF80040B4F1FF3F25
:1046200018D000258D4219D00F4E746C20F814203C
:10463000013420F81430013420F81470013420F8CB
:1046400014E0013474640135202CEBD10026064CB3
:104650006664E7E70020CCF80000F0BD0023CCF84A
:1046600000300120F0BD00BFC405002030B4046854
:104670005E2C14DD0D682C2D11DD632C06DD312D33
:1046800004DD4FF0FF32029B1A6012E05F240460E9
:10469000612010602D220A602F221A6009E0372C59
:1046A00002DC0D68052D06DD023414600A68023252
:1046B0001A6030BC7047322404603720106000223A
:1046C0000A6005221A60F4E730B589B005900491BC
:1046D000002307930693EAB1114C124D009506ABE7
:1046E00007AA04F14C0104F14800FFF7BFFF04AB37
:1046F00005AA2946281DFFF776FF69680295069BE3
:104700000193E36C0093079BA26C201DFFF77EFFD3
:1047100009B030BD0268024B9A640A68DA64DBE7CC
:10472000C405002018010020024BDB6B1868C0F3A1
:1047300040007047C808002008B5064B1A68136887
:1047400023F001031360FFF7EFFF00210248FEF79B
:10475000F9FC08BDC808002088080020054B1B682C
:10476000DA6842F48442DA605A6942F042025A61DD
:10477000704700BF88080020F8B5FBF743FF0446E8
:10478000FCF710FA0028B8BF4042FBF749FE20A30F
:10479000D3E90023FBF728FF28B11F4D29682046E5
:1047A000FBF732FF28601C4D69682046FBF72AFFA3
:1047B00006461A492046FCF72FF8074600212868CC
:1047C000FCF72AF801463846FBF71EFF0546144958
:1047D0003046FCF721F801462846FBF715FF054651
:1047E0001049FCF7D5F930B90F492846FCF7B2F962
:1047F00010B10D4D00E00B4D074B5C600949284698
:10480000FCF7BEF80949FCF707F8F8BDAFF30080E4
:104810007B14AE47E17A843F14060020000070410B
:104820000000404000006145000061C50000C84232
:1048300070B4C56B066C0124B4406C60046863609E
:104840004368102B05D0036899600368DA6070BC78
:10485000704703689A600368D960F8E72DE9F04172
:1048600088B0274B9A6942F020029A619A6902F057
:1048700020020192019A9A6942F004029A619A69AF
:1048800002F004020292029A9A6942F008029A61C6
:104890009B6903F008030393039BDFF870800022F9
:1048A00080214046FCF73EFE164D01220821284695
:1048B000FCF738FE80230493012705970024069413
:1048C0000326079604A94046FCF736FD022304930D
:1048D0000D4B0593069404A92846FCF72DFD0823EB
:1048E000049305970694079604A92846FCF724FD2F
:1048F000224621460720FCF7D7FB08B0BDE8F0812F
:1049000000100240000C014000002110000801408E
:1049100000B583B0084B5A6942F001025A615B69E5
:1049200003F001030193019B002211460B20FCF7C9
:10493000BBFB03B05DF804FB0010024038B5234B0D
:104940005B6913F0020F03D10220FCF7F3FD38BDC1
:104950001F4C012280212046FCF7E4FD002280212B
:104960002046FCF7DFFD1B4C0123A360E26804F145
:10497000100104F11400FFF7A7FE6369B3F1FF3FD4
:104980000CD02369B3F1FF3F08D0134B1B68012BF8
:104990000AD000211148FEF7BDFBD5E7FFF7CCFE9A
:1049A00001220D4B1A60CFE700240B4B1C600B4D0E
:1049B00021462846FEF7AEFB2B685C62084B1A685E
:1049C000136843F001031360BEE700BF0004014019
:1049D0000008014014060020200100208808002063
:1049E000C808002070B50646002407E0064D28469A
:1049F000FFF7C5F92846FFF7DFF901343119335DB8
:104A0000002BF3D1002070BDBC0D002070B582B02A
:104A10000646002202AC24F8042D174D4FF48051B5
:104A20002846FCF77FFD4FF47A7301222146134894
:104A3000FDF715FF01224FF480512846FCF772FD67
:104A40009DF8043013F0040F02D0002002B070BDB6
:104A5000BFF35F8F9DF805209DF8043043EA0223E1
:104A6000BFF35F8FC3F34913BFF35F8F337001212F
:104A7000304600F075FBE9E7000C01400C0900200E
:104A800010B5064C23681A6900221A610448FFF722
:104A9000BDFF2046FEF788F910BD00BF4C0D002079
:104AA0002C060020FEE7000008B51148114B0360FA
:104AB0004FF4827343604FF4806383604FF400636C
:104AC000C3600023036143614FF48022826130227E
:104AD000C2610362436283620A23C362FDF774FF0B
:104AE00000B908BD4FF4EA710348FFF7DBFF00BFD0
:104AF0000C090020003800406455000800B587B05C
:104B00001D481E4B03604FF6FE7343600023836015
:104B10004FF4FA62C26003618361FEF73FFAB8B9ED
:104B200006A94FF4805341F8103D1348FEF793F85F
:104B300098B91148FEF764FAA0B9002300930193D5
:104B400069460D48FEF72AFB88B907B05DF804FBFB
:104B500040F22F110A48FFF7A5FF40F2351108482F
:104B6000FFF7A0FF4FF49D710548FFF79BFF40F250
:104B700041110348FFF796FF4C0D00200004004050
:104B80006455000800B593B03248334B036042F2DD
:104B90007F534360002383604FF4FA72C260036165
:104BA00080238361FEF7FAF9002834D112A94FF46B
:104BB000805341F8103D2748FEF74DF800282FD1CB
:104BC0002448FEF704FA00282FD104230993602318
:104BD0000A9302230B9300230D9309A91D48FEF7A6
:104BE000BEF838BB402307930023089307A9194850
:104BF000FEF7D4FA18BB30230093002202920492ED
:104C000069461448FEF748FAF0B9124800F004FA71
:104C100013B05DF804FB4FF4AC711048FFF742FF8E
:104C20004FF4AF710D48FFF73DFF40F263110B48A1
:104C3000FFF738FF4FF4B6710848FFF733FF40F233
:104C400073110648FFF72EFF4FF4BE710348FFF7BC
:104C500029FF00BF880800200008004064550008B4
:104C600000B585B01348144B036000238360012214
:104C7000C26043614FF46021C16143600261FCF78F
:104C800079F960B90023019301220292039301A9EB
:104C90000848FCF7ADF838B905B05DF804FB4FF4EF
:104CA00088710648FFF7FEFE4FF48D710348FFF749
:104CB000F9FE00BF8C0D002000240140645500085F
:104CC00000B595B001220A924FF480330B93002176
:104CD0000C910E920222119212934FF480131393AF
:104CE0000AA8FDF7CBF858BB0F23059302230693C0
:104CF000002307934FF4806208920993012105A8CD
:104D0000FDF7E2FA00BB102301934FF480030493F4
:104D100001A8FDF79BFBD8B9FDF792FB0E4BA3FB57
:104D200000308009FCF7FEF90420FCF711FA00229C
:104D300011464FF0FF30FCF7B7F915B05DF804FBF2
:104D4000DA210648FFF7AEFEE8210448FFF7AAFE85
:104D5000EF210248FFF7A6FED34D6210645500080C
:104D600008B5FCF721F8FFF7ABFFFFF777FDFFF77A
:104D70009BFEFFF7CDFDFFF7C1FEFFF703FFFFF737
:104D80006FFF2420FCF7C2F900F0A2F9FFF7E6FC60
:104D9000002280211348FCF7C5FB2023124A134947
:104DA0001348FFF745FD1D20FCF7B0F91148FDF74A
:104DB00044FF0B20FCF7AAF90F4800F0BDF90F4C97
:104DC000E06104F10C0304F1100204F11401FFF797
:104DD000FCFB236A002BEFD10720FCF797F9012297
:104DE0002262E9E70008014034080040C8050020BD
:104DF000C80800204C0D0020640900201406002083
:104E000000B583B0244B9A6942F001029A619A6915
:104E100002F001020092009ADA6942F08052DA61EF
:104E2000DB6903F080530193019B0320FCF72AF90F
:104E3000002211466FF00B00FCF736F900221146F4
:104E40006FF00A00FCF730F9002211466FF00900FC
:104E5000FCF72AF9002211466FF00400FCF724F950
:104E6000002211466FF00300FCF71EF900221146E4
:104E70006FF00100FCF718F9002211464FF0FF30E7
:104E8000FCF712F9054A536823F0E06343F000731E
:104E9000536003B05DF804FB0010024000000140C5
:104EA00002680E4B9A4200D0704700B587B003F5F8
:104EB0006C439A6942F400729A619B6903F400732F
:104EC0000193019B012302930323039302A9044846
:104ED000FCF732FA07B05DF804FB00BF0024014084
:104EE0000008014002681A4B9A4200D0704770B522
:104EF00086B003F5EC33DA6942F48042DA61DB69AB
:104F000003F480430193019B4FF4805302930123E8
:104F1000039303260596002504950E4C02A920460E
:104F2000FCF70AFA4FF40053029302230393059609
:104F300002A92046FCF700FA4FF480430293039540
:104F4000049502A92046FCF7F7F906B070BD00BF32
:104F500000380040000C014070B586B00368274A55
:104F6000934205D00446264A934214D006B070BD41
:104F7000244BDA6942F00202DA61DB6903F00203D2
:104F80000093009B002211461D20FCF78DF81D2088
:104F9000FCF7BCF8EAE71B4BDA6942F00402DA617D
:104FA000DB6903F004030193019B80260296002530
:104FB0000395049502A91448FCF7BEF91348144B55
:104FC0000360102343608560C6604FF48073036103
:104FD0004FF480634361202383614FF40053C36126
:104FE000FCF7CCF818B9094B63625C62BEE740F28B
:104FF00001110848FFF756FDF5E700BF0004004027
:105000000008004000100240000C0140C8080020C9
:1050100008000240745500080268094B9A4200D00B
:10502000704700B585B0402300930223019303939A
:1050300069460448FCF780F905B05DF804FB00BF41
:1050400000080040000C01407047FEE7FEE7FEE765
:10505000FEE770477047704708B5FBF7B7FEFCF7EF
:1050600088F808BD08B50248FCF7C4F808BD00BFC1
:10507000C808002008B50248FCF7CBFD08BD00BFFA
:10508000C81300200F4B1A6842F001021A605968D9
:105090000D4A0A405A601A6822F0847222F4803263
:1050A0001A601A6822F480221A605A6822F4FE02FA
:1050B0005A604FF41F029A604FF00062034B9A60EF
:1050C000704700BF001002400000FFF800ED00E054
:1050D00010B5094C002209492046FEF786FE084912
:1050E0002046FEF799FE07492046FEF739FE204686
:1050F000FEF799FE10BD00BFBC0D00205C01002032
:10510000E00000203401002000207047002070479C
:1051100010B5064C002206492046FEF728FE054938
:105120002046FEF72CFE002010BD00BFBC0D002065
:10513000E00F002064090020084B1B68C25C662A4F
:1051400009D10133054A1360B3F57A7FF4D1002207
:10515000024B1A60F0E71046704700BF3C06002083
:10516000094BD3F81832D3F814320BB10120704731
:1051700010B50A460146044C2046FEF7F8FD2046CD
:10518000FEF703FE10BD00BFBC0D002002680E4BF1
:105190009A4200D0704700B583B003F5DA33DA697C
:1051A00042F40002DA61DB6903F400030193019B1E
:1051B000002211461420FBF777FF1420FBF7A6FF0F
:1051C00003B05DF804FB00BF005C004008B500F2CE
:1051D0002C41D0F85C04FEF73FFE08BD08B500EB9B
:1051E0004113D3F83C22D0F85C04FEF762FE08BD00
:1051F00008B500EB4113DA6BD0F85C04FEF78EFEC5
:1052000008BD08B5D0F85C04FEF712FF08BD10B564
:1052100004460121D0F85C04FEF7F8FED4F85C04E3
:10522000FEF7D5FE10BD000010B50446D0F85C04B2
:10523000FEF7EFFEA36923B1024A136943F00603A8
:10524000136110BD00ED00E008B5D0F85C04FEF776
:10525000E9FE08BD10B504462048C0F85C44C4F817
:1052600020021F4B03600823436002238360032353
:10527000C36000238361C3610362FCF769F930BB3B
:10528000182300221146D4F82002FCF7C9FD582348
:1052900000228021D4F82002FCF7C2FDC0230022A6
:1052A0008121D4F82002FCF7BBFD4FF48873002263
:1052B0000121D4F82002FCF7B3FD4FF480730022E3
:1052C0008221D4F82002FCF7ABFD002010BD4FF482
:1052D00097710448FFF7E6FBD2E700BFC813002030
:1052E000005C00409055000808B5D0F82002FCF79B
:1052F0009AF918B1022803D0022008BD002008BD89
:10530000012008BD10B51C4613462246D0F82002E5
:10531000FCF7B4F918B1022803D0022010BD002018
:1053200010BD012010BD08B5D0F82002FCF7CFF960
:1053300018B1022803D0022008BD002008BD0120BA
:1053400008BD08B5D0F82002FCF715FD18B10228F9
:1053500003D0022008BD002008BD012008BD08B50B
:10536000D0F82002FCF735FD18B1022803D0022046
:1053700008BD002008BD012008BDD0F8202211F092
:10538000800F06D101F07F0102EB411191F82A0252
:10539000704701F07F0302EB431191F82A00704738
:1053A00008B5D0F82002FCF755F918B1022803D04F
:1053B000022008BD002008BD012008BD08B5D0F8B6
:1053C0002002FCF7D1F918B1022803D0022008BD51
:1053D000002008BD012008BD08B5D0F82002FCF768
:1053E0009DF918B1022803D0022008BD002008BD95
:1053F000012008BD08B5D0F82002FCF7AEF908BDC1
:1054000000487047400600207047704712230B8009
:10541000004870474401002004230B800048704777
:105420005801002008B50A4628B105490548FFF78C
:105430006DF8034808BD02490248FFF767F8F8E72E
:1054400028180020A455000810B5044C0A4621462F
:105450000348FFF75BF8204610BD00BF2818002066
:10546000BC55000808B50A4628B105490548FFF7AC
:105470004DF8034808BD02490248FFF747F8F8E72E
:1054800028180020D055000808B50A4628B105495B
:105490000548FFF73BF8034808BD02490248FFF7FB
:1054A00035F8F8E728180020E055000808B50A4646
:1054B00028B105490548FFF729F8034808BD024906
:1054C0000248FFF723F8F8E728180020EC550008F9
:1054D000002103E00B4B5B58435004310A480B4B4F
:1054E00042189A42F6D30A4A02E0002342F8043BEB
:1054F000084B9A42F9D3FFF7C5FDFBF779FBFFF79D
:105500002FFC70470856000800000020A40500206A
:10551000A4050020281A0020FEE70000F8B500BF0F
:10552000F8BC08BC9E467047F8B500BFF8BC08BC84
:045530009E467047DC
:1055340002030405060708090A0B0C0D0E0F1010D0
:10554400010200000000000000000000010203044A
:105554000607080900000000010203047801002086
:105564002E2E2F5372632F6D61696E2E630000001F
:105574002E2E2F5372632F73746D33326631787805
:105584005F68616C5F6D73702E6300002E2E2F5365
:1055940072632F757362645F636F6E662E630000BF
:1055A40053544D3332205669727475616C20436FC5
:1055B4006D506F727400000053544D6963726F65CF
:1055C4006C656374726F6E696373000030303030E1
:1055D400303030303030314100000000434443204B
:1055E400436F6E666967000043444320496E7465E7
:0855F4007266616365000000AE
:0855FC00410C00083501000814
:045604001101000888
:10560800010000001000000009024300020100C070
:1056180032090400000102020100052400100105FE
:105628002401000104240202052406000107058262
:105638000308001009040100020A00000007050120
:1056480002400000070581024000000009024300F3
:10565800020100C032090400000102020100052411
:10566800001001052401000104240202052406009B
:10567800010705820308001009040100020A00005E
:105688000007050102000200070581020002000070
:1056980009074300020104C03209040000010202A4
:1056A8000100052400100105240100010424020260
:1056B8000524060001070582030800FF090401000C
:1056C800020A0000000705010240000007058102E8
:1056D800400000000A06000200000040010000002F
:1056E800CB3C0008913C00081D3C0008000000006D
:1056F800933B0008813B0008ED3B000800000000D8
:105708000000000000000000C93B0008BD3B000885
:10571800D53B0008E13B0008010000000200000042
:1057280001000000E8030000E803000079470008D2
:1057380000A24A0411510008095100080D5100083F
:10574800E5490008120100020202004083044057A4
:105758000002010203010000040309040D540008BB
:1057680019540008495400082554000865540008D5
:1057780089540008AD5400080000000064040020AB
:10578800CC040020340500200000000000000000C8
:105798000000000000000000000000000000000001
:1057A80000000000000000000000000000000000F1
:1057B80000000000000000000000000000000000E1
:1057C80000000000000000000000000000000000D1
:1057D80000000000000000000000000000000000C1
:1057E80000000000000000000000000000000000B1
:1057F80000000000000000000000000000000000A1
:105808000000000000000000000000000000000090
:105818000000000000000000000000000000000080
:1058280001000000000000000E33CDAB34126DE61D
:10583800ECDE05000B000000000000000000000086
:105848000000000000000000000000000000000050
:105858000000000000000000000000000000000040
:105868000000000000000000000000000000000030
:105878000000000000000000000000000000000020
:045BA8006008002071
:04000005080054D1CA
:00000001FF
